{
	"contracts/ballot.sol": {
		"Ballot": {
			"abi": [
				{
					"inputs": [],
					"stateMutability": "nonpayable",
					"type": "constructor"
				},
				{
					"inputs": [
						{
							"internalType": "uint256",
							"name": "ID",
							"type": "uint256"
						}
					],
					"name": "closeVote",
					"outputs": [],
					"stateMutability": "payable",
					"type": "function"
				},
				{
					"inputs": [],
					"name": "createVote",
					"outputs": [],
					"stateMutability": "view",
					"type": "function"
				},
				{
					"inputs": [],
					"name": "getVoters",
					"outputs": [],
					"stateMutability": "view",
					"type": "function"
				},
				{
					"inputs": [],
					"name": "getVotes",
					"outputs": [],
					"stateMutability": "view",
					"type": "function"
				},
				{
					"inputs": [],
					"name": "owner",
					"outputs": [
						{
							"internalType": "address",
							"name": "",
							"type": "address"
						}
					],
					"stateMutability": "view",
					"type": "function"
				},
				{
					"inputs": [
						{
							"internalType": "uint256",
							"name": "ID",
							"type": "uint256"
						}
					],
					"name": "sendDepo",
					"outputs": [],
					"stateMutability": "payable",
					"type": "function"
				},
				{
					"inputs": [
						{
							"internalType": "uint256",
							"name": "ID1",
							"type": "uint256"
						},
						{
							"internalType": "uint256",
							"name": "ID2",
							"type": "uint256"
						}
					],
					"name": "sendVote",
					"outputs": [],
					"stateMutability": "nonpayable",
					"type": "function"
				},
				{
					"inputs": [
						{
							"internalType": "uint256",
							"name": "",
							"type": "uint256"
						}
					],
					"name": "votes",
					"outputs": [
						{
							"internalType": "uint256",
							"name": "id",
							"type": "uint256"
						},
						{
							"internalType": "uint256",
							"name": "startTime",
							"type": "uint256"
						},
						{
							"internalType": "uint256",
							"name": "balance",
							"type": "uint256"
						},
						{
							"internalType": "uint256",
							"name": "numVoters",
							"type": "uint256"
						}
					],
					"stateMutability": "view",
					"type": "function"
				}
			],
			"devdoc": {
				"kind": "dev",
				"methods": {},
				"version": 1
			},
			"evm": {
				"assembly": "    /* \"contracts/ballot.sol\":61:1478  contract Ballot {\r... */\n  mstore(0x40, 0x80)\n    /* \"contracts/ballot.sol\":719:771  constructor () {\r... */\n  callvalue\n  dup1\n  iszero\n  tag_1\n  jumpi\n  0x00\n  dup1\n  revert\ntag_1:\n  pop\n    /* \"contracts/ballot.sol\":753:763  msg.sender */\n  caller\n    /* \"contracts/ballot.sol\":745:750  owner */\n  0x00\n  dup1\n    /* \"contracts/ballot.sol\":745:763  owner = msg.sender */\n  0x0100\n  exp\n  dup2\n  sload\n  dup2\n  0xffffffffffffffffffffffffffffffffffffffff\n  mul\n  not\n  and\n  swap1\n  dup4\n  0xffffffffffffffffffffffffffffffffffffffff\n  and\n  mul\n  or\n  swap1\n  sstore\n  pop\n    /* \"contracts/ballot.sol\":61:1478  contract Ballot {\r... */\n  dataSize(sub_0)\n  dup1\n  dataOffset(sub_0)\n  0x00\n  codecopy\n  0x00\n  return\nstop\n\nsub_0: assembly {\n        /* \"contracts/ballot.sol\":61:1478  contract Ballot {\r... */\n      mstore(0x40, 0x80)\n      jumpi(tag_1, lt(calldatasize, 0x04))\n      shr(0xe0, calldataload(0x00))\n      dup1\n      0x694ff0f2\n      gt\n      tag_10\n      jumpi\n      dup1\n      0x694ff0f2\n      eq\n      tag_6\n      jumpi\n      dup1\n      0x6e48a035\n      eq\n      tag_7\n      jumpi\n      dup1\n      0x8da5cb5b\n      eq\n      tag_8\n      jumpi\n      dup1\n      0xcdd72253\n      eq\n      tag_9\n      jumpi\n      jump(tag_1)\n    tag_10:\n      dup1\n      0x0dc96015\n      eq\n      tag_2\n      jumpi\n      dup1\n      0x291e6777\n      eq\n      tag_3\n      jumpi\n      dup1\n      0x4d55f046\n      eq\n      tag_4\n      jumpi\n      dup1\n      0x5df81330\n      eq\n      tag_5\n      jumpi\n    tag_1:\n      0x00\n      dup1\n      revert\n        /* \"contracts/ballot.sol\":1156:1199  function getVotes () public view {\r... */\n    tag_2:\n      callvalue\n      dup1\n      iszero\n      tag_11\n      jumpi\n      0x00\n      dup1\n      revert\n    tag_11:\n      pop\n      tag_12\n      tag_13\n      jump\t// in\n    tag_12:\n      stop\n        /* \"contracts/ballot.sol\":1336:1392  function sendVote (uint ID1, uint ID2) public {\r... */\n    tag_3:\n      callvalue\n      dup1\n      iszero\n      tag_14\n      jumpi\n      0x00\n      dup1\n      revert\n    tag_14:\n      pop\n      tag_15\n      0x04\n      dup1\n      calldatasize\n      sub\n      dup2\n      add\n      swap1\n      tag_16\n      swap2\n      swap1\n      tag_17\n      jump\t// in\n    tag_16:\n      tag_18\n      jump\t// in\n    tag_15:\n      stop\n        /* \"contracts/ballot.sol\":978:1126  function sendDepo (uint ID) public payable {\r... */\n    tag_4:\n      tag_19\n      0x04\n      dup1\n      calldatasize\n      sub\n      dup2\n      add\n      swap1\n      tag_20\n      swap2\n      swap1\n      tag_21\n      jump\t// in\n    tag_20:\n      tag_22\n      jump\t// in\n    tag_19:\n      stop\n        /* \"contracts/ballot.sol\":641:676  mapping (uint => Vote) public votes */\n    tag_5:\n      callvalue\n      dup1\n      iszero\n      tag_23\n      jumpi\n      0x00\n      dup1\n      revert\n    tag_23:\n      pop\n      tag_24\n      0x04\n      dup1\n      calldatasize\n      sub\n      dup2\n      add\n      swap1\n      tag_25\n      swap2\n      swap1\n      tag_21\n      jump\t// in\n    tag_25:\n      tag_26\n      jump\t// in\n    tag_24:\n      mload(0x40)\n      tag_27\n      swap5\n      swap4\n      swap3\n      swap2\n      swap1\n      tag_28\n      jump\t// in\n    tag_27:\n      mload(0x40)\n      dup1\n      swap2\n      sub\n      swap1\n      return\n        /* \"contracts/ballot.sol\":799:936  function createVote () public view {\r... */\n    tag_6:\n      callvalue\n      dup1\n      iszero\n      tag_29\n      jumpi\n      0x00\n      dup1\n      revert\n    tag_29:\n      pop\n      tag_30\n      tag_31\n      jump\t// in\n    tag_30:\n      stop\n        /* \"contracts/ballot.sol\":1419:1473  function closeVote (uint ID) public payable {\r... */\n    tag_7:\n      tag_32\n      0x04\n      dup1\n      calldatasize\n      sub\n      dup2\n      add\n      swap1\n      tag_33\n      swap2\n      swap1\n      tag_21\n      jump\t// in\n    tag_33:\n      tag_34\n      jump\t// in\n    tag_32:\n      stop\n        /* \"contracts/ballot.sol\":86:106  address public owner */\n    tag_8:\n      callvalue\n      dup1\n      iszero\n      tag_35\n      jumpi\n      0x00\n      dup1\n      revert\n    tag_35:\n      pop\n      tag_36\n      tag_37\n      jump\t// in\n    tag_36:\n      mload(0x40)\n      tag_38\n      swap2\n      swap1\n      tag_39\n      jump\t// in\n    tag_38:\n      mload(0x40)\n      dup1\n      swap2\n      sub\n      swap1\n      return\n        /* \"contracts/ballot.sol\":1230:1274  function getVoters () public view {\r... */\n    tag_9:\n      callvalue\n      dup1\n      iszero\n      tag_40\n      jumpi\n      0x00\n      dup1\n      revert\n    tag_40:\n      pop\n      tag_41\n      tag_42\n      jump\t// in\n    tag_41:\n      stop\n        /* \"contracts/ballot.sol\":1156:1199  function getVotes () public view {\r... */\n    tag_13:\n      jump\t// out\n        /* \"contracts/ballot.sol\":1336:1392  function sendVote (uint ID1, uint ID2) public {\r... */\n    tag_18:\n      pop\n      pop\n      jump\t// out\n        /* \"contracts/ballot.sol\":978:1126  function sendDepo (uint ID) public payable {\r... */\n    tag_22:\n        /* \"contracts/ballot.sol\":1054:1071  10000000000000000 */\n      0x2386f26fc10000\n        /* \"contracts/ballot.sol\":1041:1050  msg.value */\n      callvalue\n        /* \"contracts/ballot.sol\":1041:1071  msg.value == 10000000000000000 */\n      eq\n        /* \"contracts/ballot.sol\":1032:1118  require (msg.value == 10000000000000000, \"Rejected! Send exactly 0.01 ether to vote!\") */\n      tag_46\n      jumpi\n      mload(0x40)\n      0x08c379a000000000000000000000000000000000000000000000000000000000\n      dup2\n      mstore\n      0x04\n      add\n      tag_47\n      swap1\n      tag_48\n      jump\t// in\n    tag_47:\n      mload(0x40)\n      dup1\n      swap2\n      sub\n      swap1\n      revert\n    tag_46:\n        /* \"contracts/ballot.sol\":978:1126  function sendDepo (uint ID) public payable {\r... */\n      pop\n      jump\t// out\n        /* \"contracts/ballot.sol\":641:676  mapping (uint => Vote) public votes */\n    tag_26:\n      mstore(0x20, 0x02)\n      dup1\n      0x00\n      mstore\n      keccak256(0x00, 0x40)\n      0x00\n      swap2\n      pop\n      swap1\n      pop\n      dup1\n      0x00\n      add\n      sload\n      swap1\n      dup1\n      0x01\n      add\n      sload\n      swap1\n      dup1\n      0x02\n      add\n      sload\n      swap1\n      dup1\n      0x03\n      add\n      sload\n      swap1\n      pop\n      dup5\n      jump\t// out\n        /* \"contracts/ballot.sol\":799:936  function createVote () public view {\r... */\n    tag_31:\n        /* \"contracts/ballot.sol\":868:873  owner */\n      0x00\n      dup1\n      sload\n      swap1\n      0x0100\n      exp\n      swap1\n      div\n      0xffffffffffffffffffffffffffffffffffffffff\n      and\n        /* \"contracts/ballot.sol\":854:873  msg.sender == owner */\n      0xffffffffffffffffffffffffffffffffffffffff\n      and\n        /* \"contracts/ballot.sol\":854:864  msg.sender */\n      caller\n        /* \"contracts/ballot.sol\":854:873  msg.sender == owner */\n      0xffffffffffffffffffffffffffffffffffffffff\n      and\n      eq\n        /* \"contracts/ballot.sol\":845:928  require (msg.sender == owner, \"Rejected! Only contract owner can create new vote!\") */\n      tag_50\n      jumpi\n      mload(0x40)\n      0x08c379a000000000000000000000000000000000000000000000000000000000\n      dup2\n      mstore\n      0x04\n      add\n      tag_51\n      swap1\n      tag_52\n      jump\t// in\n    tag_51:\n      mload(0x40)\n      dup1\n      swap2\n      sub\n      swap1\n      revert\n    tag_50:\n        /* \"contracts/ballot.sol\":799:936  function createVote () public view {\r... */\n      jump\t// out\n        /* \"contracts/ballot.sol\":1419:1473  function closeVote (uint ID) public payable {\r... */\n    tag_34:\n      pop\n      jump\t// out\n        /* \"contracts/ballot.sol\":86:106  address public owner */\n    tag_37:\n      0x00\n      dup1\n      sload\n      swap1\n      0x0100\n      exp\n      swap1\n      div\n      0xffffffffffffffffffffffffffffffffffffffff\n      and\n      dup2\n      jump\t// out\n        /* \"contracts/ballot.sol\":1230:1274  function getVoters () public view {\r... */\n    tag_42:\n      jump\t// out\n        /* \"#utility.yul\":7:146   */\n    tag_56:\n        /* \"#utility.yul\":53:58   */\n      0x00\n        /* \"#utility.yul\":91:97   */\n      dup2\n        /* \"#utility.yul\":78:98   */\n      calldataload\n        /* \"#utility.yul\":69:98   */\n      swap1\n      pop\n        /* \"#utility.yul\":107:140   */\n      tag_58\n        /* \"#utility.yul\":134:139   */\n      dup2\n        /* \"#utility.yul\":107:140   */\n      tag_59\n      jump\t// in\n    tag_58:\n        /* \"#utility.yul\":59:146   */\n      swap3\n      swap2\n      pop\n      pop\n      jump\t// out\n        /* \"#utility.yul\":152:414   */\n    tag_21:\n        /* \"#utility.yul\":211:217   */\n      0x00\n        /* \"#utility.yul\":260:262   */\n      0x20\n        /* \"#utility.yul\":248:257   */\n      dup3\n        /* \"#utility.yul\":239:246   */\n      dup5\n        /* \"#utility.yul\":235:258   */\n      sub\n        /* \"#utility.yul\":231:263   */\n      slt\n        /* \"#utility.yul\":228:230   */\n      iszero\n      tag_61\n      jumpi\n        /* \"#utility.yul\":276:277   */\n      0x00\n        /* \"#utility.yul\":273:274   */\n      dup1\n        /* \"#utility.yul\":266:278   */\n      revert\n        /* \"#utility.yul\":228:230   */\n    tag_61:\n        /* \"#utility.yul\":319:320   */\n      0x00\n        /* \"#utility.yul\":344:397   */\n      tag_62\n        /* \"#utility.yul\":389:396   */\n      dup5\n        /* \"#utility.yul\":380:386   */\n      dup3\n        /* \"#utility.yul\":369:378   */\n      dup6\n        /* \"#utility.yul\":365:387   */\n      add\n        /* \"#utility.yul\":344:397   */\n      tag_56\n      jump\t// in\n    tag_62:\n        /* \"#utility.yul\":334:397   */\n      swap2\n      pop\n        /* \"#utility.yul\":290:407   */\n      pop\n        /* \"#utility.yul\":218:414   */\n      swap3\n      swap2\n      pop\n      pop\n      jump\t// out\n        /* \"#utility.yul\":420:827   */\n    tag_17:\n        /* \"#utility.yul\":488:494   */\n      0x00\n        /* \"#utility.yul\":496:502   */\n      dup1\n        /* \"#utility.yul\":545:547   */\n      0x40\n        /* \"#utility.yul\":533:542   */\n      dup4\n        /* \"#utility.yul\":524:531   */\n      dup6\n        /* \"#utility.yul\":520:543   */\n      sub\n        /* \"#utility.yul\":516:548   */\n      slt\n        /* \"#utility.yul\":513:515   */\n      iszero\n      tag_64\n      jumpi\n        /* \"#utility.yul\":561:562   */\n      0x00\n        /* \"#utility.yul\":558:559   */\n      dup1\n        /* \"#utility.yul\":551:563   */\n      revert\n        /* \"#utility.yul\":513:515   */\n    tag_64:\n        /* \"#utility.yul\":604:605   */\n      0x00\n        /* \"#utility.yul\":629:682   */\n      tag_65\n        /* \"#utility.yul\":674:681   */\n      dup6\n        /* \"#utility.yul\":665:671   */\n      dup3\n        /* \"#utility.yul\":654:663   */\n      dup7\n        /* \"#utility.yul\":650:672   */\n      add\n        /* \"#utility.yul\":629:682   */\n      tag_56\n      jump\t// in\n    tag_65:\n        /* \"#utility.yul\":619:682   */\n      swap3\n      pop\n        /* \"#utility.yul\":575:692   */\n      pop\n        /* \"#utility.yul\":731:733   */\n      0x20\n        /* \"#utility.yul\":757:810   */\n      tag_66\n        /* \"#utility.yul\":802:809   */\n      dup6\n        /* \"#utility.yul\":793:799   */\n      dup3\n        /* \"#utility.yul\":782:791   */\n      dup7\n        /* \"#utility.yul\":778:800   */\n      add\n        /* \"#utility.yul\":757:810   */\n      tag_56\n      jump\t// in\n    tag_66:\n        /* \"#utility.yul\":747:810   */\n      swap2\n      pop\n        /* \"#utility.yul\":702:820   */\n      pop\n        /* \"#utility.yul\":503:827   */\n      swap3\n      pop\n      swap3\n      swap1\n      pop\n      jump\t// out\n        /* \"#utility.yul\":833:951   */\n    tag_67:\n        /* \"#utility.yul\":920:944   */\n      tag_69\n        /* \"#utility.yul\":938:943   */\n      dup2\n        /* \"#utility.yul\":920:944   */\n      tag_70\n      jump\t// in\n    tag_69:\n        /* \"#utility.yul\":915:918   */\n      dup3\n        /* \"#utility.yul\":908:945   */\n      mstore\n        /* \"#utility.yul\":898:951   */\n      pop\n      pop\n      jump\t// out\n        /* \"#utility.yul\":957:1323   */\n    tag_71:\n        /* \"#utility.yul\":1099:1102   */\n      0x00\n        /* \"#utility.yul\":1120:1187   */\n      tag_73\n        /* \"#utility.yul\":1184:1186   */\n      0x2a\n        /* \"#utility.yul\":1179:1182   */\n      dup4\n        /* \"#utility.yul\":1120:1187   */\n      tag_74\n      jump\t// in\n    tag_73:\n        /* \"#utility.yul\":1113:1187   */\n      swap2\n      pop\n        /* \"#utility.yul\":1196:1289   */\n      tag_75\n        /* \"#utility.yul\":1285:1288   */\n      dup3\n        /* \"#utility.yul\":1196:1289   */\n      tag_76\n      jump\t// in\n    tag_75:\n        /* \"#utility.yul\":1314:1316   */\n      0x40\n        /* \"#utility.yul\":1309:1312   */\n      dup3\n        /* \"#utility.yul\":1305:1317   */\n      add\n        /* \"#utility.yul\":1298:1317   */\n      swap1\n      pop\n        /* \"#utility.yul\":1103:1323   */\n      swap2\n      swap1\n      pop\n      jump\t// out\n        /* \"#utility.yul\":1329:1695   */\n    tag_77:\n        /* \"#utility.yul\":1471:1474   */\n      0x00\n        /* \"#utility.yul\":1492:1559   */\n      tag_79\n        /* \"#utility.yul\":1556:1558   */\n      0x32\n        /* \"#utility.yul\":1551:1554   */\n      dup4\n        /* \"#utility.yul\":1492:1559   */\n      tag_74\n      jump\t// in\n    tag_79:\n        /* \"#utility.yul\":1485:1559   */\n      swap2\n      pop\n        /* \"#utility.yul\":1568:1661   */\n      tag_80\n        /* \"#utility.yul\":1657:1660   */\n      dup3\n        /* \"#utility.yul\":1568:1661   */\n      tag_81\n      jump\t// in\n    tag_80:\n        /* \"#utility.yul\":1686:1688   */\n      0x40\n        /* \"#utility.yul\":1681:1684   */\n      dup3\n        /* \"#utility.yul\":1677:1689   */\n      add\n        /* \"#utility.yul\":1670:1689   */\n      swap1\n      pop\n        /* \"#utility.yul\":1475:1695   */\n      swap2\n      swap1\n      pop\n      jump\t// out\n        /* \"#utility.yul\":1701:1819   */\n    tag_82:\n        /* \"#utility.yul\":1788:1812   */\n      tag_84\n        /* \"#utility.yul\":1806:1811   */\n      dup2\n        /* \"#utility.yul\":1788:1812   */\n      tag_85\n      jump\t// in\n    tag_84:\n        /* \"#utility.yul\":1783:1786   */\n      dup3\n        /* \"#utility.yul\":1776:1813   */\n      mstore\n        /* \"#utility.yul\":1766:1819   */\n      pop\n      pop\n      jump\t// out\n        /* \"#utility.yul\":1825:2047   */\n    tag_39:\n        /* \"#utility.yul\":1918:1922   */\n      0x00\n        /* \"#utility.yul\":1956:1958   */\n      0x20\n        /* \"#utility.yul\":1945:1954   */\n      dup3\n        /* \"#utility.yul\":1941:1959   */\n      add\n        /* \"#utility.yul\":1933:1959   */\n      swap1\n      pop\n        /* \"#utility.yul\":1969:2040   */\n      tag_87\n        /* \"#utility.yul\":2037:2038   */\n      0x00\n        /* \"#utility.yul\":2026:2035   */\n      dup4\n        /* \"#utility.yul\":2022:2039   */\n      add\n        /* \"#utility.yul\":2013:2019   */\n      dup5\n        /* \"#utility.yul\":1969:2040   */\n      tag_67\n      jump\t// in\n    tag_87:\n        /* \"#utility.yul\":1923:2047   */\n      swap3\n      swap2\n      pop\n      pop\n      jump\t// out\n        /* \"#utility.yul\":2053:2472   */\n    tag_48:\n        /* \"#utility.yul\":2219:2223   */\n      0x00\n        /* \"#utility.yul\":2257:2259   */\n      0x20\n        /* \"#utility.yul\":2246:2255   */\n      dup3\n        /* \"#utility.yul\":2242:2260   */\n      add\n        /* \"#utility.yul\":2234:2260   */\n      swap1\n      pop\n        /* \"#utility.yul\":2306:2315   */\n      dup2\n        /* \"#utility.yul\":2300:2304   */\n      dup2\n        /* \"#utility.yul\":2296:2316   */\n      sub\n        /* \"#utility.yul\":2292:2293   */\n      0x00\n        /* \"#utility.yul\":2281:2290   */\n      dup4\n        /* \"#utility.yul\":2277:2294   */\n      add\n        /* \"#utility.yul\":2270:2317   */\n      mstore\n        /* \"#utility.yul\":2334:2465   */\n      tag_89\n        /* \"#utility.yul\":2460:2464   */\n      dup2\n        /* \"#utility.yul\":2334:2465   */\n      tag_71\n      jump\t// in\n    tag_89:\n        /* \"#utility.yul\":2326:2465   */\n      swap1\n      pop\n        /* \"#utility.yul\":2224:2472   */\n      swap2\n      swap1\n      pop\n      jump\t// out\n        /* \"#utility.yul\":2478:2897   */\n    tag_52:\n        /* \"#utility.yul\":2644:2648   */\n      0x00\n        /* \"#utility.yul\":2682:2684   */\n      0x20\n        /* \"#utility.yul\":2671:2680   */\n      dup3\n        /* \"#utility.yul\":2667:2685   */\n      add\n        /* \"#utility.yul\":2659:2685   */\n      swap1\n      pop\n        /* \"#utility.yul\":2731:2740   */\n      dup2\n        /* \"#utility.yul\":2725:2729   */\n      dup2\n        /* \"#utility.yul\":2721:2741   */\n      sub\n        /* \"#utility.yul\":2717:2718   */\n      0x00\n        /* \"#utility.yul\":2706:2715   */\n      dup4\n        /* \"#utility.yul\":2702:2719   */\n      add\n        /* \"#utility.yul\":2695:2742   */\n      mstore\n        /* \"#utility.yul\":2759:2890   */\n      tag_91\n        /* \"#utility.yul\":2885:2889   */\n      dup2\n        /* \"#utility.yul\":2759:2890   */\n      tag_77\n      jump\t// in\n    tag_91:\n        /* \"#utility.yul\":2751:2890   */\n      swap1\n      pop\n        /* \"#utility.yul\":2649:2897   */\n      swap2\n      swap1\n      pop\n      jump\t// out\n        /* \"#utility.yul\":2903:3456   */\n    tag_28:\n        /* \"#utility.yul\":3080:3084   */\n      0x00\n        /* \"#utility.yul\":3118:3121   */\n      0x80\n        /* \"#utility.yul\":3107:3116   */\n      dup3\n        /* \"#utility.yul\":3103:3122   */\n      add\n        /* \"#utility.yul\":3095:3122   */\n      swap1\n      pop\n        /* \"#utility.yul\":3132:3203   */\n      tag_93\n        /* \"#utility.yul\":3200:3201   */\n      0x00\n        /* \"#utility.yul\":3189:3198   */\n      dup4\n        /* \"#utility.yul\":3185:3202   */\n      add\n        /* \"#utility.yul\":3176:3182   */\n      dup8\n        /* \"#utility.yul\":3132:3203   */\n      tag_82\n      jump\t// in\n    tag_93:\n        /* \"#utility.yul\":3213:3285   */\n      tag_94\n        /* \"#utility.yul\":3281:3283   */\n      0x20\n        /* \"#utility.yul\":3270:3279   */\n      dup4\n        /* \"#utility.yul\":3266:3284   */\n      add\n        /* \"#utility.yul\":3257:3263   */\n      dup7\n        /* \"#utility.yul\":3213:3285   */\n      tag_82\n      jump\t// in\n    tag_94:\n        /* \"#utility.yul\":3295:3367   */\n      tag_95\n        /* \"#utility.yul\":3363:3365   */\n      0x40\n        /* \"#utility.yul\":3352:3361   */\n      dup4\n        /* \"#utility.yul\":3348:3366   */\n      add\n        /* \"#utility.yul\":3339:3345   */\n      dup6\n        /* \"#utility.yul\":3295:3367   */\n      tag_82\n      jump\t// in\n    tag_95:\n        /* \"#utility.yul\":3377:3449   */\n      tag_96\n        /* \"#utility.yul\":3445:3447   */\n      0x60\n        /* \"#utility.yul\":3434:3443   */\n      dup4\n        /* \"#utility.yul\":3430:3448   */\n      add\n        /* \"#utility.yul\":3421:3427   */\n      dup5\n        /* \"#utility.yul\":3377:3449   */\n      tag_82\n      jump\t// in\n    tag_96:\n        /* \"#utility.yul\":3085:3456   */\n      swap6\n      swap5\n      pop\n      pop\n      pop\n      pop\n      pop\n      jump\t// out\n        /* \"#utility.yul\":3462:3631   */\n    tag_74:\n        /* \"#utility.yul\":3546:3557   */\n      0x00\n        /* \"#utility.yul\":3580:3586   */\n      dup3\n        /* \"#utility.yul\":3575:3578   */\n      dup3\n        /* \"#utility.yul\":3568:3587   */\n      mstore\n        /* \"#utility.yul\":3620:3624   */\n      0x20\n        /* \"#utility.yul\":3615:3618   */\n      dup3\n        /* \"#utility.yul\":3611:3625   */\n      add\n        /* \"#utility.yul\":3596:3625   */\n      swap1\n      pop\n        /* \"#utility.yul\":3558:3631   */\n      swap3\n      swap2\n      pop\n      pop\n      jump\t// out\n        /* \"#utility.yul\":3637:3733   */\n    tag_70:\n        /* \"#utility.yul\":3674:3681   */\n      0x00\n        /* \"#utility.yul\":3703:3727   */\n      tag_99\n        /* \"#utility.yul\":3721:3726   */\n      dup3\n        /* \"#utility.yul\":3703:3727   */\n      tag_100\n      jump\t// in\n    tag_99:\n        /* \"#utility.yul\":3692:3727   */\n      swap1\n      pop\n        /* \"#utility.yul\":3682:3733   */\n      swap2\n      swap1\n      pop\n      jump\t// out\n        /* \"#utility.yul\":3739:3865   */\n    tag_100:\n        /* \"#utility.yul\":3776:3783   */\n      0x00\n        /* \"#utility.yul\":3816:3858   */\n      0xffffffffffffffffffffffffffffffffffffffff\n        /* \"#utility.yul\":3809:3814   */\n      dup3\n        /* \"#utility.yul\":3805:3859   */\n      and\n        /* \"#utility.yul\":3794:3859   */\n      swap1\n      pop\n        /* \"#utility.yul\":3784:3865   */\n      swap2\n      swap1\n      pop\n      jump\t// out\n        /* \"#utility.yul\":3871:3948   */\n    tag_85:\n        /* \"#utility.yul\":3908:3915   */\n      0x00\n        /* \"#utility.yul\":3937:3942   */\n      dup2\n        /* \"#utility.yul\":3926:3942   */\n      swap1\n      pop\n        /* \"#utility.yul\":3916:3948   */\n      swap2\n      swap1\n      pop\n      jump\t// out\n        /* \"#utility.yul\":3954:4183   */\n    tag_76:\n        /* \"#utility.yul\":4094:4128   */\n      0x52656a6563746564212053656e642065786163746c7920302e30312065746865\n        /* \"#utility.yul\":4090:4091   */\n      0x00\n        /* \"#utility.yul\":4082:4088   */\n      dup3\n        /* \"#utility.yul\":4078:4092   */\n      add\n        /* \"#utility.yul\":4071:4129   */\n      mstore\n        /* \"#utility.yul\":4163:4175   */\n      0x7220746f20766f74652100000000000000000000000000000000000000000000\n        /* \"#utility.yul\":4158:4160   */\n      0x20\n        /* \"#utility.yul\":4150:4156   */\n      dup3\n        /* \"#utility.yul\":4146:4161   */\n      add\n        /* \"#utility.yul\":4139:4176   */\n      mstore\n        /* \"#utility.yul\":4060:4183   */\n      pop\n      jump\t// out\n        /* \"#utility.yul\":4189:4426   */\n    tag_81:\n        /* \"#utility.yul\":4329:4363   */\n      0x52656a656374656421204f6e6c7920636f6e7472616374206f776e6572206361\n        /* \"#utility.yul\":4325:4326   */\n      0x00\n        /* \"#utility.yul\":4317:4323   */\n      dup3\n        /* \"#utility.yul\":4313:4327   */\n      add\n        /* \"#utility.yul\":4306:4364   */\n      mstore\n        /* \"#utility.yul\":4398:4418   */\n      0x6e20637265617465206e657720766f7465210000000000000000000000000000\n        /* \"#utility.yul\":4393:4395   */\n      0x20\n        /* \"#utility.yul\":4385:4391   */\n      dup3\n        /* \"#utility.yul\":4381:4396   */\n      add\n        /* \"#utility.yul\":4374:4419   */\n      mstore\n        /* \"#utility.yul\":4295:4426   */\n      pop\n      jump\t// out\n        /* \"#utility.yul\":4432:4554   */\n    tag_59:\n        /* \"#utility.yul\":4505:4529   */\n      tag_106\n        /* \"#utility.yul\":4523:4528   */\n      dup2\n        /* \"#utility.yul\":4505:4529   */\n      tag_85\n      jump\t// in\n    tag_106:\n        /* \"#utility.yul\":4498:4503   */\n      dup2\n        /* \"#utility.yul\":4495:4530   */\n      eq\n        /* \"#utility.yul\":4485:4487   */\n      tag_107\n      jumpi\n        /* \"#utility.yul\":4544:4545   */\n      0x00\n        /* \"#utility.yul\":4541:4542   */\n      dup1\n        /* \"#utility.yul\":4534:4546   */\n      revert\n        /* \"#utility.yul\":4485:4487   */\n    tag_107:\n        /* \"#utility.yul\":4475:4554   */\n      pop\n      jump\t// out\n\n    auxdata: 0xa26469706673582212204ab6f362ab8776628b6b30483ae11cd336e445fcfc2a3919a7920fb6b59104b564736f6c63430008040033\n}\n",
				"bytecode": {
					"linkReferences": {},
					"object": "608060405234801561001057600080fd5b50336000806101000a81548173ffffffffffffffffffffffffffffffffffffffff021916908373ffffffffffffffffffffffffffffffffffffffff160217905550610582806100606000396000f3fe60806040526004361061007b5760003560e01c8063694ff0f21161004e578063694ff0f21461011c5780636e48a035146101335780638da5cb5b1461014f578063cdd722531461017a5761007b565b80630dc9601514610080578063291e6777146100975780634d55f046146100c05780635df81330146100dc575b600080fd5b34801561008c57600080fd5b50610095610191565b005b3480156100a357600080fd5b506100be60048036038101906100b9919061030a565b610193565b005b6100da60048036038101906100d591906102e1565b610197565b005b3480156100e857600080fd5b5061010360048036038101906100fe91906102e1565b6101e3565b6040516101139493929190610405565b60405180910390f35b34801561012857600080fd5b50610131610213565b005b61014d600480360381019061014891906102e1565b6102a3565b005b34801561015b57600080fd5b506101646102a6565b60405161017191906103aa565b60405180910390f35b34801561018657600080fd5b5061018f6102ca565b005b565b5050565b662386f26fc1000034146101e0576040517f08c379a00000000000000000000000000000000000000000000000000000000081526004016101d7906103c5565b60405180910390fd5b50565b60026020528060005260406000206000915090508060000154908060010154908060020154908060030154905084565b60008054906101000a900473ffffffffffffffffffffffffffffffffffffffff1673ffffffffffffffffffffffffffffffffffffffff163373ffffffffffffffffffffffffffffffffffffffff16146102a1576040517f08c379a0000000000000000000000000000000000000000000000000000000008152600401610298906103e5565b60405180910390fd5b565b50565b60008054906101000a900473ffffffffffffffffffffffffffffffffffffffff1681565b565b6000813590506102db81610535565b92915050565b6000602082840312156102f357600080fd5b6000610301848285016102cc565b91505092915050565b6000806040838503121561031d57600080fd5b600061032b858286016102cc565b925050602061033c858286016102cc565b9150509250929050565b61034f8161045b565b82525050565b6000610362602a8361044a565b915061036d82610497565b604082019050919050565b600061038560328361044a565b9150610390826104e6565b604082019050919050565b6103a48161048d565b82525050565b60006020820190506103bf6000830184610346565b92915050565b600060208201905081810360008301526103de81610355565b9050919050565b600060208201905081810360008301526103fe81610378565b9050919050565b600060808201905061041a600083018761039b565b610427602083018661039b565b610434604083018561039b565b610441606083018461039b565b95945050505050565b600082825260208201905092915050565b60006104668261046d565b9050919050565b600073ffffffffffffffffffffffffffffffffffffffff82169050919050565b6000819050919050565b7f52656a6563746564212053656e642065786163746c7920302e3031206574686560008201527f7220746f20766f74652100000000000000000000000000000000000000000000602082015250565b7f52656a656374656421204f6e6c7920636f6e7472616374206f776e657220636160008201527f6e20637265617465206e657720766f7465210000000000000000000000000000602082015250565b61053e8161048d565b811461054957600080fd5b5056fea26469706673582212204ab6f362ab8776628b6b30483ae11cd336e445fcfc2a3919a7920fb6b59104b564736f6c63430008040033",
					"opcodes": "PUSH1 0x80 PUSH1 0x40 MSTORE CALLVALUE DUP1 ISZERO PUSH2 0x10 JUMPI PUSH1 0x0 DUP1 REVERT JUMPDEST POP CALLER PUSH1 0x0 DUP1 PUSH2 0x100 EXP DUP2 SLOAD DUP2 PUSH20 0xFFFFFFFFFFFFFFFFFFFFFFFFFFFFFFFFFFFFFFFF MUL NOT AND SWAP1 DUP4 PUSH20 0xFFFFFFFFFFFFFFFFFFFFFFFFFFFFFFFFFFFFFFFF AND MUL OR SWAP1 SSTORE POP PUSH2 0x582 DUP1 PUSH2 0x60 PUSH1 0x0 CODECOPY PUSH1 0x0 RETURN INVALID PUSH1 0x80 PUSH1 0x40 MSTORE PUSH1 0x4 CALLDATASIZE LT PUSH2 0x7B JUMPI PUSH1 0x0 CALLDATALOAD PUSH1 0xE0 SHR DUP1 PUSH4 0x694FF0F2 GT PUSH2 0x4E JUMPI DUP1 PUSH4 0x694FF0F2 EQ PUSH2 0x11C JUMPI DUP1 PUSH4 0x6E48A035 EQ PUSH2 0x133 JUMPI DUP1 PUSH4 0x8DA5CB5B EQ PUSH2 0x14F JUMPI DUP1 PUSH4 0xCDD72253 EQ PUSH2 0x17A JUMPI PUSH2 0x7B JUMP JUMPDEST DUP1 PUSH4 0xDC96015 EQ PUSH2 0x80 JUMPI DUP1 PUSH4 0x291E6777 EQ PUSH2 0x97 JUMPI DUP1 PUSH4 0x4D55F046 EQ PUSH2 0xC0 JUMPI DUP1 PUSH4 0x5DF81330 EQ PUSH2 0xDC JUMPI JUMPDEST PUSH1 0x0 DUP1 REVERT JUMPDEST CALLVALUE DUP1 ISZERO PUSH2 0x8C JUMPI PUSH1 0x0 DUP1 REVERT JUMPDEST POP PUSH2 0x95 PUSH2 0x191 JUMP JUMPDEST STOP JUMPDEST CALLVALUE DUP1 ISZERO PUSH2 0xA3 JUMPI PUSH1 0x0 DUP1 REVERT JUMPDEST POP PUSH2 0xBE PUSH1 0x4 DUP1 CALLDATASIZE SUB DUP2 ADD SWAP1 PUSH2 0xB9 SWAP2 SWAP1 PUSH2 0x30A JUMP JUMPDEST PUSH2 0x193 JUMP JUMPDEST STOP JUMPDEST PUSH2 0xDA PUSH1 0x4 DUP1 CALLDATASIZE SUB DUP2 ADD SWAP1 PUSH2 0xD5 SWAP2 SWAP1 PUSH2 0x2E1 JUMP JUMPDEST PUSH2 0x197 JUMP JUMPDEST STOP JUMPDEST CALLVALUE DUP1 ISZERO PUSH2 0xE8 JUMPI PUSH1 0x0 DUP1 REVERT JUMPDEST POP PUSH2 0x103 PUSH1 0x4 DUP1 CALLDATASIZE SUB DUP2 ADD SWAP1 PUSH2 0xFE SWAP2 SWAP1 PUSH2 0x2E1 JUMP JUMPDEST PUSH2 0x1E3 JUMP JUMPDEST PUSH1 0x40 MLOAD PUSH2 0x113 SWAP5 SWAP4 SWAP3 SWAP2 SWAP1 PUSH2 0x405 JUMP JUMPDEST PUSH1 0x40 MLOAD DUP1 SWAP2 SUB SWAP1 RETURN JUMPDEST CALLVALUE DUP1 ISZERO PUSH2 0x128 JUMPI PUSH1 0x0 DUP1 REVERT JUMPDEST POP PUSH2 0x131 PUSH2 0x213 JUMP JUMPDEST STOP JUMPDEST PUSH2 0x14D PUSH1 0x4 DUP1 CALLDATASIZE SUB DUP2 ADD SWAP1 PUSH2 0x148 SWAP2 SWAP1 PUSH2 0x2E1 JUMP JUMPDEST PUSH2 0x2A3 JUMP JUMPDEST STOP JUMPDEST CALLVALUE DUP1 ISZERO PUSH2 0x15B JUMPI PUSH1 0x0 DUP1 REVERT JUMPDEST POP PUSH2 0x164 PUSH2 0x2A6 JUMP JUMPDEST PUSH1 0x40 MLOAD PUSH2 0x171 SWAP2 SWAP1 PUSH2 0x3AA JUMP JUMPDEST PUSH1 0x40 MLOAD DUP1 SWAP2 SUB SWAP1 RETURN JUMPDEST CALLVALUE DUP1 ISZERO PUSH2 0x186 JUMPI PUSH1 0x0 DUP1 REVERT JUMPDEST POP PUSH2 0x18F PUSH2 0x2CA JUMP JUMPDEST STOP JUMPDEST JUMP JUMPDEST POP POP JUMP JUMPDEST PUSH7 0x2386F26FC10000 CALLVALUE EQ PUSH2 0x1E0 JUMPI PUSH1 0x40 MLOAD PUSH32 0x8C379A000000000000000000000000000000000000000000000000000000000 DUP2 MSTORE PUSH1 0x4 ADD PUSH2 0x1D7 SWAP1 PUSH2 0x3C5 JUMP JUMPDEST PUSH1 0x40 MLOAD DUP1 SWAP2 SUB SWAP1 REVERT JUMPDEST POP JUMP JUMPDEST PUSH1 0x2 PUSH1 0x20 MSTORE DUP1 PUSH1 0x0 MSTORE PUSH1 0x40 PUSH1 0x0 KECCAK256 PUSH1 0x0 SWAP2 POP SWAP1 POP DUP1 PUSH1 0x0 ADD SLOAD SWAP1 DUP1 PUSH1 0x1 ADD SLOAD SWAP1 DUP1 PUSH1 0x2 ADD SLOAD SWAP1 DUP1 PUSH1 0x3 ADD SLOAD SWAP1 POP DUP5 JUMP JUMPDEST PUSH1 0x0 DUP1 SLOAD SWAP1 PUSH2 0x100 EXP SWAP1 DIV PUSH20 0xFFFFFFFFFFFFFFFFFFFFFFFFFFFFFFFFFFFFFFFF AND PUSH20 0xFFFFFFFFFFFFFFFFFFFFFFFFFFFFFFFFFFFFFFFF AND CALLER PUSH20 0xFFFFFFFFFFFFFFFFFFFFFFFFFFFFFFFFFFFFFFFF AND EQ PUSH2 0x2A1 JUMPI PUSH1 0x40 MLOAD PUSH32 0x8C379A000000000000000000000000000000000000000000000000000000000 DUP2 MSTORE PUSH1 0x4 ADD PUSH2 0x298 SWAP1 PUSH2 0x3E5 JUMP JUMPDEST PUSH1 0x40 MLOAD DUP1 SWAP2 SUB SWAP1 REVERT JUMPDEST JUMP JUMPDEST POP JUMP JUMPDEST PUSH1 0x0 DUP1 SLOAD SWAP1 PUSH2 0x100 EXP SWAP1 DIV PUSH20 0xFFFFFFFFFFFFFFFFFFFFFFFFFFFFFFFFFFFFFFFF AND DUP2 JUMP JUMPDEST JUMP JUMPDEST PUSH1 0x0 DUP2 CALLDATALOAD SWAP1 POP PUSH2 0x2DB DUP2 PUSH2 0x535 JUMP JUMPDEST SWAP3 SWAP2 POP POP JUMP JUMPDEST PUSH1 0x0 PUSH1 0x20 DUP3 DUP5 SUB SLT ISZERO PUSH2 0x2F3 JUMPI PUSH1 0x0 DUP1 REVERT JUMPDEST PUSH1 0x0 PUSH2 0x301 DUP5 DUP3 DUP6 ADD PUSH2 0x2CC JUMP JUMPDEST SWAP2 POP POP SWAP3 SWAP2 POP POP JUMP JUMPDEST PUSH1 0x0 DUP1 PUSH1 0x40 DUP4 DUP6 SUB SLT ISZERO PUSH2 0x31D JUMPI PUSH1 0x0 DUP1 REVERT JUMPDEST PUSH1 0x0 PUSH2 0x32B DUP6 DUP3 DUP7 ADD PUSH2 0x2CC JUMP JUMPDEST SWAP3 POP POP PUSH1 0x20 PUSH2 0x33C DUP6 DUP3 DUP7 ADD PUSH2 0x2CC JUMP JUMPDEST SWAP2 POP POP SWAP3 POP SWAP3 SWAP1 POP JUMP JUMPDEST PUSH2 0x34F DUP2 PUSH2 0x45B JUMP JUMPDEST DUP3 MSTORE POP POP JUMP JUMPDEST PUSH1 0x0 PUSH2 0x362 PUSH1 0x2A DUP4 PUSH2 0x44A JUMP JUMPDEST SWAP2 POP PUSH2 0x36D DUP3 PUSH2 0x497 JUMP JUMPDEST PUSH1 0x40 DUP3 ADD SWAP1 POP SWAP2 SWAP1 POP JUMP JUMPDEST PUSH1 0x0 PUSH2 0x385 PUSH1 0x32 DUP4 PUSH2 0x44A JUMP JUMPDEST SWAP2 POP PUSH2 0x390 DUP3 PUSH2 0x4E6 JUMP JUMPDEST PUSH1 0x40 DUP3 ADD SWAP1 POP SWAP2 SWAP1 POP JUMP JUMPDEST PUSH2 0x3A4 DUP2 PUSH2 0x48D JUMP JUMPDEST DUP3 MSTORE POP POP JUMP JUMPDEST PUSH1 0x0 PUSH1 0x20 DUP3 ADD SWAP1 POP PUSH2 0x3BF PUSH1 0x0 DUP4 ADD DUP5 PUSH2 0x346 JUMP JUMPDEST SWAP3 SWAP2 POP POP JUMP JUMPDEST PUSH1 0x0 PUSH1 0x20 DUP3 ADD SWAP1 POP DUP2 DUP2 SUB PUSH1 0x0 DUP4 ADD MSTORE PUSH2 0x3DE DUP2 PUSH2 0x355 JUMP JUMPDEST SWAP1 POP SWAP2 SWAP1 POP JUMP JUMPDEST PUSH1 0x0 PUSH1 0x20 DUP3 ADD SWAP1 POP DUP2 DUP2 SUB PUSH1 0x0 DUP4 ADD MSTORE PUSH2 0x3FE DUP2 PUSH2 0x378 JUMP JUMPDEST SWAP1 POP SWAP2 SWAP1 POP JUMP JUMPDEST PUSH1 0x0 PUSH1 0x80 DUP3 ADD SWAP1 POP PUSH2 0x41A PUSH1 0x0 DUP4 ADD DUP8 PUSH2 0x39B JUMP JUMPDEST PUSH2 0x427 PUSH1 0x20 DUP4 ADD DUP7 PUSH2 0x39B JUMP JUMPDEST PUSH2 0x434 PUSH1 0x40 DUP4 ADD DUP6 PUSH2 0x39B JUMP JUMPDEST PUSH2 0x441 PUSH1 0x60 DUP4 ADD DUP5 PUSH2 0x39B JUMP JUMPDEST SWAP6 SWAP5 POP POP POP POP POP JUMP JUMPDEST PUSH1 0x0 DUP3 DUP3 MSTORE PUSH1 0x20 DUP3 ADD SWAP1 POP SWAP3 SWAP2 POP POP JUMP JUMPDEST PUSH1 0x0 PUSH2 0x466 DUP3 PUSH2 0x46D JUMP JUMPDEST SWAP1 POP SWAP2 SWAP1 POP JUMP JUMPDEST PUSH1 0x0 PUSH20 0xFFFFFFFFFFFFFFFFFFFFFFFFFFFFFFFFFFFFFFFF DUP3 AND SWAP1 POP SWAP2 SWAP1 POP JUMP JUMPDEST PUSH1 0x0 DUP2 SWAP1 POP SWAP2 SWAP1 POP JUMP JUMPDEST PUSH32 0x52656A6563746564212053656E642065786163746C7920302E30312065746865 PUSH1 0x0 DUP3 ADD MSTORE PUSH32 0x7220746F20766F74652100000000000000000000000000000000000000000000 PUSH1 0x20 DUP3 ADD MSTORE POP JUMP JUMPDEST PUSH32 0x52656A656374656421204F6E6C7920636F6E7472616374206F776E6572206361 PUSH1 0x0 DUP3 ADD MSTORE PUSH32 0x6E20637265617465206E657720766F7465210000000000000000000000000000 PUSH1 0x20 DUP3 ADD MSTORE POP JUMP JUMPDEST PUSH2 0x53E DUP2 PUSH2 0x48D JUMP JUMPDEST DUP2 EQ PUSH2 0x549 JUMPI PUSH1 0x0 DUP1 REVERT JUMPDEST POP JUMP INVALID LOG2 PUSH5 0x6970667358 0x22 SLT KECCAK256 0x4A 0xB6 RETURN PUSH3 0xAB8776 PUSH3 0x8B6B30 0x48 GASPRICE 0xE1 SHR 0xD3 CALLDATASIZE 0xE4 GASLIMIT 0xFC 0xFC 0x2A CODECOPY NOT 0xA7 SWAP3 0xF 0xB6 0xB5 SWAP2 DIV 0xB5 PUSH5 0x736F6C6343 STOP ADDMOD DIV STOP CALLER "
				},
				"gasEstimates": {
					"creation": {
						"codeDepositCost": "282000",
						"executionCost": "21190",
						"totalCost": "303190"
					},
					"external": {
						"closeVote(uint256)": "404",
						"createVote()": "1318",
						"getVoters()": "210",
						"getVotes()": "145",
						"owner()": "1255",
						"sendDepo(uint256)": "754",
						"sendVote(uint256,uint256)": "infinite",
						"votes(uint256)": "infinite"
					}
				},
				"methodIdentifiers": {
					"closeVote(uint256)": "6e48a035",
					"createVote()": "694ff0f2",
					"getVoters()": "cdd72253",
					"getVotes()": "0dc96015",
					"owner()": "8da5cb5b",
					"sendDepo(uint256)": "4d55f046",
					"sendVote(uint256,uint256)": "291e6777",
					"votes(uint256)": "5df81330"
				}
			},
			"storageLayout": {
				"storage": [
					{
						"astId": 3,
						"contract": "contracts/ballot.sol:Ballot",
						"label": "owner",
						"offset": 0,
						"slot": "0",
						"type": "t_address"
					},
					{
						"astId": 28,
						"contract": "contracts/ballot.sol:Ballot",
						"label": "numVotes",
						"offset": 0,
						"slot": "1",
						"type": "t_uint256"
					},
					{
						"astId": 33,
						"contract": "contracts/ballot.sol:Ballot",
						"label": "votes",
						"offset": 0,
						"slot": "2",
						"type": "t_mapping(t_uint256,t_struct(Vote)26_storage)"
					}
				],
				"types": {
					"t_address": {
						"encoding": "inplace",
						"label": "address",
						"numberOfBytes": "20"
					},
					"t_bool": {
						"encoding": "inplace",
						"label": "bool",
						"numberOfBytes": "1"
					},
					"t_mapping(t_uint256,t_struct(Vote)26_storage)": {
						"encoding": "mapping",
						"key": "t_uint256",
						"label": "mapping(uint256 => struct Ballot.Vote)",
						"numberOfBytes": "32",
						"value": "t_struct(Vote)26_storage"
					},
					"t_mapping(t_uint256,t_struct(Voter)12_storage)": {
						"encoding": "mapping",
						"key": "t_uint256",
						"label": "mapping(uint256 => struct Ballot.Voter)",
						"numberOfBytes": "32",
						"value": "t_struct(Voter)12_storage"
					},
					"t_struct(Vote)26_storage": {
						"encoding": "inplace",
						"label": "struct Ballot.Vote",
						"members": [
							{
								"astId": 14,
								"contract": "contracts/ballot.sol:Ballot",
								"label": "id",
								"offset": 0,
								"slot": "0",
								"type": "t_uint256"
							},
							{
								"astId": 16,
								"contract": "contracts/ballot.sol:Ballot",
								"label": "startTime",
								"offset": 0,
								"slot": "1",
								"type": "t_uint256"
							},
							{
								"astId": 18,
								"contract": "contracts/ballot.sol:Ballot",
								"label": "balance",
								"offset": 0,
								"slot": "2",
								"type": "t_uint256"
							},
							{
								"astId": 20,
								"contract": "contracts/ballot.sol:Ballot",
								"label": "numVoters",
								"offset": 0,
								"slot": "3",
								"type": "t_uint256"
							},
							{
								"astId": 25,
								"contract": "contracts/ballot.sol:Ballot",
								"label": "voters",
								"offset": 0,
								"slot": "4",
								"type": "t_mapping(t_uint256,t_struct(Voter)12_storage)"
							}
						],
						"numberOfBytes": "160"
					},
					"t_struct(Voter)12_storage": {
						"encoding": "inplace",
						"label": "struct Ballot.Voter",
						"members": [
							{
								"astId": 5,
								"contract": "contracts/ballot.sol:Ballot",
								"label": "id",
								"offset": 0,
								"slot": "0",
								"type": "t_uint256"
							},
							{
								"astId": 7,
								"contract": "contracts/ballot.sol:Ballot",
								"label": "addr",
								"offset": 0,
								"slot": "1",
								"type": "t_address"
							},
							{
								"astId": 9,
								"contract": "contracts/ballot.sol:Ballot",
								"label": "voted",
								"offset": 20,
								"slot": "1",
								"type": "t_bool"
							},
							{
								"astId": 11,
								"contract": "contracts/ballot.sol:Ballot",
								"label": "voteCount",
								"offset": 0,
								"slot": "2",
								"type": "t_uint256"
							}
						],
						"numberOfBytes": "96"
					},
					"t_uint256": {
						"encoding": "inplace",
						"label": "uint256",
						"numberOfBytes": "32"
					}
				}
			},
			"userdoc": {
				"kind": "user",
				"methods": {},
				"version": 1
			}
		}
	}
}