{
	"contracts/ballot.sol": {
		"Ballot": {
			"abi": [
				{
					"inputs": [],
					"stateMutability": "nonpayable",
					"type": "constructor"
				},
				{
					"inputs": [
						{
							"internalType": "uint256",
							"name": "ID",
							"type": "uint256"
						}
					],
					"name": "closeVote",
					"outputs": [],
					"stateMutability": "payable",
					"type": "function"
				},
				{
					"inputs": [],
					"name": "createVote",
					"outputs": [
						{
							"internalType": "uint256",
							"name": "",
							"type": "uint256"
						}
					],
					"stateMutability": "nonpayable",
					"type": "function"
				},
				{
					"inputs": [],
					"name": "getVoters",
					"outputs": [],
					"stateMutability": "view",
					"type": "function"
				},
				{
					"inputs": [],
					"name": "getVotes",
					"outputs": [],
					"stateMutability": "view",
					"type": "function"
				},
				{
					"inputs": [],
					"name": "owner",
					"outputs": [
						{
							"internalType": "address",
							"name": "",
							"type": "address"
						}
					],
					"stateMutability": "view",
					"type": "function"
				},
				{
					"inputs": [
						{
							"internalType": "uint256",
							"name": "ID",
							"type": "uint256"
						}
					],
					"name": "sendDepo",
					"outputs": [],
					"stateMutability": "payable",
					"type": "function"
				},
				{
					"inputs": [
						{
							"internalType": "uint256",
							"name": "ID1",
							"type": "uint256"
						},
						{
							"internalType": "uint256",
							"name": "ID2",
							"type": "uint256"
						}
					],
					"name": "sendVote",
					"outputs": [],
					"stateMutability": "nonpayable",
					"type": "function"
				},
				{
					"inputs": [
						{
							"internalType": "uint256",
							"name": "",
							"type": "uint256"
						}
					],
					"name": "votes",
					"outputs": [
						{
							"internalType": "uint256",
							"name": "id",
							"type": "uint256"
						},
						{
							"internalType": "uint256",
							"name": "startTime",
							"type": "uint256"
						},
						{
							"internalType": "uint256",
							"name": "balance",
							"type": "uint256"
						},
						{
							"internalType": "uint256",
							"name": "numVoters",
							"type": "uint256"
						}
					],
					"stateMutability": "view",
					"type": "function"
				}
			],
			"devdoc": {
				"kind": "dev",
				"methods": {},
				"version": 1
			},
			"evm": {
				"assembly": "    /* \"contracts/ballot.sol\":61:1650  contract Ballot {\r... */\n  mstore(0x40, 0x80)\n    /* \"contracts/ballot.sol\":730:782  constructor () {\r... */\n  callvalue\n  dup1\n  iszero\n  tag_1\n  jumpi\n  0x00\n  dup1\n  revert\ntag_1:\n  pop\n    /* \"contracts/ballot.sol\":764:774  msg.sender */\n  caller\n    /* \"contracts/ballot.sol\":756:761  owner */\n  0x00\n  dup1\n    /* \"contracts/ballot.sol\":756:774  owner = msg.sender */\n  0x0100\n  exp\n  dup2\n  sload\n  dup2\n  0xffffffffffffffffffffffffffffffffffffffff\n  mul\n  not\n  and\n  swap1\n  dup4\n  0xffffffffffffffffffffffffffffffffffffffff\n  and\n  mul\n  or\n  swap1\n  sstore\n  pop\n    /* \"contracts/ballot.sol\":61:1650  contract Ballot {\r... */\n  dataSize(sub_0)\n  dup1\n  dataOffset(sub_0)\n  0x00\n  codecopy\n  0x00\n  return\nstop\n\nsub_0: assembly {\n        /* \"contracts/ballot.sol\":61:1650  contract Ballot {\r... */\n      mstore(0x40, 0x80)\n      jumpi(tag_1, lt(calldatasize, 0x04))\n      shr(0xe0, calldataload(0x00))\n      dup1\n      0x694ff0f2\n      gt\n      tag_10\n      jumpi\n      dup1\n      0x694ff0f2\n      eq\n      tag_6\n      jumpi\n      dup1\n      0x6e48a035\n      eq\n      tag_7\n      jumpi\n      dup1\n      0x8da5cb5b\n      eq\n      tag_8\n      jumpi\n      dup1\n      0xcdd72253\n      eq\n      tag_9\n      jumpi\n      jump(tag_1)\n    tag_10:\n      dup1\n      0x0dc96015\n      eq\n      tag_2\n      jumpi\n      dup1\n      0x291e6777\n      eq\n      tag_3\n      jumpi\n      dup1\n      0x4d55f046\n      eq\n      tag_4\n      jumpi\n      dup1\n      0x5df81330\n      eq\n      tag_5\n      jumpi\n    tag_1:\n      0x00\n      dup1\n      revert\n        /* \"contracts/ballot.sol\":1328:1371  function getVotes () public view {\r... */\n    tag_2:\n      callvalue\n      dup1\n      iszero\n      tag_11\n      jumpi\n      0x00\n      dup1\n      revert\n    tag_11:\n      pop\n      tag_12\n      tag_13\n      jump\t// in\n    tag_12:\n      stop\n        /* \"contracts/ballot.sol\":1508:1564  function sendVote (uint ID1, uint ID2) public {\r... */\n    tag_3:\n      callvalue\n      dup1\n      iszero\n      tag_14\n      jumpi\n      0x00\n      dup1\n      revert\n    tag_14:\n      pop\n      tag_15\n      0x04\n      dup1\n      calldatasize\n      sub\n      dup2\n      add\n      swap1\n      tag_16\n      swap2\n      swap1\n      tag_17\n      jump\t// in\n    tag_16:\n      tag_18\n      jump\t// in\n    tag_15:\n      stop\n        /* \"contracts/ballot.sol\":1150:1298  function sendDepo (uint ID) public payable {\r... */\n    tag_4:\n      tag_19\n      0x04\n      dup1\n      calldatasize\n      sub\n      dup2\n      add\n      swap1\n      tag_20\n      swap2\n      swap1\n      tag_21\n      jump\t// in\n    tag_20:\n      tag_22\n      jump\t// in\n    tag_19:\n      stop\n        /* \"contracts/ballot.sol\":652:687  mapping (uint => Vote) public votes */\n    tag_5:\n      callvalue\n      dup1\n      iszero\n      tag_23\n      jumpi\n      0x00\n      dup1\n      revert\n    tag_23:\n      pop\n      tag_24\n      0x04\n      dup1\n      calldatasize\n      sub\n      dup2\n      add\n      swap1\n      tag_25\n      swap2\n      swap1\n      tag_21\n      jump\t// in\n    tag_25:\n      tag_26\n      jump\t// in\n    tag_24:\n      mload(0x40)\n      tag_27\n      swap5\n      swap4\n      swap3\n      swap2\n      swap1\n      tag_28\n      jump\t// in\n    tag_27:\n      mload(0x40)\n      dup1\n      swap2\n      sub\n      swap1\n      return\n        /* \"contracts/ballot.sol\":810:1108  function createVote () public returns (uint) {\r... */\n    tag_6:\n      callvalue\n      dup1\n      iszero\n      tag_29\n      jumpi\n      0x00\n      dup1\n      revert\n    tag_29:\n      pop\n      tag_30\n      tag_31\n      jump\t// in\n    tag_30:\n      mload(0x40)\n      tag_32\n      swap2\n      swap1\n      tag_33\n      jump\t// in\n    tag_32:\n      mload(0x40)\n      dup1\n      swap2\n      sub\n      swap1\n      return\n        /* \"contracts/ballot.sol\":1591:1645  function closeVote (uint ID) public payable {\r... */\n    tag_7:\n      tag_34\n      0x04\n      dup1\n      calldatasize\n      sub\n      dup2\n      add\n      swap1\n      tag_35\n      swap2\n      swap1\n      tag_21\n      jump\t// in\n    tag_35:\n      tag_36\n      jump\t// in\n    tag_34:\n      stop\n        /* \"contracts/ballot.sol\":86:106  address public owner */\n    tag_8:\n      callvalue\n      dup1\n      iszero\n      tag_37\n      jumpi\n      0x00\n      dup1\n      revert\n    tag_37:\n      pop\n      tag_38\n      tag_39\n      jump\t// in\n    tag_38:\n      mload(0x40)\n      tag_40\n      swap2\n      swap1\n      tag_41\n      jump\t// in\n    tag_40:\n      mload(0x40)\n      dup1\n      swap2\n      sub\n      swap1\n      return\n        /* \"contracts/ballot.sol\":1402:1446  function getVoters () public view {\r... */\n    tag_9:\n      callvalue\n      dup1\n      iszero\n      tag_42\n      jumpi\n      0x00\n      dup1\n      revert\n    tag_42:\n      pop\n      tag_43\n      tag_44\n      jump\t// in\n    tag_43:\n      stop\n        /* \"contracts/ballot.sol\":1328:1371  function getVotes () public view {\r... */\n    tag_13:\n      jump\t// out\n        /* \"contracts/ballot.sol\":1508:1564  function sendVote (uint ID1, uint ID2) public {\r... */\n    tag_18:\n      pop\n      pop\n      jump\t// out\n        /* \"contracts/ballot.sol\":1150:1298  function sendDepo (uint ID) public payable {\r... */\n    tag_22:\n        /* \"contracts/ballot.sol\":1226:1243  10000000000000000 */\n      0x2386f26fc10000\n        /* \"contracts/ballot.sol\":1213:1222  msg.value */\n      callvalue\n        /* \"contracts/ballot.sol\":1213:1243  msg.value == 10000000000000000 */\n      eq\n        /* \"contracts/ballot.sol\":1204:1290  require (msg.value == 10000000000000000, \"Rejected! Send exactly 0.01 ether to vote!\") */\n      tag_48\n      jumpi\n      mload(0x40)\n      0x08c379a000000000000000000000000000000000000000000000000000000000\n      dup2\n      mstore\n      0x04\n      add\n      tag_49\n      swap1\n      tag_50\n      jump\t// in\n    tag_49:\n      mload(0x40)\n      dup1\n      swap2\n      sub\n      swap1\n      revert\n    tag_48:\n        /* \"contracts/ballot.sol\":1150:1298  function sendDepo (uint ID) public payable {\r... */\n      pop\n      jump\t// out\n        /* \"contracts/ballot.sol\":652:687  mapping (uint => Vote) public votes */\n    tag_26:\n      mstore(0x20, 0x02)\n      dup1\n      0x00\n      mstore\n      keccak256(0x00, 0x40)\n      0x00\n      swap2\n      pop\n      swap1\n      pop\n      dup1\n      0x00\n      add\n      sload\n      swap1\n      dup1\n      0x01\n      add\n      sload\n      swap1\n      dup1\n      0x02\n      add\n      sload\n      swap1\n      dup1\n      0x03\n      add\n      sload\n      swap1\n      pop\n      dup5\n      jump\t// out\n        /* \"contracts/ballot.sol\":810:1108  function createVote () public returns (uint) {\r... */\n    tag_31:\n        /* \"contracts/ballot.sol\":849:853  uint */\n      0x00\n        /* \"contracts/ballot.sol\":889:894  owner */\n      dup1\n      0x00\n      swap1\n      sload\n      swap1\n      0x0100\n      exp\n      swap1\n      div\n      0xffffffffffffffffffffffffffffffffffffffff\n      and\n        /* \"contracts/ballot.sol\":875:894  msg.sender == owner */\n      0xffffffffffffffffffffffffffffffffffffffff\n      and\n        /* \"contracts/ballot.sol\":875:885  msg.sender */\n      caller\n        /* \"contracts/ballot.sol\":875:894  msg.sender == owner */\n      0xffffffffffffffffffffffffffffffffffffffff\n      and\n      eq\n        /* \"contracts/ballot.sol\":866:949  require (msg.sender == owner, \"Rejected! Only contract owner can create new vote!\") */\n      tag_52\n      jumpi\n      mload(0x40)\n      0x08c379a000000000000000000000000000000000000000000000000000000000\n      dup2\n      mstore\n      0x04\n      add\n      tag_53\n      swap1\n      tag_54\n      jump\t// in\n    tag_53:\n      mload(0x40)\n      dup1\n      swap2\n      sub\n      swap1\n      revert\n    tag_52:\n        /* \"contracts/ballot.sol\":960:974  Vote storage v */\n      0x00\n        /* \"contracts/ballot.sol\":977:982  votes */\n      0x02\n        /* \"contracts/ballot.sol\":977:992  votes[numVotes] */\n      0x00\n        /* \"contracts/ballot.sol\":983:991  numVotes */\n      sload(0x01)\n        /* \"contracts/ballot.sol\":977:992  votes[numVotes] */\n      dup2\n      mstore\n      0x20\n      add\n      swap1\n      dup2\n      mstore\n      0x20\n      add\n      0x00\n      keccak256\n        /* \"contracts/ballot.sol\":960:992  Vote storage v = votes[numVotes] */\n      swap1\n      pop\n        /* \"contracts/ballot.sol\":1034:1049  block.timestamp */\n      timestamp\n        /* \"contracts/ballot.sol\":1020:1021  v */\n      dup2\n        /* \"contracts/ballot.sol\":1020:1031  v.startTime */\n      0x01\n      add\n        /* \"contracts/ballot.sol\":1020:1049  v.startTime = block.timestamp */\n      dup2\n      swap1\n      sstore\n        /* \"contracts/ballot.sol\":1003:1004  v */\n      dup2\n        /* \"contracts/ballot.sol\":1003:1007  v.id */\n      0x00\n      add\n        /* \"contracts/ballot.sol\":1003:1049  v.id = \r... */\n      dup2\n      swap1\n      sstore\n      pop\n        /* \"contracts/ballot.sol\":1060:1068  numVotes */\n      0x01\n      0x00\n        /* \"contracts/ballot.sol\":1060:1070  numVotes++ */\n      dup2\n      sload\n      dup1\n      swap3\n      swap2\n      swap1\n      tag_55\n      swap1\n      tag_56\n      jump\t// in\n    tag_55:\n      swap2\n      swap1\n      pop\n      sstore\n      pop\n        /* \"contracts/ballot.sol\":1098:1099  1 */\n      0x01\n        /* \"contracts/ballot.sol\":1089:1097  numVotes */\n      dup1\n      sload\n        /* \"contracts/ballot.sol\":1089:1099  numVotes-1 */\n      tag_57\n      swap2\n      swap1\n      tag_58\n      jump\t// in\n    tag_57:\n        /* \"contracts/ballot.sol\":1081:1100  return (numVotes-1) */\n      swap2\n      pop\n      pop\n        /* \"contracts/ballot.sol\":810:1108  function createVote () public returns (uint) {\r... */\n      swap1\n      jump\t// out\n        /* \"contracts/ballot.sol\":1591:1645  function closeVote (uint ID) public payable {\r... */\n    tag_36:\n      pop\n      jump\t// out\n        /* \"contracts/ballot.sol\":86:106  address public owner */\n    tag_39:\n      0x00\n      dup1\n      sload\n      swap1\n      0x0100\n      exp\n      swap1\n      div\n      0xffffffffffffffffffffffffffffffffffffffff\n      and\n      dup2\n      jump\t// out\n        /* \"contracts/ballot.sol\":1402:1446  function getVoters () public view {\r... */\n    tag_44:\n      jump\t// out\n        /* \"#utility.yul\":7:146   */\n    tag_62:\n        /* \"#utility.yul\":53:58   */\n      0x00\n        /* \"#utility.yul\":91:97   */\n      dup2\n        /* \"#utility.yul\":78:98   */\n      calldataload\n        /* \"#utility.yul\":69:98   */\n      swap1\n      pop\n        /* \"#utility.yul\":107:140   */\n      tag_64\n        /* \"#utility.yul\":134:139   */\n      dup2\n        /* \"#utility.yul\":107:140   */\n      tag_65\n      jump\t// in\n    tag_64:\n        /* \"#utility.yul\":59:146   */\n      swap3\n      swap2\n      pop\n      pop\n      jump\t// out\n        /* \"#utility.yul\":152:414   */\n    tag_21:\n        /* \"#utility.yul\":211:217   */\n      0x00\n        /* \"#utility.yul\":260:262   */\n      0x20\n        /* \"#utility.yul\":248:257   */\n      dup3\n        /* \"#utility.yul\":239:246   */\n      dup5\n        /* \"#utility.yul\":235:258   */\n      sub\n        /* \"#utility.yul\":231:263   */\n      slt\n        /* \"#utility.yul\":228:230   */\n      iszero\n      tag_67\n      jumpi\n        /* \"#utility.yul\":276:277   */\n      0x00\n        /* \"#utility.yul\":273:274   */\n      dup1\n        /* \"#utility.yul\":266:278   */\n      revert\n        /* \"#utility.yul\":228:230   */\n    tag_67:\n        /* \"#utility.yul\":319:320   */\n      0x00\n        /* \"#utility.yul\":344:397   */\n      tag_68\n        /* \"#utility.yul\":389:396   */\n      dup5\n        /* \"#utility.yul\":380:386   */\n      dup3\n        /* \"#utility.yul\":369:378   */\n      dup6\n        /* \"#utility.yul\":365:387   */\n      add\n        /* \"#utility.yul\":344:397   */\n      tag_62\n      jump\t// in\n    tag_68:\n        /* \"#utility.yul\":334:397   */\n      swap2\n      pop\n        /* \"#utility.yul\":290:407   */\n      pop\n        /* \"#utility.yul\":218:414   */\n      swap3\n      swap2\n      pop\n      pop\n      jump\t// out\n        /* \"#utility.yul\":420:827   */\n    tag_17:\n        /* \"#utility.yul\":488:494   */\n      0x00\n        /* \"#utility.yul\":496:502   */\n      dup1\n        /* \"#utility.yul\":545:547   */\n      0x40\n        /* \"#utility.yul\":533:542   */\n      dup4\n        /* \"#utility.yul\":524:531   */\n      dup6\n        /* \"#utility.yul\":520:543   */\n      sub\n        /* \"#utility.yul\":516:548   */\n      slt\n        /* \"#utility.yul\":513:515   */\n      iszero\n      tag_70\n      jumpi\n        /* \"#utility.yul\":561:562   */\n      0x00\n        /* \"#utility.yul\":558:559   */\n      dup1\n        /* \"#utility.yul\":551:563   */\n      revert\n        /* \"#utility.yul\":513:515   */\n    tag_70:\n        /* \"#utility.yul\":604:605   */\n      0x00\n        /* \"#utility.yul\":629:682   */\n      tag_71\n        /* \"#utility.yul\":674:681   */\n      dup6\n        /* \"#utility.yul\":665:671   */\n      dup3\n        /* \"#utility.yul\":654:663   */\n      dup7\n        /* \"#utility.yul\":650:672   */\n      add\n        /* \"#utility.yul\":629:682   */\n      tag_62\n      jump\t// in\n    tag_71:\n        /* \"#utility.yul\":619:682   */\n      swap3\n      pop\n        /* \"#utility.yul\":575:692   */\n      pop\n        /* \"#utility.yul\":731:733   */\n      0x20\n        /* \"#utility.yul\":757:810   */\n      tag_72\n        /* \"#utility.yul\":802:809   */\n      dup6\n        /* \"#utility.yul\":793:799   */\n      dup3\n        /* \"#utility.yul\":782:791   */\n      dup7\n        /* \"#utility.yul\":778:800   */\n      add\n        /* \"#utility.yul\":757:810   */\n      tag_62\n      jump\t// in\n    tag_72:\n        /* \"#utility.yul\":747:810   */\n      swap2\n      pop\n        /* \"#utility.yul\":702:820   */\n      pop\n        /* \"#utility.yul\":503:827   */\n      swap3\n      pop\n      swap3\n      swap1\n      pop\n      jump\t// out\n        /* \"#utility.yul\":833:951   */\n    tag_73:\n        /* \"#utility.yul\":920:944   */\n      tag_75\n        /* \"#utility.yul\":938:943   */\n      dup2\n        /* \"#utility.yul\":920:944   */\n      tag_76\n      jump\t// in\n    tag_75:\n        /* \"#utility.yul\":915:918   */\n      dup3\n        /* \"#utility.yul\":908:945   */\n      mstore\n        /* \"#utility.yul\":898:951   */\n      pop\n      pop\n      jump\t// out\n        /* \"#utility.yul\":957:1323   */\n    tag_77:\n        /* \"#utility.yul\":1099:1102   */\n      0x00\n        /* \"#utility.yul\":1120:1187   */\n      tag_79\n        /* \"#utility.yul\":1184:1186   */\n      0x2a\n        /* \"#utility.yul\":1179:1182   */\n      dup4\n        /* \"#utility.yul\":1120:1187   */\n      tag_80\n      jump\t// in\n    tag_79:\n        /* \"#utility.yul\":1113:1187   */\n      swap2\n      pop\n        /* \"#utility.yul\":1196:1289   */\n      tag_81\n        /* \"#utility.yul\":1285:1288   */\n      dup3\n        /* \"#utility.yul\":1196:1289   */\n      tag_82\n      jump\t// in\n    tag_81:\n        /* \"#utility.yul\":1314:1316   */\n      0x40\n        /* \"#utility.yul\":1309:1312   */\n      dup3\n        /* \"#utility.yul\":1305:1317   */\n      add\n        /* \"#utility.yul\":1298:1317   */\n      swap1\n      pop\n        /* \"#utility.yul\":1103:1323   */\n      swap2\n      swap1\n      pop\n      jump\t// out\n        /* \"#utility.yul\":1329:1695   */\n    tag_83:\n        /* \"#utility.yul\":1471:1474   */\n      0x00\n        /* \"#utility.yul\":1492:1559   */\n      tag_85\n        /* \"#utility.yul\":1556:1558   */\n      0x32\n        /* \"#utility.yul\":1551:1554   */\n      dup4\n        /* \"#utility.yul\":1492:1559   */\n      tag_80\n      jump\t// in\n    tag_85:\n        /* \"#utility.yul\":1485:1559   */\n      swap2\n      pop\n        /* \"#utility.yul\":1568:1661   */\n      tag_86\n        /* \"#utility.yul\":1657:1660   */\n      dup3\n        /* \"#utility.yul\":1568:1661   */\n      tag_87\n      jump\t// in\n    tag_86:\n        /* \"#utility.yul\":1686:1688   */\n      0x40\n        /* \"#utility.yul\":1681:1684   */\n      dup3\n        /* \"#utility.yul\":1677:1689   */\n      add\n        /* \"#utility.yul\":1670:1689   */\n      swap1\n      pop\n        /* \"#utility.yul\":1475:1695   */\n      swap2\n      swap1\n      pop\n      jump\t// out\n        /* \"#utility.yul\":1701:1819   */\n    tag_88:\n        /* \"#utility.yul\":1788:1812   */\n      tag_90\n        /* \"#utility.yul\":1806:1811   */\n      dup2\n        /* \"#utility.yul\":1788:1812   */\n      tag_91\n      jump\t// in\n    tag_90:\n        /* \"#utility.yul\":1783:1786   */\n      dup3\n        /* \"#utility.yul\":1776:1813   */\n      mstore\n        /* \"#utility.yul\":1766:1819   */\n      pop\n      pop\n      jump\t// out\n        /* \"#utility.yul\":1825:2047   */\n    tag_41:\n        /* \"#utility.yul\":1918:1922   */\n      0x00\n        /* \"#utility.yul\":1956:1958   */\n      0x20\n        /* \"#utility.yul\":1945:1954   */\n      dup3\n        /* \"#utility.yul\":1941:1959   */\n      add\n        /* \"#utility.yul\":1933:1959   */\n      swap1\n      pop\n        /* \"#utility.yul\":1969:2040   */\n      tag_93\n        /* \"#utility.yul\":2037:2038   */\n      0x00\n        /* \"#utility.yul\":2026:2035   */\n      dup4\n        /* \"#utility.yul\":2022:2039   */\n      add\n        /* \"#utility.yul\":2013:2019   */\n      dup5\n        /* \"#utility.yul\":1969:2040   */\n      tag_73\n      jump\t// in\n    tag_93:\n        /* \"#utility.yul\":1923:2047   */\n      swap3\n      swap2\n      pop\n      pop\n      jump\t// out\n        /* \"#utility.yul\":2053:2472   */\n    tag_50:\n        /* \"#utility.yul\":2219:2223   */\n      0x00\n        /* \"#utility.yul\":2257:2259   */\n      0x20\n        /* \"#utility.yul\":2246:2255   */\n      dup3\n        /* \"#utility.yul\":2242:2260   */\n      add\n        /* \"#utility.yul\":2234:2260   */\n      swap1\n      pop\n        /* \"#utility.yul\":2306:2315   */\n      dup2\n        /* \"#utility.yul\":2300:2304   */\n      dup2\n        /* \"#utility.yul\":2296:2316   */\n      sub\n        /* \"#utility.yul\":2292:2293   */\n      0x00\n        /* \"#utility.yul\":2281:2290   */\n      dup4\n        /* \"#utility.yul\":2277:2294   */\n      add\n        /* \"#utility.yul\":2270:2317   */\n      mstore\n        /* \"#utility.yul\":2334:2465   */\n      tag_95\n        /* \"#utility.yul\":2460:2464   */\n      dup2\n        /* \"#utility.yul\":2334:2465   */\n      tag_77\n      jump\t// in\n    tag_95:\n        /* \"#utility.yul\":2326:2465   */\n      swap1\n      pop\n        /* \"#utility.yul\":2224:2472   */\n      swap2\n      swap1\n      pop\n      jump\t// out\n        /* \"#utility.yul\":2478:2897   */\n    tag_54:\n        /* \"#utility.yul\":2644:2648   */\n      0x00\n        /* \"#utility.yul\":2682:2684   */\n      0x20\n        /* \"#utility.yul\":2671:2680   */\n      dup3\n        /* \"#utility.yul\":2667:2685   */\n      add\n        /* \"#utility.yul\":2659:2685   */\n      swap1\n      pop\n        /* \"#utility.yul\":2731:2740   */\n      dup2\n        /* \"#utility.yul\":2725:2729   */\n      dup2\n        /* \"#utility.yul\":2721:2741   */\n      sub\n        /* \"#utility.yul\":2717:2718   */\n      0x00\n        /* \"#utility.yul\":2706:2715   */\n      dup4\n        /* \"#utility.yul\":2702:2719   */\n      add\n        /* \"#utility.yul\":2695:2742   */\n      mstore\n        /* \"#utility.yul\":2759:2890   */\n      tag_97\n        /* \"#utility.yul\":2885:2889   */\n      dup2\n        /* \"#utility.yul\":2759:2890   */\n      tag_83\n      jump\t// in\n    tag_97:\n        /* \"#utility.yul\":2751:2890   */\n      swap1\n      pop\n        /* \"#utility.yul\":2649:2897   */\n      swap2\n      swap1\n      pop\n      jump\t// out\n        /* \"#utility.yul\":2903:3125   */\n    tag_33:\n        /* \"#utility.yul\":2996:3000   */\n      0x00\n        /* \"#utility.yul\":3034:3036   */\n      0x20\n        /* \"#utility.yul\":3023:3032   */\n      dup3\n        /* \"#utility.yul\":3019:3037   */\n      add\n        /* \"#utility.yul\":3011:3037   */\n      swap1\n      pop\n        /* \"#utility.yul\":3047:3118   */\n      tag_99\n        /* \"#utility.yul\":3115:3116   */\n      0x00\n        /* \"#utility.yul\":3104:3113   */\n      dup4\n        /* \"#utility.yul\":3100:3117   */\n      add\n        /* \"#utility.yul\":3091:3097   */\n      dup5\n        /* \"#utility.yul\":3047:3118   */\n      tag_88\n      jump\t// in\n    tag_99:\n        /* \"#utility.yul\":3001:3125   */\n      swap3\n      swap2\n      pop\n      pop\n      jump\t// out\n        /* \"#utility.yul\":3131:3684   */\n    tag_28:\n        /* \"#utility.yul\":3308:3312   */\n      0x00\n        /* \"#utility.yul\":3346:3349   */\n      0x80\n        /* \"#utility.yul\":3335:3344   */\n      dup3\n        /* \"#utility.yul\":3331:3350   */\n      add\n        /* \"#utility.yul\":3323:3350   */\n      swap1\n      pop\n        /* \"#utility.yul\":3360:3431   */\n      tag_101\n        /* \"#utility.yul\":3428:3429   */\n      0x00\n        /* \"#utility.yul\":3417:3426   */\n      dup4\n        /* \"#utility.yul\":3413:3430   */\n      add\n        /* \"#utility.yul\":3404:3410   */\n      dup8\n        /* \"#utility.yul\":3360:3431   */\n      tag_88\n      jump\t// in\n    tag_101:\n        /* \"#utility.yul\":3441:3513   */\n      tag_102\n        /* \"#utility.yul\":3509:3511   */\n      0x20\n        /* \"#utility.yul\":3498:3507   */\n      dup4\n        /* \"#utility.yul\":3494:3512   */\n      add\n        /* \"#utility.yul\":3485:3491   */\n      dup7\n        /* \"#utility.yul\":3441:3513   */\n      tag_88\n      jump\t// in\n    tag_102:\n        /* \"#utility.yul\":3523:3595   */\n      tag_103\n        /* \"#utility.yul\":3591:3593   */\n      0x40\n        /* \"#utility.yul\":3580:3589   */\n      dup4\n        /* \"#utility.yul\":3576:3594   */\n      add\n        /* \"#utility.yul\":3567:3573   */\n      dup6\n        /* \"#utility.yul\":3523:3595   */\n      tag_88\n      jump\t// in\n    tag_103:\n        /* \"#utility.yul\":3605:3677   */\n      tag_104\n        /* \"#utility.yul\":3673:3675   */\n      0x60\n        /* \"#utility.yul\":3662:3671   */\n      dup4\n        /* \"#utility.yul\":3658:3676   */\n      add\n        /* \"#utility.yul\":3649:3655   */\n      dup5\n        /* \"#utility.yul\":3605:3677   */\n      tag_88\n      jump\t// in\n    tag_104:\n        /* \"#utility.yul\":3313:3684   */\n      swap6\n      swap5\n      pop\n      pop\n      pop\n      pop\n      pop\n      jump\t// out\n        /* \"#utility.yul\":3690:3859   */\n    tag_80:\n        /* \"#utility.yul\":3774:3785   */\n      0x00\n        /* \"#utility.yul\":3808:3814   */\n      dup3\n        /* \"#utility.yul\":3803:3806   */\n      dup3\n        /* \"#utility.yul\":3796:3815   */\n      mstore\n        /* \"#utility.yul\":3848:3852   */\n      0x20\n        /* \"#utility.yul\":3843:3846   */\n      dup3\n        /* \"#utility.yul\":3839:3853   */\n      add\n        /* \"#utility.yul\":3824:3853   */\n      swap1\n      pop\n        /* \"#utility.yul\":3786:3859   */\n      swap3\n      swap2\n      pop\n      pop\n      jump\t// out\n        /* \"#utility.yul\":3865:4056   */\n    tag_58:\n        /* \"#utility.yul\":3905:3909   */\n      0x00\n        /* \"#utility.yul\":3925:3945   */\n      tag_107\n        /* \"#utility.yul\":3943:3944   */\n      dup3\n        /* \"#utility.yul\":3925:3945   */\n      tag_91\n      jump\t// in\n    tag_107:\n        /* \"#utility.yul\":3920:3945   */\n      swap2\n      pop\n        /* \"#utility.yul\":3959:3979   */\n      tag_108\n        /* \"#utility.yul\":3977:3978   */\n      dup4\n        /* \"#utility.yul\":3959:3979   */\n      tag_91\n      jump\t// in\n    tag_108:\n        /* \"#utility.yul\":3954:3979   */\n      swap3\n      pop\n        /* \"#utility.yul\":3998:3999   */\n      dup3\n        /* \"#utility.yul\":3995:3996   */\n      dup3\n        /* \"#utility.yul\":3992:4000   */\n      lt\n        /* \"#utility.yul\":3989:3991   */\n      iszero\n      tag_109\n      jumpi\n        /* \"#utility.yul\":4003:4021   */\n      tag_110\n      tag_111\n      jump\t// in\n    tag_110:\n        /* \"#utility.yul\":3989:3991   */\n    tag_109:\n        /* \"#utility.yul\":4048:4049   */\n      dup3\n        /* \"#utility.yul\":4045:4046   */\n      dup3\n        /* \"#utility.yul\":4041:4050   */\n      sub\n        /* \"#utility.yul\":4033:4050   */\n      swap1\n      pop\n        /* \"#utility.yul\":3910:4056   */\n      swap3\n      swap2\n      pop\n      pop\n      jump\t// out\n        /* \"#utility.yul\":4062:4158   */\n    tag_76:\n        /* \"#utility.yul\":4099:4106   */\n      0x00\n        /* \"#utility.yul\":4128:4152   */\n      tag_113\n        /* \"#utility.yul\":4146:4151   */\n      dup3\n        /* \"#utility.yul\":4128:4152   */\n      tag_114\n      jump\t// in\n    tag_113:\n        /* \"#utility.yul\":4117:4152   */\n      swap1\n      pop\n        /* \"#utility.yul\":4107:4158   */\n      swap2\n      swap1\n      pop\n      jump\t// out\n        /* \"#utility.yul\":4164:4290   */\n    tag_114:\n        /* \"#utility.yul\":4201:4208   */\n      0x00\n        /* \"#utility.yul\":4241:4283   */\n      0xffffffffffffffffffffffffffffffffffffffff\n        /* \"#utility.yul\":4234:4239   */\n      dup3\n        /* \"#utility.yul\":4230:4284   */\n      and\n        /* \"#utility.yul\":4219:4284   */\n      swap1\n      pop\n        /* \"#utility.yul\":4209:4290   */\n      swap2\n      swap1\n      pop\n      jump\t// out\n        /* \"#utility.yul\":4296:4373   */\n    tag_91:\n        /* \"#utility.yul\":4333:4340   */\n      0x00\n        /* \"#utility.yul\":4362:4367   */\n      dup2\n        /* \"#utility.yul\":4351:4367   */\n      swap1\n      pop\n        /* \"#utility.yul\":4341:4373   */\n      swap2\n      swap1\n      pop\n      jump\t// out\n        /* \"#utility.yul\":4379:4612   */\n    tag_56:\n        /* \"#utility.yul\":4418:4421   */\n      0x00\n        /* \"#utility.yul\":4441:4465   */\n      tag_118\n        /* \"#utility.yul\":4459:4464   */\n      dup3\n        /* \"#utility.yul\":4441:4465   */\n      tag_91\n      jump\t// in\n    tag_118:\n        /* \"#utility.yul\":4432:4465   */\n      swap2\n      pop\n        /* \"#utility.yul\":4487:4553   */\n      0xffffffffffffffffffffffffffffffffffffffffffffffffffffffffffffffff\n        /* \"#utility.yul\":4480:4485   */\n      dup3\n        /* \"#utility.yul\":4477:4554   */\n      eq\n        /* \"#utility.yul\":4474:4476   */\n      iszero\n      tag_119\n      jumpi\n        /* \"#utility.yul\":4557:4575   */\n      tag_120\n      tag_111\n      jump\t// in\n    tag_120:\n        /* \"#utility.yul\":4474:4476   */\n    tag_119:\n        /* \"#utility.yul\":4604:4605   */\n      0x01\n        /* \"#utility.yul\":4597:4602   */\n      dup3\n        /* \"#utility.yul\":4593:4606   */\n      add\n        /* \"#utility.yul\":4586:4606   */\n      swap1\n      pop\n        /* \"#utility.yul\":4422:4612   */\n      swap2\n      swap1\n      pop\n      jump\t// out\n        /* \"#utility.yul\":4618:4798   */\n    tag_111:\n        /* \"#utility.yul\":4666:4743   */\n      0x4e487b7100000000000000000000000000000000000000000000000000000000\n        /* \"#utility.yul\":4663:4664   */\n      0x00\n        /* \"#utility.yul\":4656:4744   */\n      mstore\n        /* \"#utility.yul\":4763:4767   */\n      0x11\n        /* \"#utility.yul\":4760:4761   */\n      0x04\n        /* \"#utility.yul\":4753:4768   */\n      mstore\n        /* \"#utility.yul\":4787:4791   */\n      0x24\n        /* \"#utility.yul\":4784:4785   */\n      0x00\n        /* \"#utility.yul\":4777:4792   */\n      revert\n        /* \"#utility.yul\":4804:5033   */\n    tag_82:\n        /* \"#utility.yul\":4944:4978   */\n      0x52656a6563746564212053656e642065786163746c7920302e30312065746865\n        /* \"#utility.yul\":4940:4941   */\n      0x00\n        /* \"#utility.yul\":4932:4938   */\n      dup3\n        /* \"#utility.yul\":4928:4942   */\n      add\n        /* \"#utility.yul\":4921:4979   */\n      mstore\n        /* \"#utility.yul\":5013:5025   */\n      0x7220746f20766f74652100000000000000000000000000000000000000000000\n        /* \"#utility.yul\":5008:5010   */\n      0x20\n        /* \"#utility.yul\":5000:5006   */\n      dup3\n        /* \"#utility.yul\":4996:5011   */\n      add\n        /* \"#utility.yul\":4989:5026   */\n      mstore\n        /* \"#utility.yul\":4910:5033   */\n      pop\n      jump\t// out\n        /* \"#utility.yul\":5039:5276   */\n    tag_87:\n        /* \"#utility.yul\":5179:5213   */\n      0x52656a656374656421204f6e6c7920636f6e7472616374206f776e6572206361\n        /* \"#utility.yul\":5175:5176   */\n      0x00\n        /* \"#utility.yul\":5167:5173   */\n      dup3\n        /* \"#utility.yul\":5163:5177   */\n      add\n        /* \"#utility.yul\":5156:5214   */\n      mstore\n        /* \"#utility.yul\":5248:5268   */\n      0x6e20637265617465206e657720766f7465210000000000000000000000000000\n        /* \"#utility.yul\":5243:5245   */\n      0x20\n        /* \"#utility.yul\":5235:5241   */\n      dup3\n        /* \"#utility.yul\":5231:5246   */\n      add\n        /* \"#utility.yul\":5224:5269   */\n      mstore\n        /* \"#utility.yul\":5145:5276   */\n      pop\n      jump\t// out\n        /* \"#utility.yul\":5282:5404   */\n    tag_65:\n        /* \"#utility.yul\":5355:5379   */\n      tag_125\n        /* \"#utility.yul\":5373:5378   */\n      dup2\n        /* \"#utility.yul\":5355:5379   */\n      tag_91\n      jump\t// in\n    tag_125:\n        /* \"#utility.yul\":5348:5353   */\n      dup2\n        /* \"#utility.yul\":5345:5380   */\n      eq\n        /* \"#utility.yul\":5335:5337   */\n      tag_126\n      jumpi\n        /* \"#utility.yul\":5394:5395   */\n      0x00\n        /* \"#utility.yul\":5391:5392   */\n      dup1\n        /* \"#utility.yul\":5384:5396   */\n      revert\n        /* \"#utility.yul\":5335:5337   */\n    tag_126:\n        /* \"#utility.yul\":5325:5404   */\n      pop\n      jump\t// out\n\n    auxdata: 0xa26469706673582212209ce863bc0329bae892d0d95abdde6ba9488c3edb2801ef1ba64389d222b1f5bc64736f6c63430008040033\n}\n",
				"bytecode": {
					"linkReferences": {},
					"object": "608060405234801561001057600080fd5b50336000806101000a81548173ffffffffffffffffffffffffffffffffffffffff021916908373ffffffffffffffffffffffffffffffffffffffff1602179055506106b3806100606000396000f3fe60806040526004361061007b5760003560e01c8063694ff0f21161004e578063694ff0f21461011c5780636e48a035146101475780638da5cb5b14610163578063cdd722531461018e5761007b565b80630dc9601514610080578063291e6777146100975780634d55f046146100c05780635df81330146100dc575b600080fd5b34801561008c57600080fd5b506100956101a5565b005b3480156100a357600080fd5b506100be60048036038101906100b99190610374565b6101a7565b005b6100da60048036038101906100d5919061034b565b6101ab565b005b3480156100e857600080fd5b5061010360048036038101906100fe919061034b565b6101f7565b604051610113949392919061048a565b60405180910390f35b34801561012857600080fd5b50610131610227565b60405161013e919061046f565b60405180910390f35b610161600480360381019061015c919061034b565b61030d565b005b34801561016f57600080fd5b50610178610310565b6040516101859190610414565b60405180910390f35b34801561019a57600080fd5b506101a3610334565b005b565b5050565b662386f26fc1000034146101f4576040517f08c379a00000000000000000000000000000000000000000000000000000000081526004016101eb9061042f565b60405180910390fd5b50565b60026020528060005260406000206000915090508060000154908060010154908060020154908060030154905084565b60008060009054906101000a900473ffffffffffffffffffffffffffffffffffffffff1673ffffffffffffffffffffffffffffffffffffffff163373ffffffffffffffffffffffffffffffffffffffff16146102b8576040517f08c379a00000000000000000000000000000000000000000000000000000000081526004016102af9061044f565b60405180910390fd5b6000600260006001548152602001908152602001600020905042816001018190558160000181905550600160008154809291906102f490610550565b91905055506001805461030791906104e0565b91505090565b50565b60008054906101000a900473ffffffffffffffffffffffffffffffffffffffff1681565b565b60008135905061034581610666565b92915050565b60006020828403121561035d57600080fd5b600061036b84828501610336565b91505092915050565b6000806040838503121561038757600080fd5b600061039585828601610336565b92505060206103a685828601610336565b9150509250929050565b6103b981610514565b82525050565b60006103cc602a836104cf565b91506103d7826105c8565b604082019050919050565b60006103ef6032836104cf565b91506103fa82610617565b604082019050919050565b61040e81610546565b82525050565b600060208201905061042960008301846103b0565b92915050565b60006020820190508181036000830152610448816103bf565b9050919050565b60006020820190508181036000830152610468816103e2565b9050919050565b60006020820190506104846000830184610405565b92915050565b600060808201905061049f6000830187610405565b6104ac6020830186610405565b6104b96040830185610405565b6104c66060830184610405565b95945050505050565b600082825260208201905092915050565b60006104eb82610546565b91506104f683610546565b92508282101561050957610508610599565b5b828203905092915050565b600061051f82610526565b9050919050565b600073ffffffffffffffffffffffffffffffffffffffff82169050919050565b6000819050919050565b600061055b82610546565b91507fffffffffffffffffffffffffffffffffffffffffffffffffffffffffffffffff82141561058e5761058d610599565b5b600182019050919050565b7f4e487b7100000000000000000000000000000000000000000000000000000000600052601160045260246000fd5b7f52656a6563746564212053656e642065786163746c7920302e3031206574686560008201527f7220746f20766f74652100000000000000000000000000000000000000000000602082015250565b7f52656a656374656421204f6e6c7920636f6e7472616374206f776e657220636160008201527f6e20637265617465206e657720766f7465210000000000000000000000000000602082015250565b61066f81610546565b811461067a57600080fd5b5056fea26469706673582212209ce863bc0329bae892d0d95abdde6ba9488c3edb2801ef1ba64389d222b1f5bc64736f6c63430008040033",
					"opcodes": "PUSH1 0x80 PUSH1 0x40 MSTORE CALLVALUE DUP1 ISZERO PUSH2 0x10 JUMPI PUSH1 0x0 DUP1 REVERT JUMPDEST POP CALLER PUSH1 0x0 DUP1 PUSH2 0x100 EXP DUP2 SLOAD DUP2 PUSH20 0xFFFFFFFFFFFFFFFFFFFFFFFFFFFFFFFFFFFFFFFF MUL NOT AND SWAP1 DUP4 PUSH20 0xFFFFFFFFFFFFFFFFFFFFFFFFFFFFFFFFFFFFFFFF AND MUL OR SWAP1 SSTORE POP PUSH2 0x6B3 DUP1 PUSH2 0x60 PUSH1 0x0 CODECOPY PUSH1 0x0 RETURN INVALID PUSH1 0x80 PUSH1 0x40 MSTORE PUSH1 0x4 CALLDATASIZE LT PUSH2 0x7B JUMPI PUSH1 0x0 CALLDATALOAD PUSH1 0xE0 SHR DUP1 PUSH4 0x694FF0F2 GT PUSH2 0x4E JUMPI DUP1 PUSH4 0x694FF0F2 EQ PUSH2 0x11C JUMPI DUP1 PUSH4 0x6E48A035 EQ PUSH2 0x147 JUMPI DUP1 PUSH4 0x8DA5CB5B EQ PUSH2 0x163 JUMPI DUP1 PUSH4 0xCDD72253 EQ PUSH2 0x18E JUMPI PUSH2 0x7B JUMP JUMPDEST DUP1 PUSH4 0xDC96015 EQ PUSH2 0x80 JUMPI DUP1 PUSH4 0x291E6777 EQ PUSH2 0x97 JUMPI DUP1 PUSH4 0x4D55F046 EQ PUSH2 0xC0 JUMPI DUP1 PUSH4 0x5DF81330 EQ PUSH2 0xDC JUMPI JUMPDEST PUSH1 0x0 DUP1 REVERT JUMPDEST CALLVALUE DUP1 ISZERO PUSH2 0x8C JUMPI PUSH1 0x0 DUP1 REVERT JUMPDEST POP PUSH2 0x95 PUSH2 0x1A5 JUMP JUMPDEST STOP JUMPDEST CALLVALUE DUP1 ISZERO PUSH2 0xA3 JUMPI PUSH1 0x0 DUP1 REVERT JUMPDEST POP PUSH2 0xBE PUSH1 0x4 DUP1 CALLDATASIZE SUB DUP2 ADD SWAP1 PUSH2 0xB9 SWAP2 SWAP1 PUSH2 0x374 JUMP JUMPDEST PUSH2 0x1A7 JUMP JUMPDEST STOP JUMPDEST PUSH2 0xDA PUSH1 0x4 DUP1 CALLDATASIZE SUB DUP2 ADD SWAP1 PUSH2 0xD5 SWAP2 SWAP1 PUSH2 0x34B JUMP JUMPDEST PUSH2 0x1AB JUMP JUMPDEST STOP JUMPDEST CALLVALUE DUP1 ISZERO PUSH2 0xE8 JUMPI PUSH1 0x0 DUP1 REVERT JUMPDEST POP PUSH2 0x103 PUSH1 0x4 DUP1 CALLDATASIZE SUB DUP2 ADD SWAP1 PUSH2 0xFE SWAP2 SWAP1 PUSH2 0x34B JUMP JUMPDEST PUSH2 0x1F7 JUMP JUMPDEST PUSH1 0x40 MLOAD PUSH2 0x113 SWAP5 SWAP4 SWAP3 SWAP2 SWAP1 PUSH2 0x48A JUMP JUMPDEST PUSH1 0x40 MLOAD DUP1 SWAP2 SUB SWAP1 RETURN JUMPDEST CALLVALUE DUP1 ISZERO PUSH2 0x128 JUMPI PUSH1 0x0 DUP1 REVERT JUMPDEST POP PUSH2 0x131 PUSH2 0x227 JUMP JUMPDEST PUSH1 0x40 MLOAD PUSH2 0x13E SWAP2 SWAP1 PUSH2 0x46F JUMP JUMPDEST PUSH1 0x40 MLOAD DUP1 SWAP2 SUB SWAP1 RETURN JUMPDEST PUSH2 0x161 PUSH1 0x4 DUP1 CALLDATASIZE SUB DUP2 ADD SWAP1 PUSH2 0x15C SWAP2 SWAP1 PUSH2 0x34B JUMP JUMPDEST PUSH2 0x30D JUMP JUMPDEST STOP JUMPDEST CALLVALUE DUP1 ISZERO PUSH2 0x16F JUMPI PUSH1 0x0 DUP1 REVERT JUMPDEST POP PUSH2 0x178 PUSH2 0x310 JUMP JUMPDEST PUSH1 0x40 MLOAD PUSH2 0x185 SWAP2 SWAP1 PUSH2 0x414 JUMP JUMPDEST PUSH1 0x40 MLOAD DUP1 SWAP2 SUB SWAP1 RETURN JUMPDEST CALLVALUE DUP1 ISZERO PUSH2 0x19A JUMPI PUSH1 0x0 DUP1 REVERT JUMPDEST POP PUSH2 0x1A3 PUSH2 0x334 JUMP JUMPDEST STOP JUMPDEST JUMP JUMPDEST POP POP JUMP JUMPDEST PUSH7 0x2386F26FC10000 CALLVALUE EQ PUSH2 0x1F4 JUMPI PUSH1 0x40 MLOAD PUSH32 0x8C379A000000000000000000000000000000000000000000000000000000000 DUP2 MSTORE PUSH1 0x4 ADD PUSH2 0x1EB SWAP1 PUSH2 0x42F JUMP JUMPDEST PUSH1 0x40 MLOAD DUP1 SWAP2 SUB SWAP1 REVERT JUMPDEST POP JUMP JUMPDEST PUSH1 0x2 PUSH1 0x20 MSTORE DUP1 PUSH1 0x0 MSTORE PUSH1 0x40 PUSH1 0x0 KECCAK256 PUSH1 0x0 SWAP2 POP SWAP1 POP DUP1 PUSH1 0x0 ADD SLOAD SWAP1 DUP1 PUSH1 0x1 ADD SLOAD SWAP1 DUP1 PUSH1 0x2 ADD SLOAD SWAP1 DUP1 PUSH1 0x3 ADD SLOAD SWAP1 POP DUP5 JUMP JUMPDEST PUSH1 0x0 DUP1 PUSH1 0x0 SWAP1 SLOAD SWAP1 PUSH2 0x100 EXP SWAP1 DIV PUSH20 0xFFFFFFFFFFFFFFFFFFFFFFFFFFFFFFFFFFFFFFFF AND PUSH20 0xFFFFFFFFFFFFFFFFFFFFFFFFFFFFFFFFFFFFFFFF AND CALLER PUSH20 0xFFFFFFFFFFFFFFFFFFFFFFFFFFFFFFFFFFFFFFFF AND EQ PUSH2 0x2B8 JUMPI PUSH1 0x40 MLOAD PUSH32 0x8C379A000000000000000000000000000000000000000000000000000000000 DUP2 MSTORE PUSH1 0x4 ADD PUSH2 0x2AF SWAP1 PUSH2 0x44F JUMP JUMPDEST PUSH1 0x40 MLOAD DUP1 SWAP2 SUB SWAP1 REVERT JUMPDEST PUSH1 0x0 PUSH1 0x2 PUSH1 0x0 PUSH1 0x1 SLOAD DUP2 MSTORE PUSH1 0x20 ADD SWAP1 DUP2 MSTORE PUSH1 0x20 ADD PUSH1 0x0 KECCAK256 SWAP1 POP TIMESTAMP DUP2 PUSH1 0x1 ADD DUP2 SWAP1 SSTORE DUP2 PUSH1 0x0 ADD DUP2 SWAP1 SSTORE POP PUSH1 0x1 PUSH1 0x0 DUP2 SLOAD DUP1 SWAP3 SWAP2 SWAP1 PUSH2 0x2F4 SWAP1 PUSH2 0x550 JUMP JUMPDEST SWAP2 SWAP1 POP SSTORE POP PUSH1 0x1 DUP1 SLOAD PUSH2 0x307 SWAP2 SWAP1 PUSH2 0x4E0 JUMP JUMPDEST SWAP2 POP POP SWAP1 JUMP JUMPDEST POP JUMP JUMPDEST PUSH1 0x0 DUP1 SLOAD SWAP1 PUSH2 0x100 EXP SWAP1 DIV PUSH20 0xFFFFFFFFFFFFFFFFFFFFFFFFFFFFFFFFFFFFFFFF AND DUP2 JUMP JUMPDEST JUMP JUMPDEST PUSH1 0x0 DUP2 CALLDATALOAD SWAP1 POP PUSH2 0x345 DUP2 PUSH2 0x666 JUMP JUMPDEST SWAP3 SWAP2 POP POP JUMP JUMPDEST PUSH1 0x0 PUSH1 0x20 DUP3 DUP5 SUB SLT ISZERO PUSH2 0x35D JUMPI PUSH1 0x0 DUP1 REVERT JUMPDEST PUSH1 0x0 PUSH2 0x36B DUP5 DUP3 DUP6 ADD PUSH2 0x336 JUMP JUMPDEST SWAP2 POP POP SWAP3 SWAP2 POP POP JUMP JUMPDEST PUSH1 0x0 DUP1 PUSH1 0x40 DUP4 DUP6 SUB SLT ISZERO PUSH2 0x387 JUMPI PUSH1 0x0 DUP1 REVERT JUMPDEST PUSH1 0x0 PUSH2 0x395 DUP6 DUP3 DUP7 ADD PUSH2 0x336 JUMP JUMPDEST SWAP3 POP POP PUSH1 0x20 PUSH2 0x3A6 DUP6 DUP3 DUP7 ADD PUSH2 0x336 JUMP JUMPDEST SWAP2 POP POP SWAP3 POP SWAP3 SWAP1 POP JUMP JUMPDEST PUSH2 0x3B9 DUP2 PUSH2 0x514 JUMP JUMPDEST DUP3 MSTORE POP POP JUMP JUMPDEST PUSH1 0x0 PUSH2 0x3CC PUSH1 0x2A DUP4 PUSH2 0x4CF JUMP JUMPDEST SWAP2 POP PUSH2 0x3D7 DUP3 PUSH2 0x5C8 JUMP JUMPDEST PUSH1 0x40 DUP3 ADD SWAP1 POP SWAP2 SWAP1 POP JUMP JUMPDEST PUSH1 0x0 PUSH2 0x3EF PUSH1 0x32 DUP4 PUSH2 0x4CF JUMP JUMPDEST SWAP2 POP PUSH2 0x3FA DUP3 PUSH2 0x617 JUMP JUMPDEST PUSH1 0x40 DUP3 ADD SWAP1 POP SWAP2 SWAP1 POP JUMP JUMPDEST PUSH2 0x40E DUP2 PUSH2 0x546 JUMP JUMPDEST DUP3 MSTORE POP POP JUMP JUMPDEST PUSH1 0x0 PUSH1 0x20 DUP3 ADD SWAP1 POP PUSH2 0x429 PUSH1 0x0 DUP4 ADD DUP5 PUSH2 0x3B0 JUMP JUMPDEST SWAP3 SWAP2 POP POP JUMP JUMPDEST PUSH1 0x0 PUSH1 0x20 DUP3 ADD SWAP1 POP DUP2 DUP2 SUB PUSH1 0x0 DUP4 ADD MSTORE PUSH2 0x448 DUP2 PUSH2 0x3BF JUMP JUMPDEST SWAP1 POP SWAP2 SWAP1 POP JUMP JUMPDEST PUSH1 0x0 PUSH1 0x20 DUP3 ADD SWAP1 POP DUP2 DUP2 SUB PUSH1 0x0 DUP4 ADD MSTORE PUSH2 0x468 DUP2 PUSH2 0x3E2 JUMP JUMPDEST SWAP1 POP SWAP2 SWAP1 POP JUMP JUMPDEST PUSH1 0x0 PUSH1 0x20 DUP3 ADD SWAP1 POP PUSH2 0x484 PUSH1 0x0 DUP4 ADD DUP5 PUSH2 0x405 JUMP JUMPDEST SWAP3 SWAP2 POP POP JUMP JUMPDEST PUSH1 0x0 PUSH1 0x80 DUP3 ADD SWAP1 POP PUSH2 0x49F PUSH1 0x0 DUP4 ADD DUP8 PUSH2 0x405 JUMP JUMPDEST PUSH2 0x4AC PUSH1 0x20 DUP4 ADD DUP7 PUSH2 0x405 JUMP JUMPDEST PUSH2 0x4B9 PUSH1 0x40 DUP4 ADD DUP6 PUSH2 0x405 JUMP JUMPDEST PUSH2 0x4C6 PUSH1 0x60 DUP4 ADD DUP5 PUSH2 0x405 JUMP JUMPDEST SWAP6 SWAP5 POP POP POP POP POP JUMP JUMPDEST PUSH1 0x0 DUP3 DUP3 MSTORE PUSH1 0x20 DUP3 ADD SWAP1 POP SWAP3 SWAP2 POP POP JUMP JUMPDEST PUSH1 0x0 PUSH2 0x4EB DUP3 PUSH2 0x546 JUMP JUMPDEST SWAP2 POP PUSH2 0x4F6 DUP4 PUSH2 0x546 JUMP JUMPDEST SWAP3 POP DUP3 DUP3 LT ISZERO PUSH2 0x509 JUMPI PUSH2 0x508 PUSH2 0x599 JUMP JUMPDEST JUMPDEST DUP3 DUP3 SUB SWAP1 POP SWAP3 SWAP2 POP POP JUMP JUMPDEST PUSH1 0x0 PUSH2 0x51F DUP3 PUSH2 0x526 JUMP JUMPDEST SWAP1 POP SWAP2 SWAP1 POP JUMP JUMPDEST PUSH1 0x0 PUSH20 0xFFFFFFFFFFFFFFFFFFFFFFFFFFFFFFFFFFFFFFFF DUP3 AND SWAP1 POP SWAP2 SWAP1 POP JUMP JUMPDEST PUSH1 0x0 DUP2 SWAP1 POP SWAP2 SWAP1 POP JUMP JUMPDEST PUSH1 0x0 PUSH2 0x55B DUP3 PUSH2 0x546 JUMP JUMPDEST SWAP2 POP PUSH32 0xFFFFFFFFFFFFFFFFFFFFFFFFFFFFFFFFFFFFFFFFFFFFFFFFFFFFFFFFFFFFFFFF DUP3 EQ ISZERO PUSH2 0x58E JUMPI PUSH2 0x58D PUSH2 0x599 JUMP JUMPDEST JUMPDEST PUSH1 0x1 DUP3 ADD SWAP1 POP SWAP2 SWAP1 POP JUMP JUMPDEST PUSH32 0x4E487B7100000000000000000000000000000000000000000000000000000000 PUSH1 0x0 MSTORE PUSH1 0x11 PUSH1 0x4 MSTORE PUSH1 0x24 PUSH1 0x0 REVERT JUMPDEST PUSH32 0x52656A6563746564212053656E642065786163746C7920302E30312065746865 PUSH1 0x0 DUP3 ADD MSTORE PUSH32 0x7220746F20766F74652100000000000000000000000000000000000000000000 PUSH1 0x20 DUP3 ADD MSTORE POP JUMP JUMPDEST PUSH32 0x52656A656374656421204F6E6C7920636F6E7472616374206F776E6572206361 PUSH1 0x0 DUP3 ADD MSTORE PUSH32 0x6E20637265617465206E657720766F7465210000000000000000000000000000 PUSH1 0x20 DUP3 ADD MSTORE POP JUMP JUMPDEST PUSH2 0x66F DUP2 PUSH2 0x546 JUMP JUMPDEST DUP2 EQ PUSH2 0x67A JUMPI PUSH1 0x0 DUP1 REVERT JUMPDEST POP JUMP INVALID LOG2 PUSH5 0x6970667358 0x22 SLT KECCAK256 SWAP13 0xE8 PUSH4 0xBC0329BA 0xE8 SWAP3 0xD0 0xD9 GAS 0xBD 0xDE PUSH12 0xA9488C3EDB2801EF1BA64389 0xD2 0x22 0xB1 CREATE2 0xBC PUSH5 0x736F6C6343 STOP ADDMOD DIV STOP CALLER "
				},
				"gasEstimates": {
					"creation": {
						"codeDepositCost": "343000",
						"executionCost": "21246",
						"totalCost": "364246"
					},
					"external": {
						"closeVote(uint256)": "404",
						"createVote()": "infinite",
						"getVoters()": "210",
						"getVotes()": "145",
						"owner()": "1255",
						"sendDepo(uint256)": "754",
						"sendVote(uint256,uint256)": "infinite",
						"votes(uint256)": "infinite"
					}
				},
				"methodIdentifiers": {
					"closeVote(uint256)": "6e48a035",
					"createVote()": "694ff0f2",
					"getVoters()": "cdd72253",
					"getVotes()": "0dc96015",
					"owner()": "8da5cb5b",
					"sendDepo(uint256)": "4d55f046",
					"sendVote(uint256,uint256)": "291e6777",
					"votes(uint256)": "5df81330"
				}
			},
			"storageLayout": {
				"storage": [
					{
						"astId": 3,
						"contract": "contracts/ballot.sol:Ballot",
						"label": "owner",
						"offset": 0,
						"slot": "0",
						"type": "t_address"
					},
					{
						"astId": 28,
						"contract": "contracts/ballot.sol:Ballot",
						"label": "numVotes",
						"offset": 0,
						"slot": "1",
						"type": "t_uint256"
					},
					{
						"astId": 33,
						"contract": "contracts/ballot.sol:Ballot",
						"label": "votes",
						"offset": 0,
						"slot": "2",
						"type": "t_mapping(t_uint256,t_struct(Vote)26_storage)"
					}
				],
				"types": {
					"t_address": {
						"encoding": "inplace",
						"label": "address",
						"numberOfBytes": "20"
					},
					"t_bool": {
						"encoding": "inplace",
						"label": "bool",
						"numberOfBytes": "1"
					},
					"t_mapping(t_uint256,t_struct(Vote)26_storage)": {
						"encoding": "mapping",
						"key": "t_uint256",
						"label": "mapping(uint256 => struct Ballot.Vote)",
						"numberOfBytes": "32",
						"value": "t_struct(Vote)26_storage"
					},
					"t_mapping(t_uint256,t_struct(Voter)12_storage)": {
						"encoding": "mapping",
						"key": "t_uint256",
						"label": "mapping(uint256 => struct Ballot.Voter)",
						"numberOfBytes": "32",
						"value": "t_struct(Voter)12_storage"
					},
					"t_struct(Vote)26_storage": {
						"encoding": "inplace",
						"label": "struct Ballot.Vote",
						"members": [
							{
								"astId": 14,
								"contract": "contracts/ballot.sol:Ballot",
								"label": "id",
								"offset": 0,
								"slot": "0",
								"type": "t_uint256"
							},
							{
								"astId": 16,
								"contract": "contracts/ballot.sol:Ballot",
								"label": "startTime",
								"offset": 0,
								"slot": "1",
								"type": "t_uint256"
							},
							{
								"astId": 18,
								"contract": "contracts/ballot.sol:Ballot",
								"label": "balance",
								"offset": 0,
								"slot": "2",
								"type": "t_uint256"
							},
							{
								"astId": 20,
								"contract": "contracts/ballot.sol:Ballot",
								"label": "numVoters",
								"offset": 0,
								"slot": "3",
								"type": "t_uint256"
							},
							{
								"astId": 25,
								"contract": "contracts/ballot.sol:Ballot",
								"label": "voters",
								"offset": 0,
								"slot": "4",
								"type": "t_mapping(t_uint256,t_struct(Voter)12_storage)"
							}
						],
						"numberOfBytes": "160"
					},
					"t_struct(Voter)12_storage": {
						"encoding": "inplace",
						"label": "struct Ballot.Voter",
						"members": [
							{
								"astId": 5,
								"contract": "contracts/ballot.sol:Ballot",
								"label": "id",
								"offset": 0,
								"slot": "0",
								"type": "t_uint256"
							},
							{
								"astId": 7,
								"contract": "contracts/ballot.sol:Ballot",
								"label": "addr",
								"offset": 0,
								"slot": "1",
								"type": "t_address"
							},
							{
								"astId": 9,
								"contract": "contracts/ballot.sol:Ballot",
								"label": "voted",
								"offset": 20,
								"slot": "1",
								"type": "t_bool"
							},
							{
								"astId": 11,
								"contract": "contracts/ballot.sol:Ballot",
								"label": "voteCount",
								"offset": 0,
								"slot": "2",
								"type": "t_uint256"
							}
						],
						"numberOfBytes": "96"
					},
					"t_uint256": {
						"encoding": "inplace",
						"label": "uint256",
						"numberOfBytes": "32"
					}
				}
			},
			"userdoc": {
				"kind": "user",
				"methods": {},
				"version": 1
			}
		}
	}
}