{
	"contracts/ballot.sol": {
		"Ballot": {
			"abi": [
				{
					"inputs": [],
					"stateMutability": "nonpayable",
					"type": "constructor"
				},
				{
					"inputs": [
						{
							"internalType": "uint256",
							"name": "ID",
							"type": "uint256"
						}
					],
					"name": "closeVote",
					"outputs": [],
					"stateMutability": "payable",
					"type": "function"
				},
				{
					"inputs": [],
					"name": "createVote",
					"outputs": [],
					"stateMutability": "view",
					"type": "function"
				},
				{
					"inputs": [],
					"name": "getVotes",
					"outputs": [],
					"stateMutability": "view",
					"type": "function"
				},
				{
					"inputs": [],
					"name": "owner",
					"outputs": [
						{
							"internalType": "address",
							"name": "",
							"type": "address"
						}
					],
					"stateMutability": "view",
					"type": "function"
				},
				{
					"inputs": [
						{
							"internalType": "uint256",
							"name": "ID",
							"type": "uint256"
						}
					],
					"name": "sendDepo",
					"outputs": [],
					"stateMutability": "payable",
					"type": "function"
				},
				{
					"inputs": [
						{
							"internalType": "uint256",
							"name": "",
							"type": "uint256"
						}
					],
					"name": "votes",
					"outputs": [
						{
							"internalType": "uint256",
							"name": "id",
							"type": "uint256"
						},
						{
							"internalType": "uint256",
							"name": "startTime",
							"type": "uint256"
						},
						{
							"internalType": "uint256",
							"name": "balance",
							"type": "uint256"
						}
					],
					"stateMutability": "view",
					"type": "function"
				}
			],
			"devdoc": {
				"kind": "dev",
				"methods": {},
				"version": 1
			},
			"evm": {
				"assembly": "    /* \"contracts/ballot.sol\":61:1166  contract Ballot {\r... */\n  mstore(0x40, 0x80)\n    /* \"contracts/ballot.sol\":685:737  constructor () {\r... */\n  callvalue\n  dup1\n  iszero\n  tag_1\n  jumpi\n  0x00\n  dup1\n  revert\ntag_1:\n  pop\n    /* \"contracts/ballot.sol\":719:729  msg.sender */\n  caller\n    /* \"contracts/ballot.sol\":711:716  owner */\n  0x00\n  dup1\n    /* \"contracts/ballot.sol\":711:729  owner = msg.sender */\n  0x0100\n  exp\n  dup2\n  sload\n  dup2\n  0xffffffffffffffffffffffffffffffffffffffff\n  mul\n  not\n  and\n  swap1\n  dup4\n  0xffffffffffffffffffffffffffffffffffffffff\n  and\n  mul\n  or\n  swap1\n  sstore\n  pop\n    /* \"contracts/ballot.sol\":61:1166  contract Ballot {\r... */\n  dataSize(sub_0)\n  dup1\n  dataOffset(sub_0)\n  0x00\n  codecopy\n  0x00\n  return\nstop\n\nsub_0: assembly {\n        /* \"contracts/ballot.sol\":61:1166  contract Ballot {\r... */\n      mstore(0x40, 0x80)\n      jumpi(tag_1, lt(calldatasize, 0x04))\n      shr(0xe0, calldataload(0x00))\n      dup1\n      0x0dc96015\n      eq\n      tag_2\n      jumpi\n      dup1\n      0x4d55f046\n      eq\n      tag_3\n      jumpi\n      dup1\n      0x5df81330\n      eq\n      tag_4\n      jumpi\n      dup1\n      0x694ff0f2\n      eq\n      tag_5\n      jumpi\n      dup1\n      0x6e48a035\n      eq\n      tag_6\n      jumpi\n      dup1\n      0x8da5cb5b\n      eq\n      tag_7\n      jumpi\n    tag_1:\n      0x00\n      dup1\n      revert\n        /* \"contracts/ballot.sol\":1016:1059  function getVotes () public view {\r... */\n    tag_2:\n      callvalue\n      dup1\n      iszero\n      tag_8\n      jumpi\n      0x00\n      dup1\n      revert\n    tag_8:\n      pop\n      tag_9\n      tag_10\n      jump\t// in\n    tag_9:\n      stop\n        /* \"contracts/ballot.sol\":933:986  function sendDepo (uint ID) public payable {\r... */\n    tag_3:\n      tag_11\n      0x04\n      dup1\n      calldatasize\n      sub\n      dup2\n      add\n      swap1\n      tag_12\n      swap2\n      swap1\n      tag_13\n      jump\t// in\n    tag_12:\n      tag_14\n      jump\t// in\n    tag_11:\n      stop\n        /* \"contracts/ballot.sol\":607:642  mapping (uint => Vote) public votes */\n    tag_4:\n      callvalue\n      dup1\n      iszero\n      tag_15\n      jumpi\n      0x00\n      dup1\n      revert\n    tag_15:\n      pop\n      tag_16\n      0x04\n      dup1\n      calldatasize\n      sub\n      dup2\n      add\n      swap1\n      tag_17\n      swap2\n      swap1\n      tag_13\n      jump\t// in\n    tag_17:\n      tag_18\n      jump\t// in\n    tag_16:\n      mload(0x40)\n      tag_19\n      swap4\n      swap3\n      swap2\n      swap1\n      tag_20\n      jump\t// in\n    tag_19:\n      mload(0x40)\n      dup1\n      swap2\n      sub\n      swap1\n      return\n        /* \"contracts/ballot.sol\":765:902  function createVote () public view {\r... */\n    tag_5:\n      callvalue\n      dup1\n      iszero\n      tag_21\n      jumpi\n      0x00\n      dup1\n      revert\n    tag_21:\n      pop\n      tag_22\n      tag_23\n      jump\t// in\n    tag_22:\n      stop\n        /* \"contracts/ballot.sol\":1107:1161  function closeVote (uint ID) public payable {\r... */\n    tag_6:\n      tag_24\n      0x04\n      dup1\n      calldatasize\n      sub\n      dup2\n      add\n      swap1\n      tag_25\n      swap2\n      swap1\n      tag_13\n      jump\t// in\n    tag_25:\n      tag_26\n      jump\t// in\n    tag_24:\n      stop\n        /* \"contracts/ballot.sol\":86:106  address public owner */\n    tag_7:\n      callvalue\n      dup1\n      iszero\n      tag_27\n      jumpi\n      0x00\n      dup1\n      revert\n    tag_27:\n      pop\n      tag_28\n      tag_29\n      jump\t// in\n    tag_28:\n      mload(0x40)\n      tag_30\n      swap2\n      swap1\n      tag_31\n      jump\t// in\n    tag_30:\n      mload(0x40)\n      dup1\n      swap2\n      sub\n      swap1\n      return\n        /* \"contracts/ballot.sol\":1016:1059  function getVotes () public view {\r... */\n    tag_10:\n      jump\t// out\n        /* \"contracts/ballot.sol\":933:986  function sendDepo (uint ID) public payable {\r... */\n    tag_14:\n      pop\n      jump\t// out\n        /* \"contracts/ballot.sol\":607:642  mapping (uint => Vote) public votes */\n    tag_18:\n      mstore(0x20, 0x02)\n      dup1\n      0x00\n      mstore\n      keccak256(0x00, 0x40)\n      0x00\n      swap2\n      pop\n      swap1\n      pop\n      dup1\n      0x00\n      add\n      sload\n      swap1\n      dup1\n      0x01\n      add\n      sload\n      swap1\n      dup1\n      0x02\n      add\n      sload\n      swap1\n      pop\n      dup4\n      jump\t// out\n        /* \"contracts/ballot.sol\":765:902  function createVote () public view {\r... */\n    tag_23:\n        /* \"contracts/ballot.sol\":834:839  owner */\n      0x00\n      dup1\n      sload\n      swap1\n      0x0100\n      exp\n      swap1\n      div\n      0xffffffffffffffffffffffffffffffffffffffff\n      and\n        /* \"contracts/ballot.sol\":820:839  msg.sender == owner */\n      0xffffffffffffffffffffffffffffffffffffffff\n      and\n        /* \"contracts/ballot.sol\":820:830  msg.sender */\n      caller\n        /* \"contracts/ballot.sol\":820:839  msg.sender == owner */\n      0xffffffffffffffffffffffffffffffffffffffff\n      and\n      eq\n        /* \"contracts/ballot.sol\":811:894  require (msg.sender == owner, \"Rejected! Only contract owner can create new vote!\") */\n      tag_35\n      jumpi\n      mload(0x40)\n      0x08c379a000000000000000000000000000000000000000000000000000000000\n      dup2\n      mstore\n      0x04\n      add\n      tag_36\n      swap1\n      tag_37\n      jump\t// in\n    tag_36:\n      mload(0x40)\n      dup1\n      swap2\n      sub\n      swap1\n      revert\n    tag_35:\n        /* \"contracts/ballot.sol\":765:902  function createVote () public view {\r... */\n      jump\t// out\n        /* \"contracts/ballot.sol\":1107:1161  function closeVote (uint ID) public payable {\r... */\n    tag_26:\n      pop\n      jump\t// out\n        /* \"contracts/ballot.sol\":86:106  address public owner */\n    tag_29:\n      0x00\n      dup1\n      sload\n      swap1\n      0x0100\n      exp\n      swap1\n      div\n      0xffffffffffffffffffffffffffffffffffffffff\n      and\n      dup2\n      jump\t// out\n        /* \"#utility.yul\":7:146   */\n    tag_40:\n        /* \"#utility.yul\":53:58   */\n      0x00\n        /* \"#utility.yul\":91:97   */\n      dup2\n        /* \"#utility.yul\":78:98   */\n      calldataload\n        /* \"#utility.yul\":69:98   */\n      swap1\n      pop\n        /* \"#utility.yul\":107:140   */\n      tag_42\n        /* \"#utility.yul\":134:139   */\n      dup2\n        /* \"#utility.yul\":107:140   */\n      tag_43\n      jump\t// in\n    tag_42:\n        /* \"#utility.yul\":59:146   */\n      swap3\n      swap2\n      pop\n      pop\n      jump\t// out\n        /* \"#utility.yul\":152:414   */\n    tag_13:\n        /* \"#utility.yul\":211:217   */\n      0x00\n        /* \"#utility.yul\":260:262   */\n      0x20\n        /* \"#utility.yul\":248:257   */\n      dup3\n        /* \"#utility.yul\":239:246   */\n      dup5\n        /* \"#utility.yul\":235:258   */\n      sub\n        /* \"#utility.yul\":231:263   */\n      slt\n        /* \"#utility.yul\":228:230   */\n      iszero\n      tag_45\n      jumpi\n        /* \"#utility.yul\":276:277   */\n      0x00\n        /* \"#utility.yul\":273:274   */\n      dup1\n        /* \"#utility.yul\":266:278   */\n      revert\n        /* \"#utility.yul\":228:230   */\n    tag_45:\n        /* \"#utility.yul\":319:320   */\n      0x00\n        /* \"#utility.yul\":344:397   */\n      tag_46\n        /* \"#utility.yul\":389:396   */\n      dup5\n        /* \"#utility.yul\":380:386   */\n      dup3\n        /* \"#utility.yul\":369:378   */\n      dup6\n        /* \"#utility.yul\":365:387   */\n      add\n        /* \"#utility.yul\":344:397   */\n      tag_40\n      jump\t// in\n    tag_46:\n        /* \"#utility.yul\":334:397   */\n      swap2\n      pop\n        /* \"#utility.yul\":290:407   */\n      pop\n        /* \"#utility.yul\":218:414   */\n      swap3\n      swap2\n      pop\n      pop\n      jump\t// out\n        /* \"#utility.yul\":420:538   */\n    tag_47:\n        /* \"#utility.yul\":507:531   */\n      tag_49\n        /* \"#utility.yul\":525:530   */\n      dup2\n        /* \"#utility.yul\":507:531   */\n      tag_50\n      jump\t// in\n    tag_49:\n        /* \"#utility.yul\":502:505   */\n      dup3\n        /* \"#utility.yul\":495:532   */\n      mstore\n        /* \"#utility.yul\":485:538   */\n      pop\n      pop\n      jump\t// out\n        /* \"#utility.yul\":544:910   */\n    tag_51:\n        /* \"#utility.yul\":686:689   */\n      0x00\n        /* \"#utility.yul\":707:774   */\n      tag_53\n        /* \"#utility.yul\":771:773   */\n      0x32\n        /* \"#utility.yul\":766:769   */\n      dup4\n        /* \"#utility.yul\":707:774   */\n      tag_54\n      jump\t// in\n    tag_53:\n        /* \"#utility.yul\":700:774   */\n      swap2\n      pop\n        /* \"#utility.yul\":783:876   */\n      tag_55\n        /* \"#utility.yul\":872:875   */\n      dup3\n        /* \"#utility.yul\":783:876   */\n      tag_56\n      jump\t// in\n    tag_55:\n        /* \"#utility.yul\":901:903   */\n      0x40\n        /* \"#utility.yul\":896:899   */\n      dup3\n        /* \"#utility.yul\":892:904   */\n      add\n        /* \"#utility.yul\":885:904   */\n      swap1\n      pop\n        /* \"#utility.yul\":690:910   */\n      swap2\n      swap1\n      pop\n      jump\t// out\n        /* \"#utility.yul\":916:1034   */\n    tag_57:\n        /* \"#utility.yul\":1003:1027   */\n      tag_59\n        /* \"#utility.yul\":1021:1026   */\n      dup2\n        /* \"#utility.yul\":1003:1027   */\n      tag_60\n      jump\t// in\n    tag_59:\n        /* \"#utility.yul\":998:1001   */\n      dup3\n        /* \"#utility.yul\":991:1028   */\n      mstore\n        /* \"#utility.yul\":981:1034   */\n      pop\n      pop\n      jump\t// out\n        /* \"#utility.yul\":1040:1262   */\n    tag_31:\n        /* \"#utility.yul\":1133:1137   */\n      0x00\n        /* \"#utility.yul\":1171:1173   */\n      0x20\n        /* \"#utility.yul\":1160:1169   */\n      dup3\n        /* \"#utility.yul\":1156:1174   */\n      add\n        /* \"#utility.yul\":1148:1174   */\n      swap1\n      pop\n        /* \"#utility.yul\":1184:1255   */\n      tag_62\n        /* \"#utility.yul\":1252:1253   */\n      0x00\n        /* \"#utility.yul\":1241:1250   */\n      dup4\n        /* \"#utility.yul\":1237:1254   */\n      add\n        /* \"#utility.yul\":1228:1234   */\n      dup5\n        /* \"#utility.yul\":1184:1255   */\n      tag_47\n      jump\t// in\n    tag_62:\n        /* \"#utility.yul\":1138:1262   */\n      swap3\n      swap2\n      pop\n      pop\n      jump\t// out\n        /* \"#utility.yul\":1268:1687   */\n    tag_37:\n        /* \"#utility.yul\":1434:1438   */\n      0x00\n        /* \"#utility.yul\":1472:1474   */\n      0x20\n        /* \"#utility.yul\":1461:1470   */\n      dup3\n        /* \"#utility.yul\":1457:1475   */\n      add\n        /* \"#utility.yul\":1449:1475   */\n      swap1\n      pop\n        /* \"#utility.yul\":1521:1530   */\n      dup2\n        /* \"#utility.yul\":1515:1519   */\n      dup2\n        /* \"#utility.yul\":1511:1531   */\n      sub\n        /* \"#utility.yul\":1507:1508   */\n      0x00\n        /* \"#utility.yul\":1496:1505   */\n      dup4\n        /* \"#utility.yul\":1492:1509   */\n      add\n        /* \"#utility.yul\":1485:1532   */\n      mstore\n        /* \"#utility.yul\":1549:1680   */\n      tag_64\n        /* \"#utility.yul\":1675:1679   */\n      dup2\n        /* \"#utility.yul\":1549:1680   */\n      tag_51\n      jump\t// in\n    tag_64:\n        /* \"#utility.yul\":1541:1680   */\n      swap1\n      pop\n        /* \"#utility.yul\":1439:1687   */\n      swap2\n      swap1\n      pop\n      jump\t// out\n        /* \"#utility.yul\":1693:2135   */\n    tag_20:\n        /* \"#utility.yul\":1842:1846   */\n      0x00\n        /* \"#utility.yul\":1880:1882   */\n      0x60\n        /* \"#utility.yul\":1869:1878   */\n      dup3\n        /* \"#utility.yul\":1865:1883   */\n      add\n        /* \"#utility.yul\":1857:1883   */\n      swap1\n      pop\n        /* \"#utility.yul\":1893:1964   */\n      tag_66\n        /* \"#utility.yul\":1961:1962   */\n      0x00\n        /* \"#utility.yul\":1950:1959   */\n      dup4\n        /* \"#utility.yul\":1946:1963   */\n      add\n        /* \"#utility.yul\":1937:1943   */\n      dup7\n        /* \"#utility.yul\":1893:1964   */\n      tag_57\n      jump\t// in\n    tag_66:\n        /* \"#utility.yul\":1974:2046   */\n      tag_67\n        /* \"#utility.yul\":2042:2044   */\n      0x20\n        /* \"#utility.yul\":2031:2040   */\n      dup4\n        /* \"#utility.yul\":2027:2045   */\n      add\n        /* \"#utility.yul\":2018:2024   */\n      dup6\n        /* \"#utility.yul\":1974:2046   */\n      tag_57\n      jump\t// in\n    tag_67:\n        /* \"#utility.yul\":2056:2128   */\n      tag_68\n        /* \"#utility.yul\":2124:2126   */\n      0x40\n        /* \"#utility.yul\":2113:2122   */\n      dup4\n        /* \"#utility.yul\":2109:2127   */\n      add\n        /* \"#utility.yul\":2100:2106   */\n      dup5\n        /* \"#utility.yul\":2056:2128   */\n      tag_57\n      jump\t// in\n    tag_68:\n        /* \"#utility.yul\":1847:2135   */\n      swap5\n      swap4\n      pop\n      pop\n      pop\n      pop\n      jump\t// out\n        /* \"#utility.yul\":2141:2310   */\n    tag_54:\n        /* \"#utility.yul\":2225:2236   */\n      0x00\n        /* \"#utility.yul\":2259:2265   */\n      dup3\n        /* \"#utility.yul\":2254:2257   */\n      dup3\n        /* \"#utility.yul\":2247:2266   */\n      mstore\n        /* \"#utility.yul\":2299:2303   */\n      0x20\n        /* \"#utility.yul\":2294:2297   */\n      dup3\n        /* \"#utility.yul\":2290:2304   */\n      add\n        /* \"#utility.yul\":2275:2304   */\n      swap1\n      pop\n        /* \"#utility.yul\":2237:2310   */\n      swap3\n      swap2\n      pop\n      pop\n      jump\t// out\n        /* \"#utility.yul\":2316:2412   */\n    tag_50:\n        /* \"#utility.yul\":2353:2360   */\n      0x00\n        /* \"#utility.yul\":2382:2406   */\n      tag_71\n        /* \"#utility.yul\":2400:2405   */\n      dup3\n        /* \"#utility.yul\":2382:2406   */\n      tag_72\n      jump\t// in\n    tag_71:\n        /* \"#utility.yul\":2371:2406   */\n      swap1\n      pop\n        /* \"#utility.yul\":2361:2412   */\n      swap2\n      swap1\n      pop\n      jump\t// out\n        /* \"#utility.yul\":2418:2544   */\n    tag_72:\n        /* \"#utility.yul\":2455:2462   */\n      0x00\n        /* \"#utility.yul\":2495:2537   */\n      0xffffffffffffffffffffffffffffffffffffffff\n        /* \"#utility.yul\":2488:2493   */\n      dup3\n        /* \"#utility.yul\":2484:2538   */\n      and\n        /* \"#utility.yul\":2473:2538   */\n      swap1\n      pop\n        /* \"#utility.yul\":2463:2544   */\n      swap2\n      swap1\n      pop\n      jump\t// out\n        /* \"#utility.yul\":2550:2627   */\n    tag_60:\n        /* \"#utility.yul\":2587:2594   */\n      0x00\n        /* \"#utility.yul\":2616:2621   */\n      dup2\n        /* \"#utility.yul\":2605:2621   */\n      swap1\n      pop\n        /* \"#utility.yul\":2595:2627   */\n      swap2\n      swap1\n      pop\n      jump\t// out\n        /* \"#utility.yul\":2633:2870   */\n    tag_56:\n        /* \"#utility.yul\":2773:2807   */\n      0x52656a656374656421204f6e6c7920636f6e7472616374206f776e6572206361\n        /* \"#utility.yul\":2769:2770   */\n      0x00\n        /* \"#utility.yul\":2761:2767   */\n      dup3\n        /* \"#utility.yul\":2757:2771   */\n      add\n        /* \"#utility.yul\":2750:2808   */\n      mstore\n        /* \"#utility.yul\":2842:2862   */\n      0x6e20637265617465206e657720766f7465210000000000000000000000000000\n        /* \"#utility.yul\":2837:2839   */\n      0x20\n        /* \"#utility.yul\":2829:2835   */\n      dup3\n        /* \"#utility.yul\":2825:2840   */\n      add\n        /* \"#utility.yul\":2818:2863   */\n      mstore\n        /* \"#utility.yul\":2739:2870   */\n      pop\n      jump\t// out\n        /* \"#utility.yul\":2876:2998   */\n    tag_43:\n        /* \"#utility.yul\":2949:2973   */\n      tag_77\n        /* \"#utility.yul\":2967:2972   */\n      dup2\n        /* \"#utility.yul\":2949:2973   */\n      tag_60\n      jump\t// in\n    tag_77:\n        /* \"#utility.yul\":2942:2947   */\n      dup2\n        /* \"#utility.yul\":2939:2974   */\n      eq\n        /* \"#utility.yul\":2929:2931   */\n      tag_78\n      jumpi\n        /* \"#utility.yul\":2988:2989   */\n      0x00\n        /* \"#utility.yul\":2985:2986   */\n      dup1\n        /* \"#utility.yul\":2978:2990   */\n      revert\n        /* \"#utility.yul\":2929:2931   */\n    tag_78:\n        /* \"#utility.yul\":2919:2998   */\n      pop\n      jump\t// out\n\n    auxdata: 0xa2646970667358221220b63bc64770ffd1aec5e290afba7a158556c5b46c7f7d22a4bf5fb06f91c1808464736f6c63430008040033\n}\n",
				"bytecode": {
					"linkReferences": {},
					"object": "608060405234801561001057600080fd5b50336000806101000a81548173ffffffffffffffffffffffffffffffffffffffff021916908373ffffffffffffffffffffffffffffffffffffffff1602179055506103ea806100606000396000f3fe6080604052600436106100555760003560e01c80630dc960151461005a5780634d55f046146100715780635df813301461008d578063694ff0f2146100cc5780636e48a035146100e35780638da5cb5b146100ff575b600080fd5b34801561006657600080fd5b5061006f61012a565b005b61008b60048036038101906100869190610225565b61012c565b005b34801561009957600080fd5b506100b460048036038101906100af9190610225565b61012f565b6040516100c3939291906102ca565b60405180910390f35b3480156100d857600080fd5b506100e1610159565b005b6100fd60048036038101906100f89190610225565b6101e9565b005b34801561010b57600080fd5b506101146101ec565b604051610121919061028f565b60405180910390f35b565b50565b60026020528060005260406000206000915090508060000154908060010154908060020154905083565b60008054906101000a900473ffffffffffffffffffffffffffffffffffffffff1673ffffffffffffffffffffffffffffffffffffffff163373ffffffffffffffffffffffffffffffffffffffff16146101e7576040517f08c379a00000000000000000000000000000000000000000000000000000000081526004016101de906102aa565b60405180910390fd5b565b50565b60008054906101000a900473ffffffffffffffffffffffffffffffffffffffff1681565b60008135905061021f8161039d565b92915050565b60006020828403121561023757600080fd5b600061024584828501610210565b91505092915050565b61025781610312565b82525050565b600061026a603283610301565b91506102758261034e565b604082019050919050565b61028981610344565b82525050565b60006020820190506102a4600083018461024e565b92915050565b600060208201905081810360008301526102c38161025d565b9050919050565b60006060820190506102df6000830186610280565b6102ec6020830185610280565b6102f96040830184610280565b949350505050565b600082825260208201905092915050565b600061031d82610324565b9050919050565b600073ffffffffffffffffffffffffffffffffffffffff82169050919050565b6000819050919050565b7f52656a656374656421204f6e6c7920636f6e7472616374206f776e657220636160008201527f6e20637265617465206e657720766f7465210000000000000000000000000000602082015250565b6103a681610344565b81146103b157600080fd5b5056fea2646970667358221220b63bc64770ffd1aec5e290afba7a158556c5b46c7f7d22a4bf5fb06f91c1808464736f6c63430008040033",
					"opcodes": "PUSH1 0x80 PUSH1 0x40 MSTORE CALLVALUE DUP1 ISZERO PUSH2 0x10 JUMPI PUSH1 0x0 DUP1 REVERT JUMPDEST POP CALLER PUSH1 0x0 DUP1 PUSH2 0x100 EXP DUP2 SLOAD DUP2 PUSH20 0xFFFFFFFFFFFFFFFFFFFFFFFFFFFFFFFFFFFFFFFF MUL NOT AND SWAP1 DUP4 PUSH20 0xFFFFFFFFFFFFFFFFFFFFFFFFFFFFFFFFFFFFFFFF AND MUL OR SWAP1 SSTORE POP PUSH2 0x3EA DUP1 PUSH2 0x60 PUSH1 0x0 CODECOPY PUSH1 0x0 RETURN INVALID PUSH1 0x80 PUSH1 0x40 MSTORE PUSH1 0x4 CALLDATASIZE LT PUSH2 0x55 JUMPI PUSH1 0x0 CALLDATALOAD PUSH1 0xE0 SHR DUP1 PUSH4 0xDC96015 EQ PUSH2 0x5A JUMPI DUP1 PUSH4 0x4D55F046 EQ PUSH2 0x71 JUMPI DUP1 PUSH4 0x5DF81330 EQ PUSH2 0x8D JUMPI DUP1 PUSH4 0x694FF0F2 EQ PUSH2 0xCC JUMPI DUP1 PUSH4 0x6E48A035 EQ PUSH2 0xE3 JUMPI DUP1 PUSH4 0x8DA5CB5B EQ PUSH2 0xFF JUMPI JUMPDEST PUSH1 0x0 DUP1 REVERT JUMPDEST CALLVALUE DUP1 ISZERO PUSH2 0x66 JUMPI PUSH1 0x0 DUP1 REVERT JUMPDEST POP PUSH2 0x6F PUSH2 0x12A JUMP JUMPDEST STOP JUMPDEST PUSH2 0x8B PUSH1 0x4 DUP1 CALLDATASIZE SUB DUP2 ADD SWAP1 PUSH2 0x86 SWAP2 SWAP1 PUSH2 0x225 JUMP JUMPDEST PUSH2 0x12C JUMP JUMPDEST STOP JUMPDEST CALLVALUE DUP1 ISZERO PUSH2 0x99 JUMPI PUSH1 0x0 DUP1 REVERT JUMPDEST POP PUSH2 0xB4 PUSH1 0x4 DUP1 CALLDATASIZE SUB DUP2 ADD SWAP1 PUSH2 0xAF SWAP2 SWAP1 PUSH2 0x225 JUMP JUMPDEST PUSH2 0x12F JUMP JUMPDEST PUSH1 0x40 MLOAD PUSH2 0xC3 SWAP4 SWAP3 SWAP2 SWAP1 PUSH2 0x2CA JUMP JUMPDEST PUSH1 0x40 MLOAD DUP1 SWAP2 SUB SWAP1 RETURN JUMPDEST CALLVALUE DUP1 ISZERO PUSH2 0xD8 JUMPI PUSH1 0x0 DUP1 REVERT JUMPDEST POP PUSH2 0xE1 PUSH2 0x159 JUMP JUMPDEST STOP JUMPDEST PUSH2 0xFD PUSH1 0x4 DUP1 CALLDATASIZE SUB DUP2 ADD SWAP1 PUSH2 0xF8 SWAP2 SWAP1 PUSH2 0x225 JUMP JUMPDEST PUSH2 0x1E9 JUMP JUMPDEST STOP JUMPDEST CALLVALUE DUP1 ISZERO PUSH2 0x10B JUMPI PUSH1 0x0 DUP1 REVERT JUMPDEST POP PUSH2 0x114 PUSH2 0x1EC JUMP JUMPDEST PUSH1 0x40 MLOAD PUSH2 0x121 SWAP2 SWAP1 PUSH2 0x28F JUMP JUMPDEST PUSH1 0x40 MLOAD DUP1 SWAP2 SUB SWAP1 RETURN JUMPDEST JUMP JUMPDEST POP JUMP JUMPDEST PUSH1 0x2 PUSH1 0x20 MSTORE DUP1 PUSH1 0x0 MSTORE PUSH1 0x40 PUSH1 0x0 KECCAK256 PUSH1 0x0 SWAP2 POP SWAP1 POP DUP1 PUSH1 0x0 ADD SLOAD SWAP1 DUP1 PUSH1 0x1 ADD SLOAD SWAP1 DUP1 PUSH1 0x2 ADD SLOAD SWAP1 POP DUP4 JUMP JUMPDEST PUSH1 0x0 DUP1 SLOAD SWAP1 PUSH2 0x100 EXP SWAP1 DIV PUSH20 0xFFFFFFFFFFFFFFFFFFFFFFFFFFFFFFFFFFFFFFFF AND PUSH20 0xFFFFFFFFFFFFFFFFFFFFFFFFFFFFFFFFFFFFFFFF AND CALLER PUSH20 0xFFFFFFFFFFFFFFFFFFFFFFFFFFFFFFFFFFFFFFFF AND EQ PUSH2 0x1E7 JUMPI PUSH1 0x40 MLOAD PUSH32 0x8C379A000000000000000000000000000000000000000000000000000000000 DUP2 MSTORE PUSH1 0x4 ADD PUSH2 0x1DE SWAP1 PUSH2 0x2AA JUMP JUMPDEST PUSH1 0x40 MLOAD DUP1 SWAP2 SUB SWAP1 REVERT JUMPDEST JUMP JUMPDEST POP JUMP JUMPDEST PUSH1 0x0 DUP1 SLOAD SWAP1 PUSH2 0x100 EXP SWAP1 DIV PUSH20 0xFFFFFFFFFFFFFFFFFFFFFFFFFFFFFFFFFFFFFFFF AND DUP2 JUMP JUMPDEST PUSH1 0x0 DUP2 CALLDATALOAD SWAP1 POP PUSH2 0x21F DUP2 PUSH2 0x39D JUMP JUMPDEST SWAP3 SWAP2 POP POP JUMP JUMPDEST PUSH1 0x0 PUSH1 0x20 DUP3 DUP5 SUB SLT ISZERO PUSH2 0x237 JUMPI PUSH1 0x0 DUP1 REVERT JUMPDEST PUSH1 0x0 PUSH2 0x245 DUP5 DUP3 DUP6 ADD PUSH2 0x210 JUMP JUMPDEST SWAP2 POP POP SWAP3 SWAP2 POP POP JUMP JUMPDEST PUSH2 0x257 DUP2 PUSH2 0x312 JUMP JUMPDEST DUP3 MSTORE POP POP JUMP JUMPDEST PUSH1 0x0 PUSH2 0x26A PUSH1 0x32 DUP4 PUSH2 0x301 JUMP JUMPDEST SWAP2 POP PUSH2 0x275 DUP3 PUSH2 0x34E JUMP JUMPDEST PUSH1 0x40 DUP3 ADD SWAP1 POP SWAP2 SWAP1 POP JUMP JUMPDEST PUSH2 0x289 DUP2 PUSH2 0x344 JUMP JUMPDEST DUP3 MSTORE POP POP JUMP JUMPDEST PUSH1 0x0 PUSH1 0x20 DUP3 ADD SWAP1 POP PUSH2 0x2A4 PUSH1 0x0 DUP4 ADD DUP5 PUSH2 0x24E JUMP JUMPDEST SWAP3 SWAP2 POP POP JUMP JUMPDEST PUSH1 0x0 PUSH1 0x20 DUP3 ADD SWAP1 POP DUP2 DUP2 SUB PUSH1 0x0 DUP4 ADD MSTORE PUSH2 0x2C3 DUP2 PUSH2 0x25D JUMP JUMPDEST SWAP1 POP SWAP2 SWAP1 POP JUMP JUMPDEST PUSH1 0x0 PUSH1 0x60 DUP3 ADD SWAP1 POP PUSH2 0x2DF PUSH1 0x0 DUP4 ADD DUP7 PUSH2 0x280 JUMP JUMPDEST PUSH2 0x2EC PUSH1 0x20 DUP4 ADD DUP6 PUSH2 0x280 JUMP JUMPDEST PUSH2 0x2F9 PUSH1 0x40 DUP4 ADD DUP5 PUSH2 0x280 JUMP JUMPDEST SWAP5 SWAP4 POP POP POP POP JUMP JUMPDEST PUSH1 0x0 DUP3 DUP3 MSTORE PUSH1 0x20 DUP3 ADD SWAP1 POP SWAP3 SWAP2 POP POP JUMP JUMPDEST PUSH1 0x0 PUSH2 0x31D DUP3 PUSH2 0x324 JUMP JUMPDEST SWAP1 POP SWAP2 SWAP1 POP JUMP JUMPDEST PUSH1 0x0 PUSH20 0xFFFFFFFFFFFFFFFFFFFFFFFFFFFFFFFFFFFFFFFF DUP3 AND SWAP1 POP SWAP2 SWAP1 POP JUMP JUMPDEST PUSH1 0x0 DUP2 SWAP1 POP SWAP2 SWAP1 POP JUMP JUMPDEST PUSH32 0x52656A656374656421204F6E6C7920636F6E7472616374206F776E6572206361 PUSH1 0x0 DUP3 ADD MSTORE PUSH32 0x6E20637265617465206E657720766F7465210000000000000000000000000000 PUSH1 0x20 DUP3 ADD MSTORE POP JUMP JUMPDEST PUSH2 0x3A6 DUP2 PUSH2 0x344 JUMP JUMPDEST DUP2 EQ PUSH2 0x3B1 JUMPI PUSH1 0x0 DUP1 REVERT JUMPDEST POP JUMP INVALID LOG2 PUSH5 0x6970667358 0x22 SLT KECCAK256 0xB6 EXTCODESIZE 0xC6 SELFBALANCE PUSH17 0xFFD1AEC5E290AFBA7A158556C5B46C7F7D 0x22 LOG4 0xBF 0x5F 0xB0 PUSH16 0x91C1808464736F6C6343000804003300 "
				},
				"gasEstimates": {
					"creation": {
						"codeDepositCost": "200400",
						"executionCost": "21111",
						"totalCost": "221511"
					},
					"external": {
						"closeVote(uint256)": "448",
						"createVote()": "1362",
						"getVotes()": "122",
						"owner()": "1299",
						"sendDepo(uint256)": "382",
						"votes(uint256)": "infinite"
					}
				},
				"methodIdentifiers": {
					"closeVote(uint256)": "6e48a035",
					"createVote()": "694ff0f2",
					"getVotes()": "0dc96015",
					"owner()": "8da5cb5b",
					"sendDepo(uint256)": "4d55f046",
					"votes(uint256)": "5df81330"
				}
			},
			"storageLayout": {
				"storage": [
					{
						"astId": 3,
						"contract": "contracts/ballot.sol:Ballot",
						"label": "owner",
						"offset": 0,
						"slot": "0",
						"type": "t_address"
					},
					{
						"astId": 26,
						"contract": "contracts/ballot.sol:Ballot",
						"label": "numVotes",
						"offset": 0,
						"slot": "1",
						"type": "t_uint256"
					},
					{
						"astId": 31,
						"contract": "contracts/ballot.sol:Ballot",
						"label": "votes",
						"offset": 0,
						"slot": "2",
						"type": "t_mapping(t_uint256,t_struct(Vote)24_storage)"
					}
				],
				"types": {
					"t_address": {
						"encoding": "inplace",
						"label": "address",
						"numberOfBytes": "20"
					},
					"t_bool": {
						"encoding": "inplace",
						"label": "bool",
						"numberOfBytes": "1"
					},
					"t_mapping(t_uint256,t_struct(Vote)24_storage)": {
						"encoding": "mapping",
						"key": "t_uint256",
						"label": "mapping(uint256 => struct Ballot.Vote)",
						"numberOfBytes": "32",
						"value": "t_struct(Vote)24_storage"
					},
					"t_mapping(t_uint256,t_struct(Voter)12_storage)": {
						"encoding": "mapping",
						"key": "t_uint256",
						"label": "mapping(uint256 => struct Ballot.Voter)",
						"numberOfBytes": "32",
						"value": "t_struct(Voter)12_storage"
					},
					"t_struct(Vote)24_storage": {
						"encoding": "inplace",
						"label": "struct Ballot.Vote",
						"members": [
							{
								"astId": 14,
								"contract": "contracts/ballot.sol:Ballot",
								"label": "id",
								"offset": 0,
								"slot": "0",
								"type": "t_uint256"
							},
							{
								"astId": 16,
								"contract": "contracts/ballot.sol:Ballot",
								"label": "startTime",
								"offset": 0,
								"slot": "1",
								"type": "t_uint256"
							},
							{
								"astId": 18,
								"contract": "contracts/ballot.sol:Ballot",
								"label": "balance",
								"offset": 0,
								"slot": "2",
								"type": "t_uint256"
							},
							{
								"astId": 23,
								"contract": "contracts/ballot.sol:Ballot",
								"label": "voters",
								"offset": 0,
								"slot": "3",
								"type": "t_mapping(t_uint256,t_struct(Voter)12_storage)"
							}
						],
						"numberOfBytes": "128"
					},
					"t_struct(Voter)12_storage": {
						"encoding": "inplace",
						"label": "struct Ballot.Voter",
						"members": [
							{
								"astId": 5,
								"contract": "contracts/ballot.sol:Ballot",
								"label": "id",
								"offset": 0,
								"slot": "0",
								"type": "t_uint256"
							},
							{
								"astId": 7,
								"contract": "contracts/ballot.sol:Ballot",
								"label": "addr",
								"offset": 0,
								"slot": "1",
								"type": "t_address"
							},
							{
								"astId": 9,
								"contract": "contracts/ballot.sol:Ballot",
								"label": "voted",
								"offset": 20,
								"slot": "1",
								"type": "t_bool"
							},
							{
								"astId": 11,
								"contract": "contracts/ballot.sol:Ballot",
								"label": "voteCount",
								"offset": 0,
								"slot": "2",
								"type": "t_uint256"
							}
						],
						"numberOfBytes": "96"
					},
					"t_uint256": {
						"encoding": "inplace",
						"label": "uint256",
						"numberOfBytes": "32"
					}
				}
			},
			"userdoc": {
				"kind": "user",
				"methods": {},
				"version": 1
			}
		}
	}
}