{
	"contracts/ballot.sol": {
		"Ballot": {
			"abi": [
				{
					"inputs": [],
					"stateMutability": "nonpayable",
					"type": "constructor"
				},
				{
					"inputs": [
						{
							"internalType": "uint256",
							"name": "ID",
							"type": "uint256"
						}
					],
					"name": "closeVote",
					"outputs": [],
					"stateMutability": "payable",
					"type": "function"
				},
				{
					"inputs": [],
					"name": "createVote",
					"outputs": [],
					"stateMutability": "nonpayable",
					"type": "function"
				},
				{
					"inputs": [
						{
							"internalType": "uint256",
							"name": "ID",
							"type": "uint256"
						}
					],
					"name": "getVoters",
					"outputs": [
						{
							"internalType": "uint256[]",
							"name": "",
							"type": "uint256[]"
						}
					],
					"stateMutability": "view",
					"type": "function"
				},
				{
					"inputs": [],
					"name": "getVotes",
					"outputs": [
						{
							"internalType": "uint256[]",
							"name": "",
							"type": "uint256[]"
						}
					],
					"stateMutability": "view",
					"type": "function"
				},
				{
					"inputs": [],
					"name": "owner",
					"outputs": [
						{
							"internalType": "address",
							"name": "",
							"type": "address"
						}
					],
					"stateMutability": "view",
					"type": "function"
				},
				{
					"inputs": [
						{
							"internalType": "uint256",
							"name": "ID",
							"type": "uint256"
						}
					],
					"name": "sendDepo",
					"outputs": [],
					"stateMutability": "payable",
					"type": "function"
				},
				{
					"inputs": [
						{
							"internalType": "uint256",
							"name": "ID1",
							"type": "uint256"
						},
						{
							"internalType": "uint256",
							"name": "ID2",
							"type": "uint256"
						}
					],
					"name": "sendVote",
					"outputs": [],
					"stateMutability": "nonpayable",
					"type": "function"
				},
				{
					"inputs": [
						{
							"internalType": "uint256",
							"name": "",
							"type": "uint256"
						}
					],
					"name": "votes",
					"outputs": [
						{
							"internalType": "uint256",
							"name": "id",
							"type": "uint256"
						},
						{
							"internalType": "uint256",
							"name": "startTime",
							"type": "uint256"
						},
						{
							"internalType": "bool",
							"name": "closed",
							"type": "bool"
						},
						{
							"internalType": "uint256",
							"name": "balance",
							"type": "uint256"
						},
						{
							"internalType": "uint256",
							"name": "numVoters",
							"type": "uint256"
						}
					],
					"stateMutability": "view",
					"type": "function"
				}
			],
			"devdoc": {
				"kind": "dev",
				"methods": {},
				"version": 1
			},
			"evm": {
				"assembly": "    /* \"contracts/ballot.sol\":61:2626  contract Ballot {\r... */\n  mstore(0x40, 0x80)\n    /* \"contracts/ballot.sol\":789:841  constructor () {\r... */\n  callvalue\n  dup1\n  iszero\n  tag_1\n  jumpi\n  0x00\n  dup1\n  revert\ntag_1:\n  pop\n    /* \"contracts/ballot.sol\":823:833  msg.sender */\n  caller\n    /* \"contracts/ballot.sol\":815:820  owner */\n  0x00\n  dup1\n    /* \"contracts/ballot.sol\":815:833  owner = msg.sender */\n  0x0100\n  exp\n  dup2\n  sload\n  dup2\n  0xffffffffffffffffffffffffffffffffffffffff\n  mul\n  not\n  and\n  swap1\n  dup4\n  0xffffffffffffffffffffffffffffffffffffffff\n  and\n  mul\n  or\n  swap1\n  sstore\n  pop\n    /* \"contracts/ballot.sol\":61:2626  contract Ballot {\r... */\n  dataSize(sub_0)\n  dup1\n  dataOffset(sub_0)\n  0x00\n  codecopy\n  0x00\n  return\nstop\n\nsub_0: assembly {\n        /* \"contracts/ballot.sol\":61:2626  contract Ballot {\r... */\n      mstore(0x40, 0x80)\n      jumpi(tag_1, lt(calldatasize, 0x04))\n      shr(0xe0, calldataload(0x00))\n      dup1\n      0x694ff0f2\n      gt\n      tag_10\n      jumpi\n      dup1\n      0x694ff0f2\n      eq\n      tag_6\n      jumpi\n      dup1\n      0x6e48a035\n      eq\n      tag_7\n      jumpi\n      dup1\n      0x86b646f2\n      eq\n      tag_8\n      jumpi\n      dup1\n      0x8da5cb5b\n      eq\n      tag_9\n      jumpi\n      jump(tag_1)\n    tag_10:\n      dup1\n      0x0dc96015\n      eq\n      tag_2\n      jumpi\n      dup1\n      0x291e6777\n      eq\n      tag_3\n      jumpi\n      dup1\n      0x4d55f046\n      eq\n      tag_4\n      jumpi\n      dup1\n      0x5df81330\n      eq\n      tag_5\n      jumpi\n    tag_1:\n      0x00\n      dup1\n      revert\n        /* \"contracts/ballot.sol\":1707:1916  function getVotes () public view returns (uint[] memory) {\r... */\n    tag_2:\n      callvalue\n      dup1\n      iszero\n      tag_11\n      jumpi\n      0x00\n      dup1\n      revert\n    tag_11:\n      pop\n      tag_12\n      tag_13\n      jump\t// in\n    tag_12:\n      mload(0x40)\n      tag_14\n      swap2\n      swap1\n      tag_15\n      jump\t// in\n    tag_14:\n      mload(0x40)\n      dup1\n      swap2\n      sub\n      swap1\n      return\n        /* \"contracts/ballot.sol\":2270:2540  function sendVote (uint ID1, uint ID2) public {\r... */\n    tag_3:\n      callvalue\n      dup1\n      iszero\n      tag_16\n      jumpi\n      0x00\n      dup1\n      revert\n    tag_16:\n      pop\n      tag_17\n      0x04\n      dup1\n      calldatasize\n      sub\n      dup2\n      add\n      swap1\n      tag_18\n      swap2\n      swap1\n      tag_19\n      jump\t// in\n    tag_18:\n      tag_20\n      jump\t// in\n    tag_17:\n      stop\n        /* \"contracts/ballot.sol\":1222:1677  function sendDepo (uint ID) public payable {\r... */\n    tag_4:\n      tag_21\n      0x04\n      dup1\n      calldatasize\n      sub\n      dup2\n      add\n      swap1\n      tag_22\n      swap2\n      swap1\n      tag_23\n      jump\t// in\n    tag_22:\n      tag_24\n      jump\t// in\n    tag_21:\n      stop\n        /* \"contracts/ballot.sol\":711:746  mapping (uint => Vote) public votes */\n    tag_5:\n      callvalue\n      dup1\n      iszero\n      tag_25\n      jumpi\n      0x00\n      dup1\n      revert\n    tag_25:\n      pop\n      tag_26\n      0x04\n      dup1\n      calldatasize\n      sub\n      dup2\n      add\n      swap1\n      tag_27\n      swap2\n      swap1\n      tag_23\n      jump\t// in\n    tag_27:\n      tag_28\n      jump\t// in\n    tag_26:\n      mload(0x40)\n      tag_29\n      swap6\n      swap5\n      swap4\n      swap3\n      swap2\n      swap1\n      tag_30\n      jump\t// in\n    tag_29:\n      mload(0x40)\n      dup1\n      swap2\n      sub\n      swap1\n      return\n        /* \"contracts/ballot.sol\":869:1180  function createVote () public {\r... */\n    tag_6:\n      callvalue\n      dup1\n      iszero\n      tag_31\n      jumpi\n      0x00\n      dup1\n      revert\n    tag_31:\n      pop\n      tag_32\n      tag_33\n      jump\t// in\n    tag_32:\n      stop\n        /* \"contracts/ballot.sol\":2567:2621  function closeVote (uint ID) public payable {\r... */\n    tag_7:\n      tag_34\n      0x04\n      dup1\n      calldatasize\n      sub\n      dup2\n      add\n      swap1\n      tag_35\n      swap2\n      swap1\n      tag_23\n      jump\t// in\n    tag_35:\n      tag_36\n      jump\t// in\n    tag_34:\n      stop\n        /* \"contracts/ballot.sol\":1958:2208  function getVoters (uint ID) public view returns (uint[] memory) {\r... */\n    tag_8:\n      callvalue\n      dup1\n      iszero\n      tag_37\n      jumpi\n      0x00\n      dup1\n      revert\n    tag_37:\n      pop\n      tag_38\n      0x04\n      dup1\n      calldatasize\n      sub\n      dup2\n      add\n      swap1\n      tag_39\n      swap2\n      swap1\n      tag_23\n      jump\t// in\n    tag_39:\n      tag_40\n      jump\t// in\n    tag_38:\n      mload(0x40)\n      tag_41\n      swap2\n      swap1\n      tag_15\n      jump\t// in\n    tag_41:\n      mload(0x40)\n      dup1\n      swap2\n      sub\n      swap1\n      return\n        /* \"contracts/ballot.sol\":86:106  address public owner */\n    tag_9:\n      callvalue\n      dup1\n      iszero\n      tag_42\n      jumpi\n      0x00\n      dup1\n      revert\n    tag_42:\n      pop\n      tag_43\n      tag_44\n      jump\t// in\n    tag_43:\n      mload(0x40)\n      tag_45\n      swap2\n      swap1\n      tag_46\n      jump\t// in\n    tag_45:\n      mload(0x40)\n      dup1\n      swap2\n      sub\n      swap1\n      return\n        /* \"contracts/ballot.sol\":1707:1916  function getVotes () public view returns (uint[] memory) {\r... */\n    tag_13:\n        /* \"contracts/ballot.sol\":1749:1762  uint[] memory */\n      0x60\n        /* \"contracts/ballot.sol\":1775:1792  uint[] memory ret */\n      0x00\n        /* \"contracts/ballot.sol\":1806:1814  numVotes */\n      sload(0x01)\n        /* \"contracts/ballot.sol\":1795:1815  new uint[](numVotes) */\n      0xffffffffffffffff\n      dup2\n      gt\n      iszero\n      tag_48\n      jumpi\n      mstore(0x00, 0x4e487b7100000000000000000000000000000000000000000000000000000000)\n      mstore(0x04, 0x41)\n      revert(0x00, 0x24)\n    tag_48:\n      mload(0x40)\n      swap1\n      dup1\n      dup3\n      mstore\n      dup1\n      0x20\n      mul\n      0x20\n      add\n      dup3\n      add\n      0x40\n      mstore\n      dup1\n      iszero\n      tag_49\n      jumpi\n      dup2\n      0x20\n      add\n      0x20\n      dup3\n      mul\n      dup1\n      calldatasize\n      dup4\n      calldatacopy\n      dup1\n      dup3\n      add\n      swap2\n      pop\n      pop\n      swap1\n      pop\n    tag_49:\n      pop\n        /* \"contracts/ballot.sol\":1775:1815  uint[] memory ret = new uint[](numVotes) */\n      swap1\n      pop\n        /* \"contracts/ballot.sol\":1831:1837  uint i */\n      0x00\n        /* \"contracts/ballot.sol\":1826:1894  for (uint i = 0; i < numVotes; i++) {\r... */\n    tag_50:\n        /* \"contracts/ballot.sol\":1847:1855  numVotes */\n      sload(0x01)\n        /* \"contracts/ballot.sol\":1843:1844  i */\n      dup2\n        /* \"contracts/ballot.sol\":1843:1855  i < numVotes */\n      lt\n        /* \"contracts/ballot.sol\":1826:1894  for (uint i = 0; i < numVotes; i++) {\r... */\n      iszero\n      tag_51\n      jumpi\n        /* \"contracts/ballot.sol\":1877:1882  votes */\n      0x02\n        /* \"contracts/ballot.sol\":1877:1885  votes[i] */\n      0x00\n        /* \"contracts/ballot.sol\":1883:1884  i */\n      dup3\n        /* \"contracts/ballot.sol\":1877:1885  votes[i] */\n      dup2\n      mstore\n      0x20\n      add\n      swap1\n      dup2\n      mstore\n      0x20\n      add\n      0x00\n      keccak256\n        /* \"contracts/ballot.sol\":1877:1888  votes[i].id */\n      0x00\n      add\n      sload\n        /* \"contracts/ballot.sol\":1868:1871  ret */\n      dup3\n        /* \"contracts/ballot.sol\":1872:1873  i */\n      dup3\n        /* \"contracts/ballot.sol\":1868:1874  ret[i] */\n      dup2\n      mload\n      dup2\n      lt\n      tag_53\n      jumpi\n      mstore(0x00, 0x4e487b7100000000000000000000000000000000000000000000000000000000)\n      mstore(0x04, 0x32)\n      revert(0x00, 0x24)\n    tag_53:\n      0x20\n      mul\n      0x20\n      add\n      add\n        /* \"contracts/ballot.sol\":1868:1888  ret[i] = votes[i].id */\n      dup2\n      dup2\n      mstore\n      pop\n      pop\n        /* \"contracts/ballot.sol\":1857:1860  i++ */\n      dup1\n      dup1\n      tag_54\n      swap1\n      tag_55\n      jump\t// in\n    tag_54:\n      swap2\n      pop\n      pop\n        /* \"contracts/ballot.sol\":1826:1894  for (uint i = 0; i < numVotes; i++) {\r... */\n      jump(tag_50)\n    tag_51:\n      pop\n        /* \"contracts/ballot.sol\":1905:1908  ret */\n      dup1\n        /* \"contracts/ballot.sol\":1898:1908  return ret */\n      swap2\n      pop\n      pop\n        /* \"contracts/ballot.sol\":1707:1916  function getVotes () public view returns (uint[] memory) {\r... */\n      swap1\n      jump\t// out\n        /* \"contracts/ballot.sol\":2270:2540  function sendVote (uint ID1, uint ID2) public {\r... */\n    tag_20:\n        /* \"contracts/ballot.sol\":2343:2344  0 */\n      0x00\n        /* \"contracts/ballot.sol\":2336:2339  ID1 */\n      dup3\n        /* \"contracts/ballot.sol\":2336:2344  ID1 >= 0 */\n      lt\n      iszero\n        /* \"contracts/ballot.sol\":2336:2362  ID1 >= 0 && ID1 < numVotes */\n      dup1\n      iszero\n      tag_57\n      jumpi\n      pop\n        /* \"contracts/ballot.sol\":2354:2362  numVotes */\n      sload(0x01)\n        /* \"contracts/ballot.sol\":2348:2351  ID1 */\n      dup3\n        /* \"contracts/ballot.sol\":2348:2362  ID1 < numVotes */\n      lt\n        /* \"contracts/ballot.sol\":2336:2362  ID1 >= 0 && ID1 < numVotes */\n    tag_57:\n        /* \"contracts/ballot.sol\":2327:2398  require (ID1 >= 0 && ID1 < numVotes, \"Rejected! Vote ID out of range!\") */\n      tag_58\n      jumpi\n      mload(0x40)\n      0x08c379a000000000000000000000000000000000000000000000000000000000\n      dup2\n      mstore\n      0x04\n      add\n      tag_59\n      swap1\n      tag_60\n      jump\t// in\n    tag_59:\n      mload(0x40)\n      dup1\n      swap2\n      sub\n      swap1\n      revert\n    tag_58:\n        /* \"contracts/ballot.sol\":2425:2426  0 */\n      0x00\n        /* \"contracts/ballot.sol\":2418:2421  ID2 */\n      dup2\n        /* \"contracts/ballot.sol\":2418:2426  ID2 >= 0 */\n      lt\n      iszero\n        /* \"contracts/ballot.sol\":2418:2444  ID2 >= 0 && ID2 < numVotes */\n      dup1\n      iszero\n      tag_61\n      jumpi\n      pop\n        /* \"contracts/ballot.sol\":2436:2444  numVotes */\n      sload(0x01)\n        /* \"contracts/ballot.sol\":2430:2433  ID2 */\n      dup2\n        /* \"contracts/ballot.sol\":2430:2444  ID2 < numVotes */\n      lt\n        /* \"contracts/ballot.sol\":2418:2444  ID2 >= 0 && ID2 < numVotes */\n    tag_61:\n        /* \"contracts/ballot.sol\":2409:2480  require (ID2 >= 0 && ID2 < numVotes, \"Rejected! Vote ID out of range!\") */\n      tag_62\n      jumpi\n      mload(0x40)\n      0x08c379a000000000000000000000000000000000000000000000000000000000\n      dup2\n      mstore\n      0x04\n      add\n      tag_63\n      swap1\n      tag_60\n      jump\t// in\n    tag_63:\n      mload(0x40)\n      dup1\n      swap2\n      sub\n      swap1\n      revert\n    tag_62:\n        /* \"contracts/ballot.sol\":2270:2540  function sendVote (uint ID1, uint ID2) public {\r... */\n      pop\n      pop\n      jump\t// out\n        /* \"contracts/ballot.sol\":1222:1677  function sendDepo (uint ID) public payable {\r... */\n    tag_24:\n        /* \"contracts/ballot.sol\":1298:1315  10000000000000000 */\n      0x2386f26fc10000\n        /* \"contracts/ballot.sol\":1285:1294  msg.value */\n      callvalue\n        /* \"contracts/ballot.sol\":1285:1315  msg.value == 10000000000000000 */\n      eq\n        /* \"contracts/ballot.sol\":1276:1362  require (msg.value == 10000000000000000, \"Rejected! Send exactly 0.01 ether to vote!\") */\n      tag_65\n      jumpi\n      mload(0x40)\n      0x08c379a000000000000000000000000000000000000000000000000000000000\n      dup2\n      mstore\n      0x04\n      add\n      tag_66\n      swap1\n      tag_67\n      jump\t// in\n    tag_66:\n      mload(0x40)\n      dup1\n      swap2\n      sub\n      swap1\n      revert\n    tag_65:\n        /* \"contracts/ballot.sol\":1399:1409  uint newID */\n      0x00\n        /* \"contracts/ballot.sol\":1412:1417  votes */\n      0x02\n        /* \"contracts/ballot.sol\":1412:1421  votes[ID] */\n      0x00\n        /* \"contracts/ballot.sol\":1418:1420  ID */\n      dup4\n        /* \"contracts/ballot.sol\":1412:1421  votes[ID] */\n      dup2\n      mstore\n      0x20\n      add\n      swap1\n      dup2\n      mstore\n      0x20\n      add\n      0x00\n      keccak256\n        /* \"contracts/ballot.sol\":1412:1431  votes[ID].numVoters */\n      0x04\n      add\n      sload\n        /* \"contracts/ballot.sol\":1399:1431  uint newID = votes[ID].numVoters */\n      swap1\n      pop\n        /* \"contracts/ballot.sol\":1442:1457  Voter storage v */\n      0x00\n        /* \"contracts/ballot.sol\":1460:1465  votes */\n      0x02\n        /* \"contracts/ballot.sol\":1460:1469  votes[ID] */\n      0x00\n        /* \"contracts/ballot.sol\":1466:1468  ID */\n      dup5\n        /* \"contracts/ballot.sol\":1460:1469  votes[ID] */\n      dup2\n      mstore\n      0x20\n      add\n      swap1\n      dup2\n      mstore\n      0x20\n      add\n      0x00\n      keccak256\n        /* \"contracts/ballot.sol\":1460:1476  votes[ID].voters */\n      0x05\n      add\n        /* \"contracts/ballot.sol\":1460:1483  votes[ID].voters[newID] */\n      0x00\n        /* \"contracts/ballot.sol\":1477:1482  newID */\n      dup4\n        /* \"contracts/ballot.sol\":1460:1483  votes[ID].voters[newID] */\n      dup2\n      mstore\n      0x20\n      add\n      swap1\n      dup2\n      mstore\n      0x20\n      add\n      0x00\n      keccak256\n        /* \"contracts/ballot.sol\":1442:1483  Voter storage v = votes[ID].voters[newID] */\n      swap1\n      pop\n        /* \"contracts/ballot.sol\":1501:1506  newID */\n      dup2\n        /* \"contracts/ballot.sol\":1494:1495  v */\n      dup2\n        /* \"contracts/ballot.sol\":1494:1498  v.id */\n      0x00\n      add\n        /* \"contracts/ballot.sol\":1494:1506  v.id = newID */\n      dup2\n      swap1\n      sstore\n      pop\n        /* \"contracts/ballot.sol\":1526:1536  msg.sender */\n      caller\n        /* \"contracts/ballot.sol\":1517:1518  v */\n      dup2\n        /* \"contracts/ballot.sol\":1517:1523  v.addr */\n      0x01\n      add\n      0x00\n        /* \"contracts/ballot.sol\":1517:1536  v.addr = msg.sender */\n      0x0100\n      exp\n      dup2\n      sload\n      dup2\n      0xffffffffffffffffffffffffffffffffffffffff\n      mul\n      not\n      and\n      swap1\n      dup4\n      0xffffffffffffffffffffffffffffffffffffffff\n      and\n      mul\n      or\n      swap1\n      sstore\n      pop\n        /* \"contracts/ballot.sol\":1578:1583  votes */\n      0x02\n        /* \"contracts/ballot.sol\":1578:1587  votes[ID] */\n      0x00\n        /* \"contracts/ballot.sol\":1584:1586  ID */\n      dup5\n        /* \"contracts/ballot.sol\":1578:1587  votes[ID] */\n      dup2\n      mstore\n      0x20\n      add\n      swap1\n      dup2\n      mstore\n      0x20\n      add\n      0x00\n      keccak256\n        /* \"contracts/ballot.sol\":1578:1597  votes[ID].numVoters */\n      0x04\n      add\n      0x00\n        /* \"contracts/ballot.sol\":1578:1599  votes[ID].numVoters++ */\n      dup2\n      sload\n      dup1\n      swap3\n      swap2\n      swap1\n      tag_68\n      swap1\n      tag_55\n      jump\t// in\n    tag_68:\n      swap2\n      swap1\n      pop\n      sstore\n      pop\n        /* \"contracts/ballot.sol\":1660:1669  msg.value */\n      callvalue\n        /* \"contracts/ballot.sol\":1639:1644  votes */\n      0x02\n        /* \"contracts/ballot.sol\":1639:1648  votes[ID] */\n      0x00\n        /* \"contracts/ballot.sol\":1645:1647  ID */\n      dup6\n        /* \"contracts/ballot.sol\":1639:1648  votes[ID] */\n      dup2\n      mstore\n      0x20\n      add\n      swap1\n      dup2\n      mstore\n      0x20\n      add\n      0x00\n      keccak256\n        /* \"contracts/ballot.sol\":1639:1656  votes[ID].balance */\n      0x03\n      add\n      0x00\n        /* \"contracts/ballot.sol\":1639:1669  votes[ID].balance += msg.value */\n      dup3\n      dup3\n      sload\n      tag_69\n      swap2\n      swap1\n      tag_70\n      jump\t// in\n    tag_69:\n      swap3\n      pop\n      pop\n      dup2\n      swap1\n      sstore\n      pop\n        /* \"contracts/ballot.sol\":1222:1677  function sendDepo (uint ID) public payable {\r... */\n      pop\n      pop\n      pop\n      jump\t// out\n        /* \"contracts/ballot.sol\":711:746  mapping (uint => Vote) public votes */\n    tag_28:\n      mstore(0x20, 0x02)\n      dup1\n      0x00\n      mstore\n      keccak256(0x00, 0x40)\n      0x00\n      swap2\n      pop\n      swap1\n      pop\n      dup1\n      0x00\n      add\n      sload\n      swap1\n      dup1\n      0x01\n      add\n      sload\n      swap1\n      dup1\n      0x02\n      add\n      0x00\n      swap1\n      sload\n      swap1\n      0x0100\n      exp\n      swap1\n      div\n      0xff\n      and\n      swap1\n      dup1\n      0x03\n      add\n      sload\n      swap1\n      dup1\n      0x04\n      add\n      sload\n      swap1\n      pop\n      dup6\n      jump\t// out\n        /* \"contracts/ballot.sol\":869:1180  function createVote () public {\r... */\n    tag_33:\n        /* \"contracts/ballot.sol\":933:938  owner */\n      0x00\n      dup1\n      sload\n      swap1\n      0x0100\n      exp\n      swap1\n      div\n      0xffffffffffffffffffffffffffffffffffffffff\n      and\n        /* \"contracts/ballot.sol\":919:938  msg.sender == owner */\n      0xffffffffffffffffffffffffffffffffffffffff\n      and\n        /* \"contracts/ballot.sol\":919:929  msg.sender */\n      caller\n        /* \"contracts/ballot.sol\":919:938  msg.sender == owner */\n      0xffffffffffffffffffffffffffffffffffffffff\n      and\n      eq\n        /* \"contracts/ballot.sol\":910:993  require (msg.sender == owner, \"Rejected! Only contract owner can create new vote!\") */\n      tag_72\n      jumpi\n      mload(0x40)\n      0x08c379a000000000000000000000000000000000000000000000000000000000\n      dup2\n      mstore\n      0x04\n      add\n      tag_73\n      swap1\n      tag_74\n      jump\t// in\n    tag_73:\n      mload(0x40)\n      dup1\n      swap2\n      sub\n      swap1\n      revert\n    tag_72:\n        /* \"contracts/ballot.sol\":1029:1043  Vote storage v */\n      0x00\n        /* \"contracts/ballot.sol\":1046:1051  votes */\n      0x02\n        /* \"contracts/ballot.sol\":1046:1061  votes[numVotes] */\n      0x00\n        /* \"contracts/ballot.sol\":1052:1060  numVotes */\n      sload(0x01)\n        /* \"contracts/ballot.sol\":1046:1061  votes[numVotes] */\n      dup2\n      mstore\n      0x20\n      add\n      swap1\n      dup2\n      mstore\n      0x20\n      add\n      0x00\n      keccak256\n        /* \"contracts/ballot.sol\":1029:1061  Vote storage v = votes[numVotes] */\n      swap1\n      pop\n        /* \"contracts/ballot.sol\":1079:1087  numVotes */\n      sload(0x01)\n        /* \"contracts/ballot.sol\":1072:1073  v */\n      dup2\n        /* \"contracts/ballot.sol\":1072:1076  v.id */\n      0x00\n      add\n        /* \"contracts/ballot.sol\":1072:1087  v.id = numVotes */\n      dup2\n      swap1\n      sstore\n      pop\n        /* \"contracts/ballot.sol\":1112:1127  block.timestamp */\n      timestamp\n        /* \"contracts/ballot.sol\":1098:1099  v */\n      dup2\n        /* \"contracts/ballot.sol\":1098:1109  v.startTime */\n      0x01\n      add\n        /* \"contracts/ballot.sol\":1098:1127  v.startTime = block.timestamp */\n      dup2\n      swap1\n      sstore\n      pop\n        /* \"contracts/ballot.sol\":1162:1170  numVotes */\n      0x01\n      0x00\n        /* \"contracts/ballot.sol\":1162:1172  numVotes++ */\n      dup2\n      sload\n      dup1\n      swap3\n      swap2\n      swap1\n      tag_75\n      swap1\n      tag_55\n      jump\t// in\n    tag_75:\n      swap2\n      swap1\n      pop\n      sstore\n      pop\n        /* \"contracts/ballot.sol\":869:1180  function createVote () public {\r... */\n      pop\n      jump\t// out\n        /* \"contracts/ballot.sol\":2567:2621  function closeVote (uint ID) public payable {\r... */\n    tag_36:\n      pop\n      jump\t// out\n        /* \"contracts/ballot.sol\":1958:2208  function getVoters (uint ID) public view returns (uint[] memory) {\r... */\n    tag_40:\n        /* \"contracts/ballot.sol\":2008:2021  uint[] memory */\n      0x60\n        /* \"contracts/ballot.sol\":2034:2051  uint[] memory ret */\n      0x00\n        /* \"contracts/ballot.sol\":2065:2070  votes */\n      0x02\n        /* \"contracts/ballot.sol\":2065:2074  votes[ID] */\n      0x00\n        /* \"contracts/ballot.sol\":2071:2073  ID */\n      dup5\n        /* \"contracts/ballot.sol\":2065:2074  votes[ID] */\n      dup2\n      mstore\n      0x20\n      add\n      swap1\n      dup2\n      mstore\n      0x20\n      add\n      0x00\n      keccak256\n        /* \"contracts/ballot.sol\":2065:2084  votes[ID].numVoters */\n      0x04\n      add\n      sload\n        /* \"contracts/ballot.sol\":2054:2085  new uint[](votes[ID].numVoters) */\n      0xffffffffffffffff\n      dup2\n      gt\n      iszero\n      tag_78\n      jumpi\n      mstore(0x00, 0x4e487b7100000000000000000000000000000000000000000000000000000000)\n      mstore(0x04, 0x41)\n      revert(0x00, 0x24)\n    tag_78:\n      mload(0x40)\n      swap1\n      dup1\n      dup3\n      mstore\n      dup1\n      0x20\n      mul\n      0x20\n      add\n      dup3\n      add\n      0x40\n      mstore\n      dup1\n      iszero\n      tag_79\n      jumpi\n      dup2\n      0x20\n      add\n      0x20\n      dup3\n      mul\n      dup1\n      calldatasize\n      dup4\n      calldatacopy\n      dup1\n      dup3\n      add\n      swap2\n      pop\n      pop\n      swap1\n      pop\n    tag_79:\n      pop\n        /* \"contracts/ballot.sol\":2034:2085  uint[] memory ret = new uint[](votes[ID].numVoters) */\n      swap1\n      pop\n        /* \"contracts/ballot.sol\":2101:2107  uint i */\n      0x00\n        /* \"contracts/ballot.sol\":2096:2186  for (uint i = 0; i < votes[ID].numVoters; i++) {\r... */\n    tag_80:\n        /* \"contracts/ballot.sol\":2117:2122  votes */\n      0x02\n        /* \"contracts/ballot.sol\":2117:2126  votes[ID] */\n      0x00\n        /* \"contracts/ballot.sol\":2123:2125  ID */\n      dup6\n        /* \"contracts/ballot.sol\":2117:2126  votes[ID] */\n      dup2\n      mstore\n      0x20\n      add\n      swap1\n      dup2\n      mstore\n      0x20\n      add\n      0x00\n      keccak256\n        /* \"contracts/ballot.sol\":2117:2136  votes[ID].numVoters */\n      0x04\n      add\n      sload\n        /* \"contracts/ballot.sol\":2113:2114  i */\n      dup2\n        /* \"contracts/ballot.sol\":2113:2136  i < votes[ID].numVoters */\n      lt\n        /* \"contracts/ballot.sol\":2096:2186  for (uint i = 0; i < votes[ID].numVoters; i++) {\r... */\n      iszero\n      tag_81\n      jumpi\n        /* \"contracts/ballot.sol\":2158:2163  votes */\n      0x02\n        /* \"contracts/ballot.sol\":2158:2167  votes[ID] */\n      0x00\n        /* \"contracts/ballot.sol\":2164:2166  ID */\n      dup6\n        /* \"contracts/ballot.sol\":2158:2167  votes[ID] */\n      dup2\n      mstore\n      0x20\n      add\n      swap1\n      dup2\n      mstore\n      0x20\n      add\n      0x00\n      keccak256\n        /* \"contracts/ballot.sol\":2158:2174  votes[ID].voters */\n      0x05\n      add\n        /* \"contracts/ballot.sol\":2158:2177  votes[ID].voters[i] */\n      0x00\n        /* \"contracts/ballot.sol\":2175:2176  i */\n      dup3\n        /* \"contracts/ballot.sol\":2158:2177  votes[ID].voters[i] */\n      dup2\n      mstore\n      0x20\n      add\n      swap1\n      dup2\n      mstore\n      0x20\n      add\n      0x00\n      keccak256\n        /* \"contracts/ballot.sol\":2158:2180  votes[ID].voters[i].id */\n      0x00\n      add\n      sload\n        /* \"contracts/ballot.sol\":2149:2152  ret */\n      dup3\n        /* \"contracts/ballot.sol\":2153:2154  i */\n      dup3\n        /* \"contracts/ballot.sol\":2149:2155  ret[i] */\n      dup2\n      mload\n      dup2\n      lt\n      tag_83\n      jumpi\n      mstore(0x00, 0x4e487b7100000000000000000000000000000000000000000000000000000000)\n      mstore(0x04, 0x32)\n      revert(0x00, 0x24)\n    tag_83:\n      0x20\n      mul\n      0x20\n      add\n      add\n        /* \"contracts/ballot.sol\":2149:2180  ret[i] = votes[ID].voters[i].id */\n      dup2\n      dup2\n      mstore\n      pop\n      pop\n        /* \"contracts/ballot.sol\":2138:2141  i++ */\n      dup1\n      dup1\n      tag_84\n      swap1\n      tag_55\n      jump\t// in\n    tag_84:\n      swap2\n      pop\n      pop\n        /* \"contracts/ballot.sol\":2096:2186  for (uint i = 0; i < votes[ID].numVoters; i++) {\r... */\n      jump(tag_80)\n    tag_81:\n      pop\n        /* \"contracts/ballot.sol\":2197:2200  ret */\n      dup1\n        /* \"contracts/ballot.sol\":2190:2200  return ret */\n      swap2\n      pop\n      pop\n        /* \"contracts/ballot.sol\":1958:2208  function getVoters (uint ID) public view returns (uint[] memory) {\r... */\n      swap2\n      swap1\n      pop\n      jump\t// out\n        /* \"contracts/ballot.sol\":86:106  address public owner */\n    tag_44:\n      0x00\n      dup1\n      sload\n      swap1\n      0x0100\n      exp\n      swap1\n      div\n      0xffffffffffffffffffffffffffffffffffffffff\n      and\n      dup2\n      jump\t// out\n        /* \"#utility.yul\":7:146   */\n    tag_86:\n        /* \"#utility.yul\":53:58   */\n      0x00\n        /* \"#utility.yul\":91:97   */\n      dup2\n        /* \"#utility.yul\":78:98   */\n      calldataload\n        /* \"#utility.yul\":69:98   */\n      swap1\n      pop\n        /* \"#utility.yul\":107:140   */\n      tag_88\n        /* \"#utility.yul\":134:139   */\n      dup2\n        /* \"#utility.yul\":107:140   */\n      tag_89\n      jump\t// in\n    tag_88:\n        /* \"#utility.yul\":59:146   */\n      swap3\n      swap2\n      pop\n      pop\n      jump\t// out\n        /* \"#utility.yul\":152:414   */\n    tag_23:\n        /* \"#utility.yul\":211:217   */\n      0x00\n        /* \"#utility.yul\":260:262   */\n      0x20\n        /* \"#utility.yul\":248:257   */\n      dup3\n        /* \"#utility.yul\":239:246   */\n      dup5\n        /* \"#utility.yul\":235:258   */\n      sub\n        /* \"#utility.yul\":231:263   */\n      slt\n        /* \"#utility.yul\":228:230   */\n      iszero\n      tag_91\n      jumpi\n        /* \"#utility.yul\":276:277   */\n      0x00\n        /* \"#utility.yul\":273:274   */\n      dup1\n        /* \"#utility.yul\":266:278   */\n      revert\n        /* \"#utility.yul\":228:230   */\n    tag_91:\n        /* \"#utility.yul\":319:320   */\n      0x00\n        /* \"#utility.yul\":344:397   */\n      tag_92\n        /* \"#utility.yul\":389:396   */\n      dup5\n        /* \"#utility.yul\":380:386   */\n      dup3\n        /* \"#utility.yul\":369:378   */\n      dup6\n        /* \"#utility.yul\":365:387   */\n      add\n        /* \"#utility.yul\":344:397   */\n      tag_86\n      jump\t// in\n    tag_92:\n        /* \"#utility.yul\":334:397   */\n      swap2\n      pop\n        /* \"#utility.yul\":290:407   */\n      pop\n        /* \"#utility.yul\":218:414   */\n      swap3\n      swap2\n      pop\n      pop\n      jump\t// out\n        /* \"#utility.yul\":420:827   */\n    tag_19:\n        /* \"#utility.yul\":488:494   */\n      0x00\n        /* \"#utility.yul\":496:502   */\n      dup1\n        /* \"#utility.yul\":545:547   */\n      0x40\n        /* \"#utility.yul\":533:542   */\n      dup4\n        /* \"#utility.yul\":524:531   */\n      dup6\n        /* \"#utility.yul\":520:543   */\n      sub\n        /* \"#utility.yul\":516:548   */\n      slt\n        /* \"#utility.yul\":513:515   */\n      iszero\n      tag_94\n      jumpi\n        /* \"#utility.yul\":561:562   */\n      0x00\n        /* \"#utility.yul\":558:559   */\n      dup1\n        /* \"#utility.yul\":551:563   */\n      revert\n        /* \"#utility.yul\":513:515   */\n    tag_94:\n        /* \"#utility.yul\":604:605   */\n      0x00\n        /* \"#utility.yul\":629:682   */\n      tag_95\n        /* \"#utility.yul\":674:681   */\n      dup6\n        /* \"#utility.yul\":665:671   */\n      dup3\n        /* \"#utility.yul\":654:663   */\n      dup7\n        /* \"#utility.yul\":650:672   */\n      add\n        /* \"#utility.yul\":629:682   */\n      tag_86\n      jump\t// in\n    tag_95:\n        /* \"#utility.yul\":619:682   */\n      swap3\n      pop\n        /* \"#utility.yul\":575:692   */\n      pop\n        /* \"#utility.yul\":731:733   */\n      0x20\n        /* \"#utility.yul\":757:810   */\n      tag_96\n        /* \"#utility.yul\":802:809   */\n      dup6\n        /* \"#utility.yul\":793:799   */\n      dup3\n        /* \"#utility.yul\":782:791   */\n      dup7\n        /* \"#utility.yul\":778:800   */\n      add\n        /* \"#utility.yul\":757:810   */\n      tag_86\n      jump\t// in\n    tag_96:\n        /* \"#utility.yul\":747:810   */\n      swap2\n      pop\n        /* \"#utility.yul\":702:820   */\n      pop\n        /* \"#utility.yul\":503:827   */\n      swap3\n      pop\n      swap3\n      swap1\n      pop\n      jump\t// out\n        /* \"#utility.yul\":833:1012   */\n    tag_97:\n        /* \"#utility.yul\":902:912   */\n      0x00\n        /* \"#utility.yul\":923:969   */\n      tag_99\n        /* \"#utility.yul\":965:968   */\n      dup4\n        /* \"#utility.yul\":957:963   */\n      dup4\n        /* \"#utility.yul\":923:969   */\n      tag_100\n      jump\t// in\n    tag_99:\n        /* \"#utility.yul\":1001:1005   */\n      0x20\n        /* \"#utility.yul\":996:999   */\n      dup4\n        /* \"#utility.yul\":992:1006   */\n      add\n        /* \"#utility.yul\":978:1006   */\n      swap1\n      pop\n        /* \"#utility.yul\":913:1012   */\n      swap3\n      swap2\n      pop\n      pop\n      jump\t// out\n        /* \"#utility.yul\":1018:1136   */\n    tag_101:\n        /* \"#utility.yul\":1105:1129   */\n      tag_103\n        /* \"#utility.yul\":1123:1128   */\n      dup2\n        /* \"#utility.yul\":1105:1129   */\n      tag_104\n      jump\t// in\n    tag_103:\n        /* \"#utility.yul\":1100:1103   */\n      dup3\n        /* \"#utility.yul\":1093:1130   */\n      mstore\n        /* \"#utility.yul\":1083:1136   */\n      pop\n      pop\n      jump\t// out\n        /* \"#utility.yul\":1172:1904   */\n    tag_105:\n        /* \"#utility.yul\":1291:1294   */\n      0x00\n        /* \"#utility.yul\":1320:1374   */\n      tag_107\n        /* \"#utility.yul\":1368:1373   */\n      dup3\n        /* \"#utility.yul\":1320:1374   */\n      tag_108\n      jump\t// in\n    tag_107:\n        /* \"#utility.yul\":1390:1476   */\n      tag_109\n        /* \"#utility.yul\":1469:1475   */\n      dup2\n        /* \"#utility.yul\":1464:1467   */\n      dup6\n        /* \"#utility.yul\":1390:1476   */\n      tag_110\n      jump\t// in\n    tag_109:\n        /* \"#utility.yul\":1383:1476   */\n      swap4\n      pop\n        /* \"#utility.yul\":1500:1556   */\n      tag_111\n        /* \"#utility.yul\":1550:1555   */\n      dup4\n        /* \"#utility.yul\":1500:1556   */\n      tag_112\n      jump\t// in\n    tag_111:\n        /* \"#utility.yul\":1579:1586   */\n      dup1\n        /* \"#utility.yul\":1610:1611   */\n      0x00\n        /* \"#utility.yul\":1595:1879   */\n    tag_113:\n        /* \"#utility.yul\":1620:1626   */\n      dup4\n        /* \"#utility.yul\":1617:1618   */\n      dup2\n        /* \"#utility.yul\":1614:1627   */\n      lt\n        /* \"#utility.yul\":1595:1879   */\n      iszero\n      tag_115\n      jumpi\n        /* \"#utility.yul\":1696:1702   */\n      dup2\n        /* \"#utility.yul\":1690:1703   */\n      mload\n        /* \"#utility.yul\":1723:1786   */\n      tag_116\n        /* \"#utility.yul\":1782:1785   */\n      dup9\n        /* \"#utility.yul\":1767:1780   */\n      dup3\n        /* \"#utility.yul\":1723:1786   */\n      tag_97\n      jump\t// in\n    tag_116:\n        /* \"#utility.yul\":1716:1786   */\n      swap8\n      pop\n        /* \"#utility.yul\":1809:1869   */\n      tag_117\n        /* \"#utility.yul\":1862:1868   */\n      dup4\n        /* \"#utility.yul\":1809:1869   */\n      tag_118\n      jump\t// in\n    tag_117:\n        /* \"#utility.yul\":1799:1869   */\n      swap3\n      pop\n        /* \"#utility.yul\":1655:1879   */\n      pop\n        /* \"#utility.yul\":1642:1643   */\n      0x01\n        /* \"#utility.yul\":1639:1640   */\n      dup2\n        /* \"#utility.yul\":1635:1644   */\n      add\n        /* \"#utility.yul\":1630:1644   */\n      swap1\n      pop\n        /* \"#utility.yul\":1595:1879   */\n      jump(tag_113)\n    tag_115:\n        /* \"#utility.yul\":1599:1613   */\n      pop\n        /* \"#utility.yul\":1895:1898   */\n      dup6\n        /* \"#utility.yul\":1888:1898   */\n      swap4\n      pop\n        /* \"#utility.yul\":1296:1904   */\n      pop\n      pop\n      pop\n      swap3\n      swap2\n      pop\n      pop\n      jump\t// out\n        /* \"#utility.yul\":1910:2019   */\n    tag_119:\n        /* \"#utility.yul\":1991:2012   */\n      tag_121\n        /* \"#utility.yul\":2006:2011   */\n      dup2\n        /* \"#utility.yul\":1991:2012   */\n      tag_122\n      jump\t// in\n    tag_121:\n        /* \"#utility.yul\":1986:1989   */\n      dup3\n        /* \"#utility.yul\":1979:2013   */\n      mstore\n        /* \"#utility.yul\":1969:2019   */\n      pop\n      pop\n      jump\t// out\n        /* \"#utility.yul\":2025:2391   */\n    tag_123:\n        /* \"#utility.yul\":2167:2170   */\n      0x00\n        /* \"#utility.yul\":2188:2255   */\n      tag_125\n        /* \"#utility.yul\":2252:2254   */\n      0x2a\n        /* \"#utility.yul\":2247:2250   */\n      dup4\n        /* \"#utility.yul\":2188:2255   */\n      tag_126\n      jump\t// in\n    tag_125:\n        /* \"#utility.yul\":2181:2255   */\n      swap2\n      pop\n        /* \"#utility.yul\":2264:2357   */\n      tag_127\n        /* \"#utility.yul\":2353:2356   */\n      dup3\n        /* \"#utility.yul\":2264:2357   */\n      tag_128\n      jump\t// in\n    tag_127:\n        /* \"#utility.yul\":2382:2384   */\n      0x40\n        /* \"#utility.yul\":2377:2380   */\n      dup3\n        /* \"#utility.yul\":2373:2385   */\n      add\n        /* \"#utility.yul\":2366:2385   */\n      swap1\n      pop\n        /* \"#utility.yul\":2171:2391   */\n      swap2\n      swap1\n      pop\n      jump\t// out\n        /* \"#utility.yul\":2397:2763   */\n    tag_129:\n        /* \"#utility.yul\":2539:2542   */\n      0x00\n        /* \"#utility.yul\":2560:2627   */\n      tag_131\n        /* \"#utility.yul\":2624:2626   */\n      0x32\n        /* \"#utility.yul\":2619:2622   */\n      dup4\n        /* \"#utility.yul\":2560:2627   */\n      tag_126\n      jump\t// in\n    tag_131:\n        /* \"#utility.yul\":2553:2627   */\n      swap2\n      pop\n        /* \"#utility.yul\":2636:2729   */\n      tag_132\n        /* \"#utility.yul\":2725:2728   */\n      dup3\n        /* \"#utility.yul\":2636:2729   */\n      tag_133\n      jump\t// in\n    tag_132:\n        /* \"#utility.yul\":2754:2756   */\n      0x40\n        /* \"#utility.yul\":2749:2752   */\n      dup3\n        /* \"#utility.yul\":2745:2757   */\n      add\n        /* \"#utility.yul\":2738:2757   */\n      swap1\n      pop\n        /* \"#utility.yul\":2543:2763   */\n      swap2\n      swap1\n      pop\n      jump\t// out\n        /* \"#utility.yul\":2769:3135   */\n    tag_134:\n        /* \"#utility.yul\":2911:2914   */\n      0x00\n        /* \"#utility.yul\":2932:2999   */\n      tag_136\n        /* \"#utility.yul\":2996:2998   */\n      0x1f\n        /* \"#utility.yul\":2991:2994   */\n      dup4\n        /* \"#utility.yul\":2932:2999   */\n      tag_126\n      jump\t// in\n    tag_136:\n        /* \"#utility.yul\":2925:2999   */\n      swap2\n      pop\n        /* \"#utility.yul\":3008:3101   */\n      tag_137\n        /* \"#utility.yul\":3097:3100   */\n      dup3\n        /* \"#utility.yul\":3008:3101   */\n      tag_138\n      jump\t// in\n    tag_137:\n        /* \"#utility.yul\":3126:3128   */\n      0x20\n        /* \"#utility.yul\":3121:3124   */\n      dup3\n        /* \"#utility.yul\":3117:3129   */\n      add\n        /* \"#utility.yul\":3110:3129   */\n      swap1\n      pop\n        /* \"#utility.yul\":2915:3135   */\n      swap2\n      swap1\n      pop\n      jump\t// out\n        /* \"#utility.yul\":3141:3249   */\n    tag_100:\n        /* \"#utility.yul\":3218:3242   */\n      tag_140\n        /* \"#utility.yul\":3236:3241   */\n      dup2\n        /* \"#utility.yul\":3218:3242   */\n      tag_141\n      jump\t// in\n    tag_140:\n        /* \"#utility.yul\":3213:3216   */\n      dup3\n        /* \"#utility.yul\":3206:3243   */\n      mstore\n        /* \"#utility.yul\":3196:3249   */\n      pop\n      pop\n      jump\t// out\n        /* \"#utility.yul\":3255:3373   */\n    tag_142:\n        /* \"#utility.yul\":3342:3366   */\n      tag_144\n        /* \"#utility.yul\":3360:3365   */\n      dup2\n        /* \"#utility.yul\":3342:3366   */\n      tag_141\n      jump\t// in\n    tag_144:\n        /* \"#utility.yul\":3337:3340   */\n      dup3\n        /* \"#utility.yul\":3330:3367   */\n      mstore\n        /* \"#utility.yul\":3320:3373   */\n      pop\n      pop\n      jump\t// out\n        /* \"#utility.yul\":3379:3601   */\n    tag_46:\n        /* \"#utility.yul\":3472:3476   */\n      0x00\n        /* \"#utility.yul\":3510:3512   */\n      0x20\n        /* \"#utility.yul\":3499:3508   */\n      dup3\n        /* \"#utility.yul\":3495:3513   */\n      add\n        /* \"#utility.yul\":3487:3513   */\n      swap1\n      pop\n        /* \"#utility.yul\":3523:3594   */\n      tag_146\n        /* \"#utility.yul\":3591:3592   */\n      0x00\n        /* \"#utility.yul\":3580:3589   */\n      dup4\n        /* \"#utility.yul\":3576:3593   */\n      add\n        /* \"#utility.yul\":3567:3573   */\n      dup5\n        /* \"#utility.yul\":3523:3594   */\n      tag_101\n      jump\t// in\n    tag_146:\n        /* \"#utility.yul\":3477:3601   */\n      swap3\n      swap2\n      pop\n      pop\n      jump\t// out\n        /* \"#utility.yul\":3607:3980   */\n    tag_15:\n        /* \"#utility.yul\":3750:3754   */\n      0x00\n        /* \"#utility.yul\":3788:3790   */\n      0x20\n        /* \"#utility.yul\":3777:3786   */\n      dup3\n        /* \"#utility.yul\":3773:3791   */\n      add\n        /* \"#utility.yul\":3765:3791   */\n      swap1\n      pop\n        /* \"#utility.yul\":3837:3846   */\n      dup2\n        /* \"#utility.yul\":3831:3835   */\n      dup2\n        /* \"#utility.yul\":3827:3847   */\n      sub\n        /* \"#utility.yul\":3823:3824   */\n      0x00\n        /* \"#utility.yul\":3812:3821   */\n      dup4\n        /* \"#utility.yul\":3808:3825   */\n      add\n        /* \"#utility.yul\":3801:3848   */\n      mstore\n        /* \"#utility.yul\":3865:3973   */\n      tag_148\n        /* \"#utility.yul\":3968:3972   */\n      dup2\n        /* \"#utility.yul\":3959:3965   */\n      dup5\n        /* \"#utility.yul\":3865:3973   */\n      tag_105\n      jump\t// in\n    tag_148:\n        /* \"#utility.yul\":3857:3973   */\n      swap1\n      pop\n        /* \"#utility.yul\":3755:3980   */\n      swap3\n      swap2\n      pop\n      pop\n      jump\t// out\n        /* \"#utility.yul\":3986:4405   */\n    tag_67:\n        /* \"#utility.yul\":4152:4156   */\n      0x00\n        /* \"#utility.yul\":4190:4192   */\n      0x20\n        /* \"#utility.yul\":4179:4188   */\n      dup3\n        /* \"#utility.yul\":4175:4193   */\n      add\n        /* \"#utility.yul\":4167:4193   */\n      swap1\n      pop\n        /* \"#utility.yul\":4239:4248   */\n      dup2\n        /* \"#utility.yul\":4233:4237   */\n      dup2\n        /* \"#utility.yul\":4229:4249   */\n      sub\n        /* \"#utility.yul\":4225:4226   */\n      0x00\n        /* \"#utility.yul\":4214:4223   */\n      dup4\n        /* \"#utility.yul\":4210:4227   */\n      add\n        /* \"#utility.yul\":4203:4250   */\n      mstore\n        /* \"#utility.yul\":4267:4398   */\n      tag_150\n        /* \"#utility.yul\":4393:4397   */\n      dup2\n        /* \"#utility.yul\":4267:4398   */\n      tag_123\n      jump\t// in\n    tag_150:\n        /* \"#utility.yul\":4259:4398   */\n      swap1\n      pop\n        /* \"#utility.yul\":4157:4405   */\n      swap2\n      swap1\n      pop\n      jump\t// out\n        /* \"#utility.yul\":4411:4830   */\n    tag_74:\n        /* \"#utility.yul\":4577:4581   */\n      0x00\n        /* \"#utility.yul\":4615:4617   */\n      0x20\n        /* \"#utility.yul\":4604:4613   */\n      dup3\n        /* \"#utility.yul\":4600:4618   */\n      add\n        /* \"#utility.yul\":4592:4618   */\n      swap1\n      pop\n        /* \"#utility.yul\":4664:4673   */\n      dup2\n        /* \"#utility.yul\":4658:4662   */\n      dup2\n        /* \"#utility.yul\":4654:4674   */\n      sub\n        /* \"#utility.yul\":4650:4651   */\n      0x00\n        /* \"#utility.yul\":4639:4648   */\n      dup4\n        /* \"#utility.yul\":4635:4652   */\n      add\n        /* \"#utility.yul\":4628:4675   */\n      mstore\n        /* \"#utility.yul\":4692:4823   */\n      tag_152\n        /* \"#utility.yul\":4818:4822   */\n      dup2\n        /* \"#utility.yul\":4692:4823   */\n      tag_129\n      jump\t// in\n    tag_152:\n        /* \"#utility.yul\":4684:4823   */\n      swap1\n      pop\n        /* \"#utility.yul\":4582:4830   */\n      swap2\n      swap1\n      pop\n      jump\t// out\n        /* \"#utility.yul\":4836:5255   */\n    tag_60:\n        /* \"#utility.yul\":5002:5006   */\n      0x00\n        /* \"#utility.yul\":5040:5042   */\n      0x20\n        /* \"#utility.yul\":5029:5038   */\n      dup3\n        /* \"#utility.yul\":5025:5043   */\n      add\n        /* \"#utility.yul\":5017:5043   */\n      swap1\n      pop\n        /* \"#utility.yul\":5089:5098   */\n      dup2\n        /* \"#utility.yul\":5083:5087   */\n      dup2\n        /* \"#utility.yul\":5079:5099   */\n      sub\n        /* \"#utility.yul\":5075:5076   */\n      0x00\n        /* \"#utility.yul\":5064:5073   */\n      dup4\n        /* \"#utility.yul\":5060:5077   */\n      add\n        /* \"#utility.yul\":5053:5100   */\n      mstore\n        /* \"#utility.yul\":5117:5248   */\n      tag_154\n        /* \"#utility.yul\":5243:5247   */\n      dup2\n        /* \"#utility.yul\":5117:5248   */\n      tag_134\n      jump\t// in\n    tag_154:\n        /* \"#utility.yul\":5109:5248   */\n      swap1\n      pop\n        /* \"#utility.yul\":5007:5255   */\n      swap2\n      swap1\n      pop\n      jump\t// out\n        /* \"#utility.yul\":5261:5913   */\n    tag_30:\n        /* \"#utility.yul\":5460:5464   */\n      0x00\n        /* \"#utility.yul\":5498:5501   */\n      0xa0\n        /* \"#utility.yul\":5487:5496   */\n      dup3\n        /* \"#utility.yul\":5483:5502   */\n      add\n        /* \"#utility.yul\":5475:5502   */\n      swap1\n      pop\n        /* \"#utility.yul\":5512:5583   */\n      tag_156\n        /* \"#utility.yul\":5580:5581   */\n      0x00\n        /* \"#utility.yul\":5569:5578   */\n      dup4\n        /* \"#utility.yul\":5565:5582   */\n      add\n        /* \"#utility.yul\":5556:5562   */\n      dup9\n        /* \"#utility.yul\":5512:5583   */\n      tag_142\n      jump\t// in\n    tag_156:\n        /* \"#utility.yul\":5593:5665   */\n      tag_157\n        /* \"#utility.yul\":5661:5663   */\n      0x20\n        /* \"#utility.yul\":5650:5659   */\n      dup4\n        /* \"#utility.yul\":5646:5664   */\n      add\n        /* \"#utility.yul\":5637:5643   */\n      dup8\n        /* \"#utility.yul\":5593:5665   */\n      tag_142\n      jump\t// in\n    tag_157:\n        /* \"#utility.yul\":5675:5741   */\n      tag_158\n        /* \"#utility.yul\":5737:5739   */\n      0x40\n        /* \"#utility.yul\":5726:5735   */\n      dup4\n        /* \"#utility.yul\":5722:5740   */\n      add\n        /* \"#utility.yul\":5713:5719   */\n      dup7\n        /* \"#utility.yul\":5675:5741   */\n      tag_119\n      jump\t// in\n    tag_158:\n        /* \"#utility.yul\":5751:5823   */\n      tag_159\n        /* \"#utility.yul\":5819:5821   */\n      0x60\n        /* \"#utility.yul\":5808:5817   */\n      dup4\n        /* \"#utility.yul\":5804:5822   */\n      add\n        /* \"#utility.yul\":5795:5801   */\n      dup6\n        /* \"#utility.yul\":5751:5823   */\n      tag_142\n      jump\t// in\n    tag_159:\n        /* \"#utility.yul\":5833:5906   */\n      tag_160\n        /* \"#utility.yul\":5901:5904   */\n      0x80\n        /* \"#utility.yul\":5890:5899   */\n      dup4\n        /* \"#utility.yul\":5886:5905   */\n      add\n        /* \"#utility.yul\":5877:5883   */\n      dup5\n        /* \"#utility.yul\":5833:5906   */\n      tag_142\n      jump\t// in\n    tag_160:\n        /* \"#utility.yul\":5465:5913   */\n      swap7\n      swap6\n      pop\n      pop\n      pop\n      pop\n      pop\n      pop\n      jump\t// out\n        /* \"#utility.yul\":5919:6051   */\n    tag_112:\n        /* \"#utility.yul\":5986:5990   */\n      0x00\n        /* \"#utility.yul\":6009:6012   */\n      dup2\n        /* \"#utility.yul\":6001:6012   */\n      swap1\n      pop\n        /* \"#utility.yul\":6039:6043   */\n      0x20\n        /* \"#utility.yul\":6034:6037   */\n      dup3\n        /* \"#utility.yul\":6030:6044   */\n      add\n        /* \"#utility.yul\":6022:6044   */\n      swap1\n      pop\n        /* \"#utility.yul\":5991:6051   */\n      swap2\n      swap1\n      pop\n      jump\t// out\n        /* \"#utility.yul\":6057:6171   */\n    tag_108:\n        /* \"#utility.yul\":6124:6130   */\n      0x00\n        /* \"#utility.yul\":6158:6163   */\n      dup2\n        /* \"#utility.yul\":6152:6164   */\n      mload\n        /* \"#utility.yul\":6142:6164   */\n      swap1\n      pop\n        /* \"#utility.yul\":6131:6171   */\n      swap2\n      swap1\n      pop\n      jump\t// out\n        /* \"#utility.yul\":6177:6290   */\n    tag_118:\n        /* \"#utility.yul\":6247:6251   */\n      0x00\n        /* \"#utility.yul\":6279:6283   */\n      0x20\n        /* \"#utility.yul\":6274:6277   */\n      dup3\n        /* \"#utility.yul\":6270:6284   */\n      add\n        /* \"#utility.yul\":6262:6284   */\n      swap1\n      pop\n        /* \"#utility.yul\":6252:6290   */\n      swap2\n      swap1\n      pop\n      jump\t// out\n        /* \"#utility.yul\":6296:6480   */\n    tag_110:\n        /* \"#utility.yul\":6395:6406   */\n      0x00\n        /* \"#utility.yul\":6429:6435   */\n      dup3\n        /* \"#utility.yul\":6424:6427   */\n      dup3\n        /* \"#utility.yul\":6417:6436   */\n      mstore\n        /* \"#utility.yul\":6469:6473   */\n      0x20\n        /* \"#utility.yul\":6464:6467   */\n      dup3\n        /* \"#utility.yul\":6460:6474   */\n      add\n        /* \"#utility.yul\":6445:6474   */\n      swap1\n      pop\n        /* \"#utility.yul\":6407:6480   */\n      swap3\n      swap2\n      pop\n      pop\n      jump\t// out\n        /* \"#utility.yul\":6486:6655   */\n    tag_126:\n        /* \"#utility.yul\":6570:6581   */\n      0x00\n        /* \"#utility.yul\":6604:6610   */\n      dup3\n        /* \"#utility.yul\":6599:6602   */\n      dup3\n        /* \"#utility.yul\":6592:6611   */\n      mstore\n        /* \"#utility.yul\":6644:6648   */\n      0x20\n        /* \"#utility.yul\":6639:6642   */\n      dup3\n        /* \"#utility.yul\":6635:6649   */\n      add\n        /* \"#utility.yul\":6620:6649   */\n      swap1\n      pop\n        /* \"#utility.yul\":6582:6655   */\n      swap3\n      swap2\n      pop\n      pop\n      jump\t// out\n        /* \"#utility.yul\":6661:6966   */\n    tag_70:\n        /* \"#utility.yul\":6701:6704   */\n      0x00\n        /* \"#utility.yul\":6720:6740   */\n      tag_167\n        /* \"#utility.yul\":6738:6739   */\n      dup3\n        /* \"#utility.yul\":6720:6740   */\n      tag_141\n      jump\t// in\n    tag_167:\n        /* \"#utility.yul\":6715:6740   */\n      swap2\n      pop\n        /* \"#utility.yul\":6754:6774   */\n      tag_168\n        /* \"#utility.yul\":6772:6773   */\n      dup4\n        /* \"#utility.yul\":6754:6774   */\n      tag_141\n      jump\t// in\n    tag_168:\n        /* \"#utility.yul\":6749:6774   */\n      swap3\n      pop\n        /* \"#utility.yul\":6908:6909   */\n      dup3\n        /* \"#utility.yul\":6840:6906   */\n      0xffffffffffffffffffffffffffffffffffffffffffffffffffffffffffffffff\n        /* \"#utility.yul\":6836:6910   */\n      sub\n        /* \"#utility.yul\":6833:6834   */\n      dup3\n        /* \"#utility.yul\":6830:6911   */\n      gt\n        /* \"#utility.yul\":6827:6829   */\n      iszero\n      tag_169\n      jumpi\n        /* \"#utility.yul\":6914:6932   */\n      tag_170\n      tag_171\n      jump\t// in\n    tag_170:\n        /* \"#utility.yul\":6827:6829   */\n    tag_169:\n        /* \"#utility.yul\":6958:6959   */\n      dup3\n        /* \"#utility.yul\":6955:6956   */\n      dup3\n        /* \"#utility.yul\":6951:6960   */\n      add\n        /* \"#utility.yul\":6944:6960   */\n      swap1\n      pop\n        /* \"#utility.yul\":6705:6966   */\n      swap3\n      swap2\n      pop\n      pop\n      jump\t// out\n        /* \"#utility.yul\":6972:7068   */\n    tag_104:\n        /* \"#utility.yul\":7009:7016   */\n      0x00\n        /* \"#utility.yul\":7038:7062   */\n      tag_173\n        /* \"#utility.yul\":7056:7061   */\n      dup3\n        /* \"#utility.yul\":7038:7062   */\n      tag_174\n      jump\t// in\n    tag_173:\n        /* \"#utility.yul\":7027:7062   */\n      swap1\n      pop\n        /* \"#utility.yul\":7017:7068   */\n      swap2\n      swap1\n      pop\n      jump\t// out\n        /* \"#utility.yul\":7074:7164   */\n    tag_122:\n        /* \"#utility.yul\":7108:7115   */\n      0x00\n        /* \"#utility.yul\":7151:7156   */\n      dup2\n        /* \"#utility.yul\":7144:7157   */\n      iszero\n        /* \"#utility.yul\":7137:7158   */\n      iszero\n        /* \"#utility.yul\":7126:7158   */\n      swap1\n      pop\n        /* \"#utility.yul\":7116:7164   */\n      swap2\n      swap1\n      pop\n      jump\t// out\n        /* \"#utility.yul\":7170:7296   */\n    tag_174:\n        /* \"#utility.yul\":7207:7214   */\n      0x00\n        /* \"#utility.yul\":7247:7289   */\n      0xffffffffffffffffffffffffffffffffffffffff\n        /* \"#utility.yul\":7240:7245   */\n      dup3\n        /* \"#utility.yul\":7236:7290   */\n      and\n        /* \"#utility.yul\":7225:7290   */\n      swap1\n      pop\n        /* \"#utility.yul\":7215:7296   */\n      swap2\n      swap1\n      pop\n      jump\t// out\n        /* \"#utility.yul\":7302:7379   */\n    tag_141:\n        /* \"#utility.yul\":7339:7346   */\n      0x00\n        /* \"#utility.yul\":7368:7373   */\n      dup2\n        /* \"#utility.yul\":7357:7373   */\n      swap1\n      pop\n        /* \"#utility.yul\":7347:7379   */\n      swap2\n      swap1\n      pop\n      jump\t// out\n        /* \"#utility.yul\":7385:7618   */\n    tag_55:\n        /* \"#utility.yul\":7424:7427   */\n      0x00\n        /* \"#utility.yul\":7447:7471   */\n      tag_179\n        /* \"#utility.yul\":7465:7470   */\n      dup3\n        /* \"#utility.yul\":7447:7471   */\n      tag_141\n      jump\t// in\n    tag_179:\n        /* \"#utility.yul\":7438:7471   */\n      swap2\n      pop\n        /* \"#utility.yul\":7493:7559   */\n      0xffffffffffffffffffffffffffffffffffffffffffffffffffffffffffffffff\n        /* \"#utility.yul\":7486:7491   */\n      dup3\n        /* \"#utility.yul\":7483:7560   */\n      eq\n        /* \"#utility.yul\":7480:7482   */\n      iszero\n      tag_180\n      jumpi\n        /* \"#utility.yul\":7563:7581   */\n      tag_181\n      tag_171\n      jump\t// in\n    tag_181:\n        /* \"#utility.yul\":7480:7482   */\n    tag_180:\n        /* \"#utility.yul\":7610:7611   */\n      0x01\n        /* \"#utility.yul\":7603:7608   */\n      dup3\n        /* \"#utility.yul\":7599:7612   */\n      add\n        /* \"#utility.yul\":7592:7612   */\n      swap1\n      pop\n        /* \"#utility.yul\":7428:7618   */\n      swap2\n      swap1\n      pop\n      jump\t// out\n        /* \"#utility.yul\":7624:7804   */\n    tag_171:\n        /* \"#utility.yul\":7672:7749   */\n      0x4e487b7100000000000000000000000000000000000000000000000000000000\n        /* \"#utility.yul\":7669:7670   */\n      0x00\n        /* \"#utility.yul\":7662:7750   */\n      mstore\n        /* \"#utility.yul\":7769:7773   */\n      0x11\n        /* \"#utility.yul\":7766:7767   */\n      0x04\n        /* \"#utility.yul\":7759:7774   */\n      mstore\n        /* \"#utility.yul\":7793:7797   */\n      0x24\n        /* \"#utility.yul\":7790:7791   */\n      0x00\n        /* \"#utility.yul\":7783:7798   */\n      revert\n        /* \"#utility.yul\":7810:8039   */\n    tag_128:\n        /* \"#utility.yul\":7950:7984   */\n      0x52656a6563746564212053656e642065786163746c7920302e30312065746865\n        /* \"#utility.yul\":7946:7947   */\n      0x00\n        /* \"#utility.yul\":7938:7944   */\n      dup3\n        /* \"#utility.yul\":7934:7948   */\n      add\n        /* \"#utility.yul\":7927:7985   */\n      mstore\n        /* \"#utility.yul\":8019:8031   */\n      0x7220746f20766f74652100000000000000000000000000000000000000000000\n        /* \"#utility.yul\":8014:8016   */\n      0x20\n        /* \"#utility.yul\":8006:8012   */\n      dup3\n        /* \"#utility.yul\":8002:8017   */\n      add\n        /* \"#utility.yul\":7995:8032   */\n      mstore\n        /* \"#utility.yul\":7916:8039   */\n      pop\n      jump\t// out\n        /* \"#utility.yul\":8045:8282   */\n    tag_133:\n        /* \"#utility.yul\":8185:8219   */\n      0x52656a656374656421204f6e6c7920636f6e7472616374206f776e6572206361\n        /* \"#utility.yul\":8181:8182   */\n      0x00\n        /* \"#utility.yul\":8173:8179   */\n      dup3\n        /* \"#utility.yul\":8169:8183   */\n      add\n        /* \"#utility.yul\":8162:8220   */\n      mstore\n        /* \"#utility.yul\":8254:8274   */\n      0x6e20637265617465206e657720766f7465210000000000000000000000000000\n        /* \"#utility.yul\":8249:8251   */\n      0x20\n        /* \"#utility.yul\":8241:8247   */\n      dup3\n        /* \"#utility.yul\":8237:8252   */\n      add\n        /* \"#utility.yul\":8230:8275   */\n      mstore\n        /* \"#utility.yul\":8151:8282   */\n      pop\n      jump\t// out\n        /* \"#utility.yul\":8288:8469   */\n    tag_138:\n        /* \"#utility.yul\":8428:8461   */\n      0x52656a65637465642120566f7465204944206f7574206f662072616e67652100\n        /* \"#utility.yul\":8424:8425   */\n      0x00\n        /* \"#utility.yul\":8416:8422   */\n      dup3\n        /* \"#utility.yul\":8412:8426   */\n      add\n        /* \"#utility.yul\":8405:8462   */\n      mstore\n        /* \"#utility.yul\":8394:8469   */\n      pop\n      jump\t// out\n        /* \"#utility.yul\":8475:8597   */\n    tag_89:\n        /* \"#utility.yul\":8548:8572   */\n      tag_187\n        /* \"#utility.yul\":8566:8571   */\n      dup2\n        /* \"#utility.yul\":8548:8572   */\n      tag_141\n      jump\t// in\n    tag_187:\n        /* \"#utility.yul\":8541:8546   */\n      dup2\n        /* \"#utility.yul\":8538:8573   */\n      eq\n        /* \"#utility.yul\":8528:8530   */\n      tag_188\n      jumpi\n        /* \"#utility.yul\":8587:8588   */\n      0x00\n        /* \"#utility.yul\":8584:8585   */\n      dup1\n        /* \"#utility.yul\":8577:8589   */\n      revert\n        /* \"#utility.yul\":8528:8530   */\n    tag_188:\n        /* \"#utility.yul\":8518:8597   */\n      pop\n      jump\t// out\n\n    auxdata: 0xa26469706673582212209c590c469e14d1f0c24f1866fb4de8b9bb682bc741799b0caee27a7e5b17433064736f6c63430008040033\n}\n",
				"bytecode": {
					"linkReferences": {},
					"object": "608060405234801561001057600080fd5b50336000806101000a81548173ffffffffffffffffffffffffffffffffffffffff021916908373ffffffffffffffffffffffffffffffffffffffff160217905550610c18806100606000396000f3fe60806040526004361061007b5760003560e01c8063694ff0f21161004e578063694ff0f2146101315780636e48a0351461014857806386b646f2146101645780638da5cb5b146101a15761007b565b80630dc9601514610080578063291e6777146100ab5780634d55f046146100d45780635df81330146100f0575b600080fd5b34801561008c57600080fd5b506100956101cc565b6040516100a291906108cf565b60405180910390f35b3480156100b757600080fd5b506100d260048036038101906100cd919061075d565b6102c7565b005b6100ee60048036038101906100e99190610734565b61036d565b005b3480156100fc57600080fd5b5061011760048036038101906101129190610734565b6104a6565b604051610128959493929190610951565b60405180910390f35b34801561013d57600080fd5b506101466104e9565b005b610162600480360381019061015d9190610734565b6105bf565b005b34801561017057600080fd5b5061018b60048036038101906101869190610734565b6105c2565b60405161019891906108cf565b60405180910390f35b3480156101ad57600080fd5b506101b66106fb565b6040516101c391906108b4565b60405180910390f35b6060600060015467ffffffffffffffff811115610212577f4e487b7100000000000000000000000000000000000000000000000000000000600052604160045260246000fd5b6040519080825280602002602001820160405280156102405781602001602082028036833780820191505090505b50905060005b6001548110156102bf5760026000828152602001908152602001600020600001548282815181106102a0577f4e487b7100000000000000000000000000000000000000000000000000000000600052603260045260246000fd5b60200260200101818152505080806102b790610a8c565b915050610246565b508091505090565b600082101580156102d9575060015482105b610318576040517f08c379a000000000000000000000000000000000000000000000000000000000815260040161030f90610931565b60405180910390fd5b6000811015801561032a575060015481105b610369576040517f08c379a000000000000000000000000000000000000000000000000000000000815260040161036090610931565b60405180910390fd5b5050565b662386f26fc1000034146103b6576040517f08c379a00000000000000000000000000000000000000000000000000000000081526004016103ad906108f1565b60405180910390fd5b60006002600083815260200190815260200160002060040154905060006002600084815260200190815260200160002060050160008381526020019081526020016000209050818160000181905550338160010160006101000a81548173ffffffffffffffffffffffffffffffffffffffff021916908373ffffffffffffffffffffffffffffffffffffffff16021790555060026000848152602001908152602001600020600401600081548092919061046f90610a8c565b91905055503460026000858152602001908152602001600020600301600082825461049a91906109ee565b92505081905550505050565b60026020528060005260406000206000915090508060000154908060010154908060020160009054906101000a900460ff16908060030154908060040154905085565b60008054906101000a900473ffffffffffffffffffffffffffffffffffffffff1673ffffffffffffffffffffffffffffffffffffffff163373ffffffffffffffffffffffffffffffffffffffff1614610577576040517f08c379a000000000000000000000000000000000000000000000000000000000815260040161056e90610911565b60405180910390fd5b600060026000600154815260200190815260200160002090506001548160000181905550428160010181905550600160008154809291906105b790610a8c565b919050555050565b50565b60606000600260008481526020019081526020016000206004015467ffffffffffffffff81111561061c577f4e487b7100000000000000000000000000000000000000000000000000000000600052604160045260246000fd5b60405190808252806020026020018201604052801561064a5781602001602082028036833780820191505090505b50905060005b60026000858152602001908152602001600020600401548110156106f157600260008581526020019081526020016000206005016000828152602001908152602001600020600001548282815181106106d2577f4e487b7100000000000000000000000000000000000000000000000000000000600052603260045260246000fd5b60200260200101818152505080806106e990610a8c565b915050610650565b5080915050919050565b60008054906101000a900473ffffffffffffffffffffffffffffffffffffffff1681565b60008135905061072e81610bcb565b92915050565b60006020828403121561074657600080fd5b60006107548482850161071f565b91505092915050565b6000806040838503121561077057600080fd5b600061077e8582860161071f565b925050602061078f8582860161071f565b9150509250929050565b60006107a58383610896565b60208301905092915050565b6107ba81610a44565b82525050565b60006107cb826109b4565b6107d581856109cc565b93506107e0836109a4565b8060005b838110156108115781516107f88882610799565b9750610803836109bf565b9250506001810190506107e4565b5085935050505092915050565b61082781610a56565b82525050565b600061083a602a836109dd565b915061084582610b04565b604082019050919050565b600061085d6032836109dd565b915061086882610b53565b604082019050919050565b6000610880601f836109dd565b915061088b82610ba2565b602082019050919050565b61089f81610a82565b82525050565b6108ae81610a82565b82525050565b60006020820190506108c960008301846107b1565b92915050565b600060208201905081810360008301526108e981846107c0565b905092915050565b6000602082019050818103600083015261090a8161082d565b9050919050565b6000602082019050818103600083015261092a81610850565b9050919050565b6000602082019050818103600083015261094a81610873565b9050919050565b600060a08201905061096660008301886108a5565b61097360208301876108a5565b610980604083018661081e565b61098d60608301856108a5565b61099a60808301846108a5565b9695505050505050565b6000819050602082019050919050565b600081519050919050565b6000602082019050919050565b600082825260208201905092915050565b600082825260208201905092915050565b60006109f982610a82565b9150610a0483610a82565b9250827fffffffffffffffffffffffffffffffffffffffffffffffffffffffffffffffff03821115610a3957610a38610ad5565b5b828201905092915050565b6000610a4f82610a62565b9050919050565b60008115159050919050565b600073ffffffffffffffffffffffffffffffffffffffff82169050919050565b6000819050919050565b6000610a9782610a82565b91507fffffffffffffffffffffffffffffffffffffffffffffffffffffffffffffffff821415610aca57610ac9610ad5565b5b600182019050919050565b7f4e487b7100000000000000000000000000000000000000000000000000000000600052601160045260246000fd5b7f52656a6563746564212053656e642065786163746c7920302e3031206574686560008201527f7220746f20766f74652100000000000000000000000000000000000000000000602082015250565b7f52656a656374656421204f6e6c7920636f6e7472616374206f776e657220636160008201527f6e20637265617465206e657720766f7465210000000000000000000000000000602082015250565b7f52656a65637465642120566f7465204944206f7574206f662072616e67652100600082015250565b610bd481610a82565b8114610bdf57600080fd5b5056fea26469706673582212209c590c469e14d1f0c24f1866fb4de8b9bb682bc741799b0caee27a7e5b17433064736f6c63430008040033",
					"opcodes": "PUSH1 0x80 PUSH1 0x40 MSTORE CALLVALUE DUP1 ISZERO PUSH2 0x10 JUMPI PUSH1 0x0 DUP1 REVERT JUMPDEST POP CALLER PUSH1 0x0 DUP1 PUSH2 0x100 EXP DUP2 SLOAD DUP2 PUSH20 0xFFFFFFFFFFFFFFFFFFFFFFFFFFFFFFFFFFFFFFFF MUL NOT AND SWAP1 DUP4 PUSH20 0xFFFFFFFFFFFFFFFFFFFFFFFFFFFFFFFFFFFFFFFF AND MUL OR SWAP1 SSTORE POP PUSH2 0xC18 DUP1 PUSH2 0x60 PUSH1 0x0 CODECOPY PUSH1 0x0 RETURN INVALID PUSH1 0x80 PUSH1 0x40 MSTORE PUSH1 0x4 CALLDATASIZE LT PUSH2 0x7B JUMPI PUSH1 0x0 CALLDATALOAD PUSH1 0xE0 SHR DUP1 PUSH4 0x694FF0F2 GT PUSH2 0x4E JUMPI DUP1 PUSH4 0x694FF0F2 EQ PUSH2 0x131 JUMPI DUP1 PUSH4 0x6E48A035 EQ PUSH2 0x148 JUMPI DUP1 PUSH4 0x86B646F2 EQ PUSH2 0x164 JUMPI DUP1 PUSH4 0x8DA5CB5B EQ PUSH2 0x1A1 JUMPI PUSH2 0x7B JUMP JUMPDEST DUP1 PUSH4 0xDC96015 EQ PUSH2 0x80 JUMPI DUP1 PUSH4 0x291E6777 EQ PUSH2 0xAB JUMPI DUP1 PUSH4 0x4D55F046 EQ PUSH2 0xD4 JUMPI DUP1 PUSH4 0x5DF81330 EQ PUSH2 0xF0 JUMPI JUMPDEST PUSH1 0x0 DUP1 REVERT JUMPDEST CALLVALUE DUP1 ISZERO PUSH2 0x8C JUMPI PUSH1 0x0 DUP1 REVERT JUMPDEST POP PUSH2 0x95 PUSH2 0x1CC JUMP JUMPDEST PUSH1 0x40 MLOAD PUSH2 0xA2 SWAP2 SWAP1 PUSH2 0x8CF JUMP JUMPDEST PUSH1 0x40 MLOAD DUP1 SWAP2 SUB SWAP1 RETURN JUMPDEST CALLVALUE DUP1 ISZERO PUSH2 0xB7 JUMPI PUSH1 0x0 DUP1 REVERT JUMPDEST POP PUSH2 0xD2 PUSH1 0x4 DUP1 CALLDATASIZE SUB DUP2 ADD SWAP1 PUSH2 0xCD SWAP2 SWAP1 PUSH2 0x75D JUMP JUMPDEST PUSH2 0x2C7 JUMP JUMPDEST STOP JUMPDEST PUSH2 0xEE PUSH1 0x4 DUP1 CALLDATASIZE SUB DUP2 ADD SWAP1 PUSH2 0xE9 SWAP2 SWAP1 PUSH2 0x734 JUMP JUMPDEST PUSH2 0x36D JUMP JUMPDEST STOP JUMPDEST CALLVALUE DUP1 ISZERO PUSH2 0xFC JUMPI PUSH1 0x0 DUP1 REVERT JUMPDEST POP PUSH2 0x117 PUSH1 0x4 DUP1 CALLDATASIZE SUB DUP2 ADD SWAP1 PUSH2 0x112 SWAP2 SWAP1 PUSH2 0x734 JUMP JUMPDEST PUSH2 0x4A6 JUMP JUMPDEST PUSH1 0x40 MLOAD PUSH2 0x128 SWAP6 SWAP5 SWAP4 SWAP3 SWAP2 SWAP1 PUSH2 0x951 JUMP JUMPDEST PUSH1 0x40 MLOAD DUP1 SWAP2 SUB SWAP1 RETURN JUMPDEST CALLVALUE DUP1 ISZERO PUSH2 0x13D JUMPI PUSH1 0x0 DUP1 REVERT JUMPDEST POP PUSH2 0x146 PUSH2 0x4E9 JUMP JUMPDEST STOP JUMPDEST PUSH2 0x162 PUSH1 0x4 DUP1 CALLDATASIZE SUB DUP2 ADD SWAP1 PUSH2 0x15D SWAP2 SWAP1 PUSH2 0x734 JUMP JUMPDEST PUSH2 0x5BF JUMP JUMPDEST STOP JUMPDEST CALLVALUE DUP1 ISZERO PUSH2 0x170 JUMPI PUSH1 0x0 DUP1 REVERT JUMPDEST POP PUSH2 0x18B PUSH1 0x4 DUP1 CALLDATASIZE SUB DUP2 ADD SWAP1 PUSH2 0x186 SWAP2 SWAP1 PUSH2 0x734 JUMP JUMPDEST PUSH2 0x5C2 JUMP JUMPDEST PUSH1 0x40 MLOAD PUSH2 0x198 SWAP2 SWAP1 PUSH2 0x8CF JUMP JUMPDEST PUSH1 0x40 MLOAD DUP1 SWAP2 SUB SWAP1 RETURN JUMPDEST CALLVALUE DUP1 ISZERO PUSH2 0x1AD JUMPI PUSH1 0x0 DUP1 REVERT JUMPDEST POP PUSH2 0x1B6 PUSH2 0x6FB JUMP JUMPDEST PUSH1 0x40 MLOAD PUSH2 0x1C3 SWAP2 SWAP1 PUSH2 0x8B4 JUMP JUMPDEST PUSH1 0x40 MLOAD DUP1 SWAP2 SUB SWAP1 RETURN JUMPDEST PUSH1 0x60 PUSH1 0x0 PUSH1 0x1 SLOAD PUSH8 0xFFFFFFFFFFFFFFFF DUP2 GT ISZERO PUSH2 0x212 JUMPI PUSH32 0x4E487B7100000000000000000000000000000000000000000000000000000000 PUSH1 0x0 MSTORE PUSH1 0x41 PUSH1 0x4 MSTORE PUSH1 0x24 PUSH1 0x0 REVERT JUMPDEST PUSH1 0x40 MLOAD SWAP1 DUP1 DUP3 MSTORE DUP1 PUSH1 0x20 MUL PUSH1 0x20 ADD DUP3 ADD PUSH1 0x40 MSTORE DUP1 ISZERO PUSH2 0x240 JUMPI DUP2 PUSH1 0x20 ADD PUSH1 0x20 DUP3 MUL DUP1 CALLDATASIZE DUP4 CALLDATACOPY DUP1 DUP3 ADD SWAP2 POP POP SWAP1 POP JUMPDEST POP SWAP1 POP PUSH1 0x0 JUMPDEST PUSH1 0x1 SLOAD DUP2 LT ISZERO PUSH2 0x2BF JUMPI PUSH1 0x2 PUSH1 0x0 DUP3 DUP2 MSTORE PUSH1 0x20 ADD SWAP1 DUP2 MSTORE PUSH1 0x20 ADD PUSH1 0x0 KECCAK256 PUSH1 0x0 ADD SLOAD DUP3 DUP3 DUP2 MLOAD DUP2 LT PUSH2 0x2A0 JUMPI PUSH32 0x4E487B7100000000000000000000000000000000000000000000000000000000 PUSH1 0x0 MSTORE PUSH1 0x32 PUSH1 0x4 MSTORE PUSH1 0x24 PUSH1 0x0 REVERT JUMPDEST PUSH1 0x20 MUL PUSH1 0x20 ADD ADD DUP2 DUP2 MSTORE POP POP DUP1 DUP1 PUSH2 0x2B7 SWAP1 PUSH2 0xA8C JUMP JUMPDEST SWAP2 POP POP PUSH2 0x246 JUMP JUMPDEST POP DUP1 SWAP2 POP POP SWAP1 JUMP JUMPDEST PUSH1 0x0 DUP3 LT ISZERO DUP1 ISZERO PUSH2 0x2D9 JUMPI POP PUSH1 0x1 SLOAD DUP3 LT JUMPDEST PUSH2 0x318 JUMPI PUSH1 0x40 MLOAD PUSH32 0x8C379A000000000000000000000000000000000000000000000000000000000 DUP2 MSTORE PUSH1 0x4 ADD PUSH2 0x30F SWAP1 PUSH2 0x931 JUMP JUMPDEST PUSH1 0x40 MLOAD DUP1 SWAP2 SUB SWAP1 REVERT JUMPDEST PUSH1 0x0 DUP2 LT ISZERO DUP1 ISZERO PUSH2 0x32A JUMPI POP PUSH1 0x1 SLOAD DUP2 LT JUMPDEST PUSH2 0x369 JUMPI PUSH1 0x40 MLOAD PUSH32 0x8C379A000000000000000000000000000000000000000000000000000000000 DUP2 MSTORE PUSH1 0x4 ADD PUSH2 0x360 SWAP1 PUSH2 0x931 JUMP JUMPDEST PUSH1 0x40 MLOAD DUP1 SWAP2 SUB SWAP1 REVERT JUMPDEST POP POP JUMP JUMPDEST PUSH7 0x2386F26FC10000 CALLVALUE EQ PUSH2 0x3B6 JUMPI PUSH1 0x40 MLOAD PUSH32 0x8C379A000000000000000000000000000000000000000000000000000000000 DUP2 MSTORE PUSH1 0x4 ADD PUSH2 0x3AD SWAP1 PUSH2 0x8F1 JUMP JUMPDEST PUSH1 0x40 MLOAD DUP1 SWAP2 SUB SWAP1 REVERT JUMPDEST PUSH1 0x0 PUSH1 0x2 PUSH1 0x0 DUP4 DUP2 MSTORE PUSH1 0x20 ADD SWAP1 DUP2 MSTORE PUSH1 0x20 ADD PUSH1 0x0 KECCAK256 PUSH1 0x4 ADD SLOAD SWAP1 POP PUSH1 0x0 PUSH1 0x2 PUSH1 0x0 DUP5 DUP2 MSTORE PUSH1 0x20 ADD SWAP1 DUP2 MSTORE PUSH1 0x20 ADD PUSH1 0x0 KECCAK256 PUSH1 0x5 ADD PUSH1 0x0 DUP4 DUP2 MSTORE PUSH1 0x20 ADD SWAP1 DUP2 MSTORE PUSH1 0x20 ADD PUSH1 0x0 KECCAK256 SWAP1 POP DUP2 DUP2 PUSH1 0x0 ADD DUP2 SWAP1 SSTORE POP CALLER DUP2 PUSH1 0x1 ADD PUSH1 0x0 PUSH2 0x100 EXP DUP2 SLOAD DUP2 PUSH20 0xFFFFFFFFFFFFFFFFFFFFFFFFFFFFFFFFFFFFFFFF MUL NOT AND SWAP1 DUP4 PUSH20 0xFFFFFFFFFFFFFFFFFFFFFFFFFFFFFFFFFFFFFFFF AND MUL OR SWAP1 SSTORE POP PUSH1 0x2 PUSH1 0x0 DUP5 DUP2 MSTORE PUSH1 0x20 ADD SWAP1 DUP2 MSTORE PUSH1 0x20 ADD PUSH1 0x0 KECCAK256 PUSH1 0x4 ADD PUSH1 0x0 DUP2 SLOAD DUP1 SWAP3 SWAP2 SWAP1 PUSH2 0x46F SWAP1 PUSH2 0xA8C JUMP JUMPDEST SWAP2 SWAP1 POP SSTORE POP CALLVALUE PUSH1 0x2 PUSH1 0x0 DUP6 DUP2 MSTORE PUSH1 0x20 ADD SWAP1 DUP2 MSTORE PUSH1 0x20 ADD PUSH1 0x0 KECCAK256 PUSH1 0x3 ADD PUSH1 0x0 DUP3 DUP3 SLOAD PUSH2 0x49A SWAP2 SWAP1 PUSH2 0x9EE JUMP JUMPDEST SWAP3 POP POP DUP2 SWAP1 SSTORE POP POP POP POP JUMP JUMPDEST PUSH1 0x2 PUSH1 0x20 MSTORE DUP1 PUSH1 0x0 MSTORE PUSH1 0x40 PUSH1 0x0 KECCAK256 PUSH1 0x0 SWAP2 POP SWAP1 POP DUP1 PUSH1 0x0 ADD SLOAD SWAP1 DUP1 PUSH1 0x1 ADD SLOAD SWAP1 DUP1 PUSH1 0x2 ADD PUSH1 0x0 SWAP1 SLOAD SWAP1 PUSH2 0x100 EXP SWAP1 DIV PUSH1 0xFF AND SWAP1 DUP1 PUSH1 0x3 ADD SLOAD SWAP1 DUP1 PUSH1 0x4 ADD SLOAD SWAP1 POP DUP6 JUMP JUMPDEST PUSH1 0x0 DUP1 SLOAD SWAP1 PUSH2 0x100 EXP SWAP1 DIV PUSH20 0xFFFFFFFFFFFFFFFFFFFFFFFFFFFFFFFFFFFFFFFF AND PUSH20 0xFFFFFFFFFFFFFFFFFFFFFFFFFFFFFFFFFFFFFFFF AND CALLER PUSH20 0xFFFFFFFFFFFFFFFFFFFFFFFFFFFFFFFFFFFFFFFF AND EQ PUSH2 0x577 JUMPI PUSH1 0x40 MLOAD PUSH32 0x8C379A000000000000000000000000000000000000000000000000000000000 DUP2 MSTORE PUSH1 0x4 ADD PUSH2 0x56E SWAP1 PUSH2 0x911 JUMP JUMPDEST PUSH1 0x40 MLOAD DUP1 SWAP2 SUB SWAP1 REVERT JUMPDEST PUSH1 0x0 PUSH1 0x2 PUSH1 0x0 PUSH1 0x1 SLOAD DUP2 MSTORE PUSH1 0x20 ADD SWAP1 DUP2 MSTORE PUSH1 0x20 ADD PUSH1 0x0 KECCAK256 SWAP1 POP PUSH1 0x1 SLOAD DUP2 PUSH1 0x0 ADD DUP2 SWAP1 SSTORE POP TIMESTAMP DUP2 PUSH1 0x1 ADD DUP2 SWAP1 SSTORE POP PUSH1 0x1 PUSH1 0x0 DUP2 SLOAD DUP1 SWAP3 SWAP2 SWAP1 PUSH2 0x5B7 SWAP1 PUSH2 0xA8C JUMP JUMPDEST SWAP2 SWAP1 POP SSTORE POP POP JUMP JUMPDEST POP JUMP JUMPDEST PUSH1 0x60 PUSH1 0x0 PUSH1 0x2 PUSH1 0x0 DUP5 DUP2 MSTORE PUSH1 0x20 ADD SWAP1 DUP2 MSTORE PUSH1 0x20 ADD PUSH1 0x0 KECCAK256 PUSH1 0x4 ADD SLOAD PUSH8 0xFFFFFFFFFFFFFFFF DUP2 GT ISZERO PUSH2 0x61C JUMPI PUSH32 0x4E487B7100000000000000000000000000000000000000000000000000000000 PUSH1 0x0 MSTORE PUSH1 0x41 PUSH1 0x4 MSTORE PUSH1 0x24 PUSH1 0x0 REVERT JUMPDEST PUSH1 0x40 MLOAD SWAP1 DUP1 DUP3 MSTORE DUP1 PUSH1 0x20 MUL PUSH1 0x20 ADD DUP3 ADD PUSH1 0x40 MSTORE DUP1 ISZERO PUSH2 0x64A JUMPI DUP2 PUSH1 0x20 ADD PUSH1 0x20 DUP3 MUL DUP1 CALLDATASIZE DUP4 CALLDATACOPY DUP1 DUP3 ADD SWAP2 POP POP SWAP1 POP JUMPDEST POP SWAP1 POP PUSH1 0x0 JUMPDEST PUSH1 0x2 PUSH1 0x0 DUP6 DUP2 MSTORE PUSH1 0x20 ADD SWAP1 DUP2 MSTORE PUSH1 0x20 ADD PUSH1 0x0 KECCAK256 PUSH1 0x4 ADD SLOAD DUP2 LT ISZERO PUSH2 0x6F1 JUMPI PUSH1 0x2 PUSH1 0x0 DUP6 DUP2 MSTORE PUSH1 0x20 ADD SWAP1 DUP2 MSTORE PUSH1 0x20 ADD PUSH1 0x0 KECCAK256 PUSH1 0x5 ADD PUSH1 0x0 DUP3 DUP2 MSTORE PUSH1 0x20 ADD SWAP1 DUP2 MSTORE PUSH1 0x20 ADD PUSH1 0x0 KECCAK256 PUSH1 0x0 ADD SLOAD DUP3 DUP3 DUP2 MLOAD DUP2 LT PUSH2 0x6D2 JUMPI PUSH32 0x4E487B7100000000000000000000000000000000000000000000000000000000 PUSH1 0x0 MSTORE PUSH1 0x32 PUSH1 0x4 MSTORE PUSH1 0x24 PUSH1 0x0 REVERT JUMPDEST PUSH1 0x20 MUL PUSH1 0x20 ADD ADD DUP2 DUP2 MSTORE POP POP DUP1 DUP1 PUSH2 0x6E9 SWAP1 PUSH2 0xA8C JUMP JUMPDEST SWAP2 POP POP PUSH2 0x650 JUMP JUMPDEST POP DUP1 SWAP2 POP POP SWAP2 SWAP1 POP JUMP JUMPDEST PUSH1 0x0 DUP1 SLOAD SWAP1 PUSH2 0x100 EXP SWAP1 DIV PUSH20 0xFFFFFFFFFFFFFFFFFFFFFFFFFFFFFFFFFFFFFFFF AND DUP2 JUMP JUMPDEST PUSH1 0x0 DUP2 CALLDATALOAD SWAP1 POP PUSH2 0x72E DUP2 PUSH2 0xBCB JUMP JUMPDEST SWAP3 SWAP2 POP POP JUMP JUMPDEST PUSH1 0x0 PUSH1 0x20 DUP3 DUP5 SUB SLT ISZERO PUSH2 0x746 JUMPI PUSH1 0x0 DUP1 REVERT JUMPDEST PUSH1 0x0 PUSH2 0x754 DUP5 DUP3 DUP6 ADD PUSH2 0x71F JUMP JUMPDEST SWAP2 POP POP SWAP3 SWAP2 POP POP JUMP JUMPDEST PUSH1 0x0 DUP1 PUSH1 0x40 DUP4 DUP6 SUB SLT ISZERO PUSH2 0x770 JUMPI PUSH1 0x0 DUP1 REVERT JUMPDEST PUSH1 0x0 PUSH2 0x77E DUP6 DUP3 DUP7 ADD PUSH2 0x71F JUMP JUMPDEST SWAP3 POP POP PUSH1 0x20 PUSH2 0x78F DUP6 DUP3 DUP7 ADD PUSH2 0x71F JUMP JUMPDEST SWAP2 POP POP SWAP3 POP SWAP3 SWAP1 POP JUMP JUMPDEST PUSH1 0x0 PUSH2 0x7A5 DUP4 DUP4 PUSH2 0x896 JUMP JUMPDEST PUSH1 0x20 DUP4 ADD SWAP1 POP SWAP3 SWAP2 POP POP JUMP JUMPDEST PUSH2 0x7BA DUP2 PUSH2 0xA44 JUMP JUMPDEST DUP3 MSTORE POP POP JUMP JUMPDEST PUSH1 0x0 PUSH2 0x7CB DUP3 PUSH2 0x9B4 JUMP JUMPDEST PUSH2 0x7D5 DUP2 DUP6 PUSH2 0x9CC JUMP JUMPDEST SWAP4 POP PUSH2 0x7E0 DUP4 PUSH2 0x9A4 JUMP JUMPDEST DUP1 PUSH1 0x0 JUMPDEST DUP4 DUP2 LT ISZERO PUSH2 0x811 JUMPI DUP2 MLOAD PUSH2 0x7F8 DUP9 DUP3 PUSH2 0x799 JUMP JUMPDEST SWAP8 POP PUSH2 0x803 DUP4 PUSH2 0x9BF JUMP JUMPDEST SWAP3 POP POP PUSH1 0x1 DUP2 ADD SWAP1 POP PUSH2 0x7E4 JUMP JUMPDEST POP DUP6 SWAP4 POP POP POP POP SWAP3 SWAP2 POP POP JUMP JUMPDEST PUSH2 0x827 DUP2 PUSH2 0xA56 JUMP JUMPDEST DUP3 MSTORE POP POP JUMP JUMPDEST PUSH1 0x0 PUSH2 0x83A PUSH1 0x2A DUP4 PUSH2 0x9DD JUMP JUMPDEST SWAP2 POP PUSH2 0x845 DUP3 PUSH2 0xB04 JUMP JUMPDEST PUSH1 0x40 DUP3 ADD SWAP1 POP SWAP2 SWAP1 POP JUMP JUMPDEST PUSH1 0x0 PUSH2 0x85D PUSH1 0x32 DUP4 PUSH2 0x9DD JUMP JUMPDEST SWAP2 POP PUSH2 0x868 DUP3 PUSH2 0xB53 JUMP JUMPDEST PUSH1 0x40 DUP3 ADD SWAP1 POP SWAP2 SWAP1 POP JUMP JUMPDEST PUSH1 0x0 PUSH2 0x880 PUSH1 0x1F DUP4 PUSH2 0x9DD JUMP JUMPDEST SWAP2 POP PUSH2 0x88B DUP3 PUSH2 0xBA2 JUMP JUMPDEST PUSH1 0x20 DUP3 ADD SWAP1 POP SWAP2 SWAP1 POP JUMP JUMPDEST PUSH2 0x89F DUP2 PUSH2 0xA82 JUMP JUMPDEST DUP3 MSTORE POP POP JUMP JUMPDEST PUSH2 0x8AE DUP2 PUSH2 0xA82 JUMP JUMPDEST DUP3 MSTORE POP POP JUMP JUMPDEST PUSH1 0x0 PUSH1 0x20 DUP3 ADD SWAP1 POP PUSH2 0x8C9 PUSH1 0x0 DUP4 ADD DUP5 PUSH2 0x7B1 JUMP JUMPDEST SWAP3 SWAP2 POP POP JUMP JUMPDEST PUSH1 0x0 PUSH1 0x20 DUP3 ADD SWAP1 POP DUP2 DUP2 SUB PUSH1 0x0 DUP4 ADD MSTORE PUSH2 0x8E9 DUP2 DUP5 PUSH2 0x7C0 JUMP JUMPDEST SWAP1 POP SWAP3 SWAP2 POP POP JUMP JUMPDEST PUSH1 0x0 PUSH1 0x20 DUP3 ADD SWAP1 POP DUP2 DUP2 SUB PUSH1 0x0 DUP4 ADD MSTORE PUSH2 0x90A DUP2 PUSH2 0x82D JUMP JUMPDEST SWAP1 POP SWAP2 SWAP1 POP JUMP JUMPDEST PUSH1 0x0 PUSH1 0x20 DUP3 ADD SWAP1 POP DUP2 DUP2 SUB PUSH1 0x0 DUP4 ADD MSTORE PUSH2 0x92A DUP2 PUSH2 0x850 JUMP JUMPDEST SWAP1 POP SWAP2 SWAP1 POP JUMP JUMPDEST PUSH1 0x0 PUSH1 0x20 DUP3 ADD SWAP1 POP DUP2 DUP2 SUB PUSH1 0x0 DUP4 ADD MSTORE PUSH2 0x94A DUP2 PUSH2 0x873 JUMP JUMPDEST SWAP1 POP SWAP2 SWAP1 POP JUMP JUMPDEST PUSH1 0x0 PUSH1 0xA0 DUP3 ADD SWAP1 POP PUSH2 0x966 PUSH1 0x0 DUP4 ADD DUP9 PUSH2 0x8A5 JUMP JUMPDEST PUSH2 0x973 PUSH1 0x20 DUP4 ADD DUP8 PUSH2 0x8A5 JUMP JUMPDEST PUSH2 0x980 PUSH1 0x40 DUP4 ADD DUP7 PUSH2 0x81E JUMP JUMPDEST PUSH2 0x98D PUSH1 0x60 DUP4 ADD DUP6 PUSH2 0x8A5 JUMP JUMPDEST PUSH2 0x99A PUSH1 0x80 DUP4 ADD DUP5 PUSH2 0x8A5 JUMP JUMPDEST SWAP7 SWAP6 POP POP POP POP POP POP JUMP JUMPDEST PUSH1 0x0 DUP2 SWAP1 POP PUSH1 0x20 DUP3 ADD SWAP1 POP SWAP2 SWAP1 POP JUMP JUMPDEST PUSH1 0x0 DUP2 MLOAD SWAP1 POP SWAP2 SWAP1 POP JUMP JUMPDEST PUSH1 0x0 PUSH1 0x20 DUP3 ADD SWAP1 POP SWAP2 SWAP1 POP JUMP JUMPDEST PUSH1 0x0 DUP3 DUP3 MSTORE PUSH1 0x20 DUP3 ADD SWAP1 POP SWAP3 SWAP2 POP POP JUMP JUMPDEST PUSH1 0x0 DUP3 DUP3 MSTORE PUSH1 0x20 DUP3 ADD SWAP1 POP SWAP3 SWAP2 POP POP JUMP JUMPDEST PUSH1 0x0 PUSH2 0x9F9 DUP3 PUSH2 0xA82 JUMP JUMPDEST SWAP2 POP PUSH2 0xA04 DUP4 PUSH2 0xA82 JUMP JUMPDEST SWAP3 POP DUP3 PUSH32 0xFFFFFFFFFFFFFFFFFFFFFFFFFFFFFFFFFFFFFFFFFFFFFFFFFFFFFFFFFFFFFFFF SUB DUP3 GT ISZERO PUSH2 0xA39 JUMPI PUSH2 0xA38 PUSH2 0xAD5 JUMP JUMPDEST JUMPDEST DUP3 DUP3 ADD SWAP1 POP SWAP3 SWAP2 POP POP JUMP JUMPDEST PUSH1 0x0 PUSH2 0xA4F DUP3 PUSH2 0xA62 JUMP JUMPDEST SWAP1 POP SWAP2 SWAP1 POP JUMP JUMPDEST PUSH1 0x0 DUP2 ISZERO ISZERO SWAP1 POP SWAP2 SWAP1 POP JUMP JUMPDEST PUSH1 0x0 PUSH20 0xFFFFFFFFFFFFFFFFFFFFFFFFFFFFFFFFFFFFFFFF DUP3 AND SWAP1 POP SWAP2 SWAP1 POP JUMP JUMPDEST PUSH1 0x0 DUP2 SWAP1 POP SWAP2 SWAP1 POP JUMP JUMPDEST PUSH1 0x0 PUSH2 0xA97 DUP3 PUSH2 0xA82 JUMP JUMPDEST SWAP2 POP PUSH32 0xFFFFFFFFFFFFFFFFFFFFFFFFFFFFFFFFFFFFFFFFFFFFFFFFFFFFFFFFFFFFFFFF DUP3 EQ ISZERO PUSH2 0xACA JUMPI PUSH2 0xAC9 PUSH2 0xAD5 JUMP JUMPDEST JUMPDEST PUSH1 0x1 DUP3 ADD SWAP1 POP SWAP2 SWAP1 POP JUMP JUMPDEST PUSH32 0x4E487B7100000000000000000000000000000000000000000000000000000000 PUSH1 0x0 MSTORE PUSH1 0x11 PUSH1 0x4 MSTORE PUSH1 0x24 PUSH1 0x0 REVERT JUMPDEST PUSH32 0x52656A6563746564212053656E642065786163746C7920302E30312065746865 PUSH1 0x0 DUP3 ADD MSTORE PUSH32 0x7220746F20766F74652100000000000000000000000000000000000000000000 PUSH1 0x20 DUP3 ADD MSTORE POP JUMP JUMPDEST PUSH32 0x52656A656374656421204F6E6C7920636F6E7472616374206F776E6572206361 PUSH1 0x0 DUP3 ADD MSTORE PUSH32 0x6E20637265617465206E657720766F7465210000000000000000000000000000 PUSH1 0x20 DUP3 ADD MSTORE POP JUMP JUMPDEST PUSH32 0x52656A65637465642120566F7465204944206F7574206F662072616E67652100 PUSH1 0x0 DUP3 ADD MSTORE POP JUMP JUMPDEST PUSH2 0xBD4 DUP2 PUSH2 0xA82 JUMP JUMPDEST DUP2 EQ PUSH2 0xBDF JUMPI PUSH1 0x0 DUP1 REVERT JUMPDEST POP JUMP INVALID LOG2 PUSH5 0x6970667358 0x22 SLT KECCAK256 SWAP13 MSIZE 0xC CHAINID SWAP15 EQ 0xD1 CREATE 0xC2 0x4F XOR PUSH7 0xFB4DE8B9BB682B 0xC7 COINBASE PUSH26 0x9B0CAEE27A7E5B17433064736F6C634300080400330000000000 "
				},
				"gasEstimates": {
					"creation": {
						"codeDepositCost": "619200",
						"executionCost": "21517",
						"totalCost": "640717"
					},
					"external": {
						"closeVote(uint256)": "404",
						"createVote()": "63701",
						"getVoters(uint256)": "infinite",
						"getVotes()": "infinite",
						"owner()": "1277",
						"sendDepo(uint256)": "infinite",
						"sendVote(uint256,uint256)": "infinite",
						"votes(uint256)": "infinite"
					}
				},
				"methodIdentifiers": {
					"closeVote(uint256)": "6e48a035",
					"createVote()": "694ff0f2",
					"getVoters(uint256)": "86b646f2",
					"getVotes()": "0dc96015",
					"owner()": "8da5cb5b",
					"sendDepo(uint256)": "4d55f046",
					"sendVote(uint256,uint256)": "291e6777",
					"votes(uint256)": "5df81330"
				}
			},
			"storageLayout": {
				"storage": [
					{
						"astId": 3,
						"contract": "contracts/ballot.sol:Ballot",
						"label": "owner",
						"offset": 0,
						"slot": "0",
						"type": "t_address"
					},
					{
						"astId": 30,
						"contract": "contracts/ballot.sol:Ballot",
						"label": "numVotes",
						"offset": 0,
						"slot": "1",
						"type": "t_uint256"
					},
					{
						"astId": 35,
						"contract": "contracts/ballot.sol:Ballot",
						"label": "votes",
						"offset": 0,
						"slot": "2",
						"type": "t_mapping(t_uint256,t_struct(Vote)28_storage)"
					}
				],
				"types": {
					"t_address": {
						"encoding": "inplace",
						"label": "address",
						"numberOfBytes": "20"
					},
					"t_bool": {
						"encoding": "inplace",
						"label": "bool",
						"numberOfBytes": "1"
					},
					"t_mapping(t_uint256,t_struct(Vote)28_storage)": {
						"encoding": "mapping",
						"key": "t_uint256",
						"label": "mapping(uint256 => struct Ballot.Vote)",
						"numberOfBytes": "32",
						"value": "t_struct(Vote)28_storage"
					},
					"t_mapping(t_uint256,t_struct(Voter)12_storage)": {
						"encoding": "mapping",
						"key": "t_uint256",
						"label": "mapping(uint256 => struct Ballot.Voter)",
						"numberOfBytes": "32",
						"value": "t_struct(Voter)12_storage"
					},
					"t_struct(Vote)28_storage": {
						"encoding": "inplace",
						"label": "struct Ballot.Vote",
						"members": [
							{
								"astId": 14,
								"contract": "contracts/ballot.sol:Ballot",
								"label": "id",
								"offset": 0,
								"slot": "0",
								"type": "t_uint256"
							},
							{
								"astId": 16,
								"contract": "contracts/ballot.sol:Ballot",
								"label": "startTime",
								"offset": 0,
								"slot": "1",
								"type": "t_uint256"
							},
							{
								"astId": 18,
								"contract": "contracts/ballot.sol:Ballot",
								"label": "closed",
								"offset": 0,
								"slot": "2",
								"type": "t_bool"
							},
							{
								"astId": 20,
								"contract": "contracts/ballot.sol:Ballot",
								"label": "balance",
								"offset": 0,
								"slot": "3",
								"type": "t_uint256"
							},
							{
								"astId": 22,
								"contract": "contracts/ballot.sol:Ballot",
								"label": "numVoters",
								"offset": 0,
								"slot": "4",
								"type": "t_uint256"
							},
							{
								"astId": 27,
								"contract": "contracts/ballot.sol:Ballot",
								"label": "voters",
								"offset": 0,
								"slot": "5",
								"type": "t_mapping(t_uint256,t_struct(Voter)12_storage)"
							}
						],
						"numberOfBytes": "192"
					},
					"t_struct(Voter)12_storage": {
						"encoding": "inplace",
						"label": "struct Ballot.Voter",
						"members": [
							{
								"astId": 5,
								"contract": "contracts/ballot.sol:Ballot",
								"label": "id",
								"offset": 0,
								"slot": "0",
								"type": "t_uint256"
							},
							{
								"astId": 7,
								"contract": "contracts/ballot.sol:Ballot",
								"label": "addr",
								"offset": 0,
								"slot": "1",
								"type": "t_address"
							},
							{
								"astId": 9,
								"contract": "contracts/ballot.sol:Ballot",
								"label": "voted",
								"offset": 20,
								"slot": "1",
								"type": "t_bool"
							},
							{
								"astId": 11,
								"contract": "contracts/ballot.sol:Ballot",
								"label": "voteCount",
								"offset": 0,
								"slot": "2",
								"type": "t_uint256"
							}
						],
						"numberOfBytes": "96"
					},
					"t_uint256": {
						"encoding": "inplace",
						"label": "uint256",
						"numberOfBytes": "32"
					}
				}
			},
			"userdoc": {
				"kind": "user",
				"methods": {},
				"version": 1
			}
		}
	}
}